:20000000504000204589000001CA011001CA011001CA011001CA011001CA011001CA01103A
:1C00200001CA011001CA011001CA011001CA011001CA011001CA01103FCA011082
:20003C002DE9FE430AAF3C8805460E4699469046304602A90AF04CF94B464246294601286B
:20005C0008BF012049D0BDF80800DFF8948042F60215FF27401B4FF000052AD048F23F1143
:20007C00401A2ED0401E12D0801E20D1ECB9012B19D110780A2808DBF1680870F168444631
:20009C00601C88421DD102271DE0802519E064B9012B08D11078F1680870F16844468C4220
:2000BC000FD101270FE00D250BE00B2509E00A2507E00094084601243146019407F00CFDCE
:2000DC000546FF2F08D04046001D006820B1006810B10146384688472846BDE8FE83C04680
:0400FC00D41B0020F1
:200100003C000000000000000000000034010000000000000000000001000000000000006D
:1C01200000000000000000000000000001000000000000000800000000000000BA
:20013C00340000000000000000000000680100000000000000000000010000000000000005
:14015C00010000000000000000000000080000000000000086
:2001700030000000000000000000000098010000040000000000000001000000FFFFFFFFA5
:10019000FF00000001000000080000000000000057
:2001A0002C0000000000000000000000C4010000040000000000000001000000FFFFFFFF4D
:0C01C000FFFFFFFF08000000000000002F
:2001CC0034050000E401000099A1011095A70110A5C2011009B2011045B80110000000000B
:0801EC00000000002F000000DC
:2001F400280000000000000000000000140200000000000000000000FFFFFFFF00000000B1
:080214000800000000000000DA
:20021C00300500003002000069C201106DC101101FC2011095BA011000000000000000008E
:04023C002D00000091
:20024000300500005402000075C20110A9B601109DBF011049B601100000000000000000DE
:040260002E0000006C
:200264002400000000000000000000008002000000000000000000000000000008000000CC
:040284000000000076
:20028800240000000000000000000000A40200000000000000000000000000000800000084
:0402A8000000000052
:2002AC00240000000000000000000000C8020000000000000100000000000000080000003B
:0402CC00000000002E
:2002D00000000000C023002004000000000000000000000020000000700100003000000046
:2002F0001C020000C82300200400000000000000000000000C000000300400001800000069
:2003100040020000D0230020040000000000000000000000240000004804000018000000EC
:2003300000000000D823002004000000000000000000000010000000A00100002C000000B1
:20035000CC010000E0230020040000000000000000000000200000006402000024000000EF
:20037000FFFFFFFFE82300200400000000000000000000002800000088020000240000006C
:20039000FFFFFFFFF0230020040000000000000000000000580000003C0100003400000051
:2003B000FFFFFFFFF823002004000000000000000000000010000000600400001800000066
:2003D000FFFFFFFF002400200400000000000000000000001C000000AC02000024000000DB
:2003F000FFFFFFFF0824002004000000000000000000000038000000F4010000280000004C
:20041000FFFFFFFF1024002004000000000000000000000054000000000100003C000000E7
:1804300018000000000000000000000040040000080000000000000050
:1804480018000000000000000000000058040000080000000000000020
:18046000180000000000000000000000700400000800000000000000F0
:08047800010000004CBF000070
:0404800007F034BD90
:040484000100000073
:0404880000000C0064
:04048C0000000D005F
:040490003200000036
:040494000100000063
:040498003C230020E1
:04049C00000200005A
:0404A0000000000058
:0404A40001CA011078
:0404A8000000000050
:0404AC00000000004C
:0404B0000800000040
:0404B4000000210023
:0404B800702100208F
:0404BC00010000003B
:0404C00054230020A1
:0404C400080000002C
:0404C8000000000030
:0404CC00000000002C
:0404D0000000000028
:0404D4000000000024
:0404D8000000000020
:0404DC00010000001B
:0404E0003C2200209A
:0404E400060000000E
:0404E800010000000F
:0404EC00D8200020F4
:0404F0000000000008
:0404F4000000000004
:0404F80000020000FE
:0404FC0000000000FC
:02050000704742
:020502002900CE
:020504000100F4
:020506002500CE
:020508002D00C4
:02050A002E00C1
:02050C002F00BE
:02050E000100EA
:0105100001E9
:0805140003000000B8BE000066
:08051C000000000000000000D7
:0405240000000100D2
:0405280000000300CC
:04052C0087C401106F
:04053000380500008A
:040534003805000086
:0405380000000000BF
:04053C00900000002B
:040540009000000027
:0405440000000000B3
:040548005423002018
:04054C00F5B1000005
:040550002000000087
:0405540040BC0000A7
:040558009CBB000048
:04055C000DC30110BA
:040560007B650000B7
:040564000368000028
:0405680099C801101D
:04056C009BC8011017
:040570000000000087
:0405740077BB000051
:0405780084BA000041
:04057C009CBA000025
:040580006CBA000051
:0205840008006D
:0205860009006A
:02058800010070
:02058A0000006F
:01058C00016D
:040590000000000067
:040594000000000063
:04059800000000005F
:04059C00000000005B
:0405A00061B6000040
:0405A4006596000058
:0405A80075A5000035
:0405AC00C59F0000E7
:0405B000739B000039
:0405B400F59F0000AF
:0405B8009D6D000035
:0405BC00D1B30000B7
:0405C000D5770000EB
:0405C40011C8011049
:0405C80021C8011035
:0405CC000800000023
:0405D0002400000003
:0405D400180000000B
:0405D80028000000F7
:0405DC0020000000FB
:0405E0003C000000DB
:0405E4000C00000007
:0405E80034000000DB
:2005EC002DE9F04F0820ADF17C0DDFF8FCB2ADF840000120ADF84200DBF80000014610A807
:20060C008847C84C9DF8440060700026A6701298E0614FF6FF70A08208F0CAFFB046C64D7B
:20062C002070324633460120CDF800802946019004F1A800159007F0D3F90220CDF800805B
:20064C00324633462946019004F1CC00149007F0C7F90420CDF80080324633462946019027
:20066C0004F1F000139007F0BBF904F14809042010223146E070484605F08AFC04F1580A78
:20068C0010225046314605F083FC04F120073E6004F10B052E700720A072102126724A46AC
:2006AC006672022008F0A0FF03201021524608F09BFF04203A46014608F096FFCDF86090F2
:2006CC0004F13E001E90CDF864A015981C974FF00309169005F12D00159005F17C00179032
:2006EC0005F121001A9005F15D001B9027351D9509E0A078062818BF072804D16078A18A14
:20070C00132208F03DFB08200A21ADF838004FF0FF35ADF83A10DBF800700F950EA83946BA
:20072C008847002840F062813046082102900925ADF82810DBF80070ADF82A500AA83946D4
:20074C008847DDF830A00028CDF808A040F04E81BDF82C106078102940F03A819DF82E10C5
:20076C00884240F0358155462A884FF6FF73A91C934200F0258151460F78A23F00F0098110
:20078C002E3F40F025818978B046002900F0D680891E00F0AB80491E01297DD9891E4CD038
:2007AC00491E23D0491E03D0083900F0E480E6E013980AF04BFF02984778002F40F0DF8038
:2007CC00C188E182018921834089608314980AF07DFD002840F0D380A76A002F00F0CF803D
:2007EC003B68E08A218B628B9847F1E0A88809F06FFC15984146062205F0CAFBE6822683DC
:20080C006683A879607314980AF020FF13980AF01DFF4FF001084FF6FF706779A0824FB963
:20082C00A879082814BF04200520A07040460AF08DFBA4E084F80290A1E06F7837BB291DF5
:20084C000A6815980260898881800627A7706889A082E889E082288A2083688A94F83E10AE
:20086C006083E8780129207308D11F2008F06AFA4FF47A714143149808F02AFEE8786A8927
:20088C002D1D0423294607F07DFB7BE0687831286FD12671042023E06F78002F69D1A878FB
:2008AC00678AA178032812D02079657927B9012814BF6671267106E0054304D01698394625
:2008CC0008F006FEA1780729E4D1062008E0062908D02779002F08BF84F8029052D0022015
:2008EC00A0704FE00720FBE7401900206B786F1C002B3ED1ED78A178E279ADB9022918D031
:20090C00072916D0062902D16079012811D103290FD016980AF0DAFC58B901200AF016FB09
:20092C0007E0C04620050020179B414607F082FE38703F78EFB922E059AF00006F78C7B951
:20094C00189A0220102108F06BFE199A4846102108F066FEED1C29681A98AF88016001254D
:20096C0087802946A2791B9B6078A57007F062FE40B10820B4E7A88805210AF037FDB8F1FF
:20098C00010F25D1676A1FB33F680FB3A078B8471EE0687913281BD12889012808D1A07B4E
:2009AC00022805D113980AF051FE09F0FFFE0FE0052008F0C7F90146139808F089FD07E01E
:2009CC000888C00B04D31C9A0420014608F028FE029FDBF800004FB10821ADF82010ADF883
:2009EC002290CDF824A0014608A88847208A6779217942082DD320F0010057EA0105208282
:200A0C0027D02E4800786FB9227A617A8DF80C201D9F8DF80D103B680DF10E052B60BA88B6
:200A2C00AA8001E08DF80C90E17A8DF81510A27A8DF8142003A90AF0D3FC48B10820676A3D
:200A4C00A0702FB13D681DB13868014608208847208A810807D320F002001E99208230465B
:200A6C0005F0A4FC208AC108FFF44DAE20F00400A77B20827F1E03D07F1E3FF43AAE42E64C
:200A8C00A078B4F84050B4F84230B4F84420B4F8461006287FF437AEADF81850ADF81A3044
:200AAC00ADF81C201498ADF81E100AF0CFFD01200DF1160105F07AFC25E6C046210500200C
:200ACC002DE9F04FADF1740D06F024FAD54C04F1200004F1640104F0EDFCDD49E0600AF0B5
:200AEC00BBFC4FF008080127DFF868B3ADF86080DBF80000ADF86270014618A888479DF890
:200B0C00640060701A98A06004F12C000AF030FC00264FF0040A04F180054FF47A72D44963
:200B2C002061334600962846CDF804A006F058FF1F20394608F0E0FD4FF44870ADF81800AA
:200B4C008DF82070B146ADF81E908DF81C9008AAADF81A803946ADF816906420ADF8140001
:200B6C0040F2053000F05EFD40F2063002210DF11E0200F057FD4FF442701B2104F146025C
:200B8C0000F050FD1B9504F1380240F207300E2100F048FD4FF44470394607AA00F042FD0A
:200BAC0040F2113002210DF11A0200F03BFD40F21230022106AA00F035FD40F21330022150
:200BCC000DF1160200F02EFD4FF44570022105AA00F028FDBD4D3046152105F147020AF00A
:200BEC0079FA0620A02108F087FD0720A02108F083FD4046A02108F07FFD0920A02108F016
:200C0C007BFDCDF8109003268DF80F7038468DF80E9051468DF80D6004AA8DF80C004FF412
:200C2C00816008F021FB4FF480600DF10F02394608F01AFB40F202400DF10E02394608F0FC
:200C4C0013FB40F203400DF10D02394608F00CFB40F2064003AA394608F006FB4FF0FF306F
:200C6C000AF0B0FC4FF0FF300AF0A9FC0AF028FA05F111023846112102F08AF90220052123
:200C8C002A4602F085F905202A46014602F080F905F134023046132102F07AF96A1D5046C9
:200CAC000C2102F075F905F12207062012213A4602F06EF908F072FE7F2003F025FFA0701C
:200CCC007F2814BF0A200F20052107F0ABFB07F099FF09F0C9F809F0AFF806F07BF907F028
:200CEC00C7FB09F0D9F809F0E1FD0AF0FFF804F1140008F0E7FC04F1180009F0FFF9544915
:200D0C00E0680AF0A9FB4FF0050A5D460A21ADF85A104FF0FF37ADF858802868179701463F
:200D2C0016A88847002840F0158148462F6802900926ADF848803946ADF84A6012A8884782
:200D4C00149E0028029640F0F780BDF84C0010280CD160789DF84E10884207D130460178FC
:200D6C00B02903D10179083009F078FE0298002800F0E2800321ADF84210ADF84080286875
:200D8C001196014610A88847D6E0206909F0BEFD071C00F0D1803E78781C761E35D0761E04
:200DAC0040F0C1800078B978401E2AD0401E24D0801E1ED0401E18D0401E12D0401E0CD017
:200DCC00401F06D0401E40F0AE80084609F026FFA9E0084603F008FCA5E0084603F0A2FF75
:200DEC00A1E0084604F092FE9DE0084604F0D4FF99E0084603F098FB95E0084604F0D6FC2C
:200E0C0091E0084604F008FF8DE00678701E5FD0401E21D0801E012844D9801E04D0801E21
:200E2C0028D07FE0040900201B980AF04FFA10B91B980AF009FCE0680A214A4608F0BCFA00
:200E4C00E0680F214A4608F0B7FA15214A4625E011AF0000401900201B980AF037FA10B92A
:200E6C001B980AF0F1FB48460AF058F85AE0C0466DB1000009F00CFC09F0E6FB09F038FB90
:200E8C0009F0ECF908F008FB09F0CCFB07F032FD05F018FA0AF012F80A210122E06808F0EE
:200EAC008BFA3FE009F0F4FB09F0CEFB09F020FB09F0D4F908F0F0FA09F0B4FB07F01AFD66
:200ECC0005F000FA09F0FAFF2CE0C04678B900000F20514607F0A6FA4FF441700EA901F0E9
:200EEC0023FF9DF839308DF831308DF834908DF833909DF83D108DF837109DF83A208DF82D
:200F0C0032209DF83C309DF838008DF836309DF83B308DF8300041460CAA48468DF8353050
:200F2C0002F036F82670ADF82880ADF82AA028680B9701460AA8884720690AF07FFC002813
:200F4C003FF423AF04F04EFB09F090FB02F038F90AF0FCF8A088C108FFF4D8AE20F0040030
:200F6C002178A08002297FF4D1AE1B980AF06CFB207802287FF4CAAE0F20012107F052FA3A
:200F8C00C4E67047D74A2DE9F04F0126ADF1140D02F141010490D148C1F8CF6F0768002F11
:200FAC00FCD0D148C02344380360CD4B029003F108000068800804D25868000C40F0F00026
:200FCC0000E07220D94FDA4C0193002587F84C02A4F1DC081846C1F8FF5FD0F80CA058F80D
:200FEC00040CC0F304600AF0BCF900EB2A70401C162805DA10F10A0FB8BF6FF0090000E038
:20100C00152000F01F0040F4F850A7F864021068800828BF4AF0406AC6494FEADA604FEA79
:20102C009A6580F0010000F00100086085F0010000F001008860504605F0B0FD00220446E8
:20104C0015460AF0FDF900B935462A46BA4D2B68002BFCD0DFF8E49209F10809C9F810409B
:20106C002E600AB10AF0F2F909F080FE80B20090B24840F2FF3200232C2107F023FB0AF021
:20108C00DDF804460AF0DCF94FF0000B00B9B3462B68002BFCD0C9F81440BBF1000F2E6072
:2010AC0001D00AF0D3F909F0E7FC04460AF0C8F94FF0000B00B9B3462B68002BFCD0C9F865
:2010CC000C40BBF1000F2E6001D00AF0BFF909F029FE04460AF0B4F94FF0000B00B9B346DF
:2010EC002B68002BFCD0C9F80840BBF1000F2E6001D00AF0ABF9049805F070FA04460AF05A
:20110C009FF94FF0000B00B9B3462B68002BFCD0C9F80440BBF1000F2E6001D00AF096F9FD
:20112C000499084609F0E6FD844C4000403440F0200084F80901084609F0E8FD40F0100016
:20114C0084F80901084609F041FB03900AF078F94FF0000B00B9B3462B68002BFCD003985B
:20116C00C9F82000BBF1000F2E6001D00AF06EF90499084609F0E2FD400040F0600084F8F8
:20118C000C01084609F0E6FDC00040F0800084F80101084609F0F6FD800040F47C40A4F8D8
:2011AC009C01084609F01AFA03900AF049F94FF0000B00B9B3462B68002BFCD00398C9F87A
:2011CC000000BBF1000F2E6001D00AF03FF94FF480002060D8F8580040F20F216FF31F4029
:2011EC00814215D9D8F80000D8F80030C0F30365C3F3034005B16D1E072805D006280EBF0E
:20120C000720801C00F00F0045EA001007F8080CCAF38140401E02D0401E28D024E0D8F8D6
:20122C00D000810C20D24FF480412160D7F80210420AC0F3033502F0800221F08F010A4354
:20124C0045EA0201C7F80210D7F80120031263F30302C7F80120396800F0E70521F0E701C9
:20126C0045EA0100386002E04FF0004020604FF40070206409F0DAFF40F03000334F84F852
:20128C00C800CAF3815088B3401E03D0401E20D002211FE0304609F043FC05460420294684
:2012AC0007F074F8042009F03BFC8542FAD10198056825F07F4008F007FE384614300068D8
:2012CC00036807214FF06022280E98474FF4806020600321042007F059F80EE0940222437D
:2012EC00A83F00500000094044600C400420314607F04CF8124808F0E7FDD8F8B00011498C
:20130C00114B47F6180500F03F0084F8CB0F3A460D8018681068C16802208847402102986C
:20132C000B4C016005B02660BDE8F08F0A600840981300500000204300800C4000A00C40C2
:20134C00BD37860070B00C402C200940A0010010940460422DE9FF47A24C0F460546F80B2E
:20136C0080F01E81B80880F0A380B80F63D2E07A002848D1380948D3002501266570607912
:20138C00667208B1984805709849216198492A4604F14C000AF04FF9A07901281AD1E0799E
:2013AC00C0B9944E306870B109F09EFE61693368401A000BE061226A8018B0EBC31F28BFE5
:2013CC00256208D2206204F1CC004FF0005109F01DFE2DE0A67104F1380040F609010180A7
:2013EC0094F8451001F0F00141F0010184F84510658794F8441001F0F00184F84410E56354
:20140C007D4E306014E0380910D2B80BC0F0E180A66A46B1706830B17568F068B6F91010B6
:20142C0078A20CCAA84727F40057D2E00020E07227F00807CDE0714904F14C0000220AF041
:20144C00FAF8E86840F6C411814216D1042009F067FB90B1606980B1A06970B909F044FE62
:20146C006169A061814226BF401A401E401A000BE860E86800F58D70E860E07958B102207A
:20148C00ADF80000684609F0E1F90020E071BDF80860A4F89C600120607020790026401CE8
:2014AC0020711920267209F031FF27F0005790E004F1300ADAF80060002E69D0B06840F6A1
:2014CC0003031A4606F10C0C2025521C02E040686D1EEDB268B165B101888B4218BF8A42FC
:2014EC00F5D1DCF800102CC818312CC129C881E829000025326A35627368DBB196F82430E8
:20150C0042F002024FF0000990465B1E07D05B1E03D09B1E06D13DA002E03EA000E03FA0E3
:20152C0090E800037268F068B6F910104B4694464246E047B4F93600401C6FF31F30E086B3
:20154C00504609F08BFCF068B0F98C10B4F9362091421DD1217801291AD090F88E3093B9C9
:20156C00036883B1E1680968B1F1FF3F10D0244909686830B3FBF1F10AF05CF9F068683001
:20158C000AF054F904E080F88E50284606F054FADAF8000027F0020708B147F0020718E029
:2015AC000AF040F9E66A356A0AF038F9A8080ED26EB1306AA8433062706840B17168F06812
:2015CC00B6F9106000232A468C463146E04727F4804727B104F1CC00394609F017FD009046
:2015EC00BDE8FF87D014002002620840396D0000E5A600001832002000100440D93200000A
:20160C0044BF0000000000002000000000000000000000100000000000000040000000004B
:20162C00000000202DE9F8430C4603461546DFF894C2A24EDFF888E2A4499F48A24A0027F2
:20164C00A3F20138B8F11A0F1CD8DFE818F0290125011F011B00FC00F700E000CF00C80026
:20166C00C100B900B100AA001B001B00A000930085007A006D001B001B001B001B005100F7
:20168C001B002600282B06DA022C04D12988184608F032F8D0E002270BE1012C40F00281F1
:2016AC00C178012900F0F08002792978017182B9002900F0FE804078012800F0D6800428A8
:2016CC0000F0D380062800F0D080052800F0CD80EFE02978002940F0EC804178032900F0D9
:2016EC00CF80072900F0CC80052940F0E280C7E0012C40F0D7802878012840F0D38006F1C5
:20170C00F00009F0E3FD68B93446384604F13E0104F04CFE071C40F0CC8004F1CC0009F010
:20172C0095FFC6E01627C4E0022C40F0BB8029880A29C0F2B780B1F5486F00F3B3807046E3
:20174C0016E0022C40F0AE802988B1F5FA7F80F2A98070460180ACE0022C40F0A38029889B
:20176C000629C0F29F80B1F5486F00F39B806046801CEFE7022C40F0958029880629C0F2D5
:20178C009180B1F5486F00F38D806046E2E7012C40F088802878022880F2848002F10C01BB
:2017AC000CE0012C7ED1287804287BDA0B3105E0012C77D12878082874DA0A31087078E0D5
:2017CC00062C6FD1296810460160AE88868070E0012C67D12878042864DA0931EEE7012C0C
:2017EC0060D1287804285DDC0831E7E7202C59DA06F1870839461F22404604F0C9FB29462E
:20180C002246404603F0BAFDF47139460FE0202C48DA06F1680839461F22404604F0B8FB8F
:20182C0029462246404603F0A9FDB471012170782246434606F0FEFE07463AE0022C31D1FD
:20184C002988113086E7012C2CD1017901291BD0C2782978C17062B900292AD04078012839
:20186C0003D0042818BF052823D1012009F06EFB1FE02978E9B94178022918BF052918D1CE
:20188C00007809F0BBFC14E0122712E0042C09D129681F3001600CE0102C03D1573004E043
:2018AC00102C01D0182704E047302946102203F065FD3846BDE8F883210500202005002056
:2018CC00640500206005002052050020200500202DE9F04F0128ADF1140D40F0F280DFF87C
:2018EC001492D9F8DC00012840F0E9800220C9F8DC0009F08FFF0290012006F04FFF20B1B9
:20190C0001210646C9F8DC10D5E009F07FFF03906E484FF00008C0F80080012009F000F999
:20192C00012818BFCDF8008004D1404606F02EFA0120009066486E4CC0F800801934D4F873
:20194C00FF0F112009F094FD00280CBF46460126102009F08DFD08B146F002060F2009F03A
:20196C0087FD08B146F004060B2009F081FD30B1584800685849006B0246088890470A206E
:20198C0009F076FD0028404618BF01204FF0805B0BF5DC7528B128685049006B0246088879
:2019AC0090474F480127076028688069014646F0200088474B48076009F054FD00F0010103
:2019CC000191400815D2484809F0BDFC8246BAF1040FF8D0BAF1010F06D1DBF8D8014068C4
:2019EC0002464148032190474049086820F003000860404600F080F82868D4F8FF1F806B48
:201A0C008047019801280ED0BAF1010F06D1DBF8D801406802463448394690473349086867
:201A2C0040F0030008602A480760286840690146304688470B2009F01BFD28B1286826494D
:201A4C00C06A0246088890470A2009F011FD28B128682249C06A02460888904720480760F4
:201A6C000322C9F8DC201F4BC3F800802868406B0146304688470128F8D1042006F08EFE74
:201A8C00124807601A48D4F8FF1F01688909FCD30098012802D1384606F078F909F0D6FC1F
:201AAC00082006F07BFE06460398C9F8DC7009F0A9FE05F0D1FD029809F0A0FE02E00426EF
:201ACC0000E00126304605B0BDE8F08F0C40094000022243B801001002BA0000FEB900006C
:201AEC002820086080010443004003402422084014100940281A00202DE9F84F82467A489B
:201B0C00DFF8D89135380068800880F0D78008F027FC054678480830D0F8008000244FEA52
:201B2C002876761C5FEA98500AD2C5F13E0015F10A0F4FEAE000D8BF08208642B8BF061C10
:201B4C00634FD7F87C01C0F3046009F00AFC83463868C0F3044009F004FC06EB0B0200907E
:201B6C00162A05DA12F10A0FB8BF6FF0090200E01522584B584F02F01F0141F4F8511980B3
:201B8C00396811F0030F18BF0124C90828BF44F00204BAF1000F18BF44F00404494691F9B1
:201BAC000730EB1A052B04DA8B79A34208BF888863D0DFF82CE10F2DA5F10F0325DB03EB26
:201BCC0003134FEA232CBCF1070F88BF4FF0070C6746062F88BF06275EF82700042606EB11
:201BEC0087067746BE59361A06F0FF07E00824BFC6F307200744A00824BFC6F30740074460
:201C0C00600828BF07EB166701E00027BC465EF82CE0E0080EF0FF0624BFCEF3072006448E
:201C2C00A00824BFCEF307400644600828BF06EB1E660098A3EB0C23BFB25F438037801A3E
:201C4C0006EB1726D8BF0120342208F0FF0742437A43B2FBF6F04FF6FF72824238BF101CCC
:201C6C00802D80B2888005DA15F1800FB8BF6FF07F0500E07F25CD718C711A4A12681F28BF
:201C8C000A604FF0000208D340F2FF11814206D24008521C8142FBD301E01F208880134F04
:201CAC0011490F38000942EAC00247EA0200C1F8FB0F0026C1F8FF6FBDE8F88F0D4F0C4E5B
:201CCC00494608203760891D0870BDE8F88FC0463C1100506E620840242208401C320020A9
:201CEC009C130050082009403500094000E7A48030100940FDFDA400AC3F00502DE9F04136
:201D0C001C4615468C4208BF854282BF00230022E5E0002C08BF002D0AD100290EBF00283A
:201D2C006FF000006FF0000100F0E1F8BDE8F0815FF000085FF0000E002C08BF8D429CBF28
:201D4C002C1C0025070C47EA01470E0CB44208BFBD429EBF5FEA044444EA15445FEA0545A0
:201D6C00070A47EA01670E0AB44208BFBD429EBF5FEA042444EA15645FEA0525470847EA71
:201D8C00C1774E08B44208BFBD4200F29380870847EA81778E08B44208BFBD427CD8C708BB
:201DAC0047EA4177CE08B44208BFBD4266D8070947EA01770E09B44208BFBD4250D847095A
:201DCC0047EAC1674E09B44208BFBD423AD8870947EA81678E09B44208BFBD4224D8C709B1
:201DEC0047EA4167CE09B44208BFBD420DD8E60146EA5566EF01B14208BFB84201D3C01B61
:201E0C00B14158EB08085EEB0E0EA60146EA95664FEA8517B14208BFB84201D3C01BB14110
:201E2C0058EB08084EEB0E0E660146EAD5666F01B14208BFB84201D3C01BB14158EB080804
:201E4C004EEB0E0E260146EA15762F01B14208BFB84201D3C01BB14158EB08085EEB0E0E02
:201E6C00E60046EA5576EF00B14208BFB84201D3C01BB14158EB08084EEB0E0EA60046EAB3
:201E8C009576AF00B14208BFB84201D3C01BB14158EB08084EEB0E0E660046EAD5766F002F
:201EAC00B14208BFB84201D3C01BB14158EB08085EEB0E0EA14208BFA84201D3401BA14164
:201ECC0058EB08085EEB0E0EA34208BFAA423EBF2D0A45EA0465240A89D3734642461E46AB
:201EEC0017460B46024631463846BDE8F08170472DE9FE4F724C04F12406306815460F4696
:201F0C00009009F08FFC01903846B0F1FF3F05F001070CD1A06A20B9B4F93600401C00B205
:201F2C0002E0A06AB0F91000002184F8A510A16A821000EB527222F00702801AC20002EBEE
:201F4C004012A01800F59C78414500F083800098804549D000284FF003073FD04FF00009AB
:201F6C0004F1A80BCA46006880451ED1584608F0FDFC00980768C0F800A00198009709F06A
:201F8C004DFCA8080ED297F8240040F0040087F82400684608F062FF014606F10C0007F08A
:201FAC00E3FC01E04FF001098327B9F1010F03D00098006800900EE0009991F8240040F0E1
:201FCC00040081F82400684608F048FF014606F10C0007F0C9FC00980028C4D1832F24D066
:201FEC00019809F01BFC20E004F1A80008F0BEFCA8083ABF606A006800206062019809F08E
:20200C000DFC0C36009991F8240040F0040081F82400684608F022FF0146304607F0A4FC37
:20202C00009808B1A808EDD28327207A60B9254904F1CC002161022108F0E8FF60780128C3
:20204C001CBF2148206138E004F1CC00022108F0DDFF32E0A80803D3606A00900023636205
:20206C0098F824100120B840084388F8240009F0CDFB0446002F14BF1448154808F0E6FBE9
:20208C00019809F0CBFBA80813D3009888B10C36014691F8240040F0040081F824006846C0
:2020AC0008F0DCFE0146304607F05EFC00980028EED1204609F0A6FB83273846BDE8FE8F5B
:2020CC00D014002061130000E14D000001000204010001042DE9F04F8346ADF1840D00F004
:2020EC00E3FF06F083FA4FF00009012805D108F0F5FD022808BF4FF0010960490868C0F348
:20210C008150012806D151F80C1C0120090E884040EA09095A495B485B4D09780068C0F3AB
:20212C004600286006F062FA2C46012807D108F0D5FD022803D12068401C206000E020686C
:20214C0038B1FF2204F1400107467F1E01F8012BFBD1DBF80010002601F0FF02FE2A1BD04A
:20216C008C46DE46324601270CF0FF01884204D907FA01F319EA030F01D002207AE00CF0C7
:20218C00FF015EF804CF61181E4381F84020521C0CF0FF01FE29E9D1092001F0A7FEC4F891
:2021AC0004B001A800212422082309F023FB4FF0010804F1240001AA8DF81C80414609F060
:2021CC0015FB23682BB300279435BA4608FA07F019EA000F17D1064204BF07F0FF0141F460
:2021EC00C04104D0E01990F840005BF82010274802F0D2FBF8B24FF0FF3108F0ADFC236847
:20220C00C5F800A001E0042028607F1C2D1D9F42DCD30AA800213022082309F0E3FA1C4EC3
:20222C003078002510210AAB12901A4A009504F1080009F0D3FA16A828220823294609F0E6
:20224C00C9FA716804F1600016AA1C9112491D952B4609F0BBFA114A52F80D0C414620F48F
:20226C00F85040F4005042F80D0C0D4BC2F8FF1F2846196021B0BDE8F08FC046B43F0050DE
:20228C002932002080120840882E0020007FC767CCBE000081AB0000798800000D3009401D
:2022AC00080009402DE9F843814609F0C9F8002100B901216B4E30680028FCD06C4D0124D0
:2022CC002D1DEF6A346009B109F0C0F8DFF89881C7F3072008F1BC01086009F0B1F800219E
:2022EC0000B9214630680028FCD02F68346009B109F0ACF8C7F38440C8F8C00009F0A0F815
:20230C000146002001B92046014630680028FCD0ED69346009B109F099F8C5F38120C8F810
:20232C00D000B9F5C061C8F8B81000F0968098F8D80068B9C8F8D410D8F8C000C8F8C8001F
:20234C00D8F8BC70C8F8C470D8F8D060C8F8CC60D8F8D410D8F8BC60002954BF02206FF038
:20236C000100454605F1C8031A6801EB41014018411000EB917002EBA0021A60D5F8C81011
:20238C00C5F8C46000291CDD1E293DDDD5F8CC0030B93429B4BF15391E21C5F8C81025E054
:2023AC002A29BABFD5F8C8000B381E20C5F8C800D5F8C4003F28B4BF401C3F20C5F8C40003
:2023CC001FE0D5F8CC00032812D011F10B0FC6BFD5F8C8000B30201CC5F8C800D5F8C40089
:2023EC000028CCBF401E0020C5F8C400032009E011F1150FC6BFD5F8C8001530201CC5F895
:20240C00C8000020C5F8CC00B5F8C400174E30214FF47F4208230090304606F053F900940D
:20242C0004214FF400321123304606F04BF9B5F8C80004214FF4F80212230090304606F00A
:20244C0041F9B5F8CC0020214FF440620A230090304606F037F9BDE8F883002088F8D800A6
:20246C00BDE8F88300800C40281A002000A00C4000A00C402DE9FC471E4692460D4681467B
:20248C0009F0D0F95D4C0AAF40F6F871B4F93630B4F934200095D21A1140082902DB09F080
:2024AC00BDF941E0B4F93410491C6FF31F31A186B4F9348009F0B2F94046811000EB517141
:2024CC0021F00701401AC10001EB4011651809F1680008F04BFA05F59C7585F812A0009891
:2024EC00A8606E60C5F80C90A5F8108097E80C0046A696E8030005F1180700261040194098
:20250C0087E8030004F1240085F824600768002F58D1294607F028FA48B9B4F9340000F6FC
:20252C00FF706FF31F30A0866FF0010863E0A9F88C8009F077F989F88E60A17A41B1617833
:20254C0031B10121E172A672E6712179491C217109F064F9A06A00284DD1607870BB207AD5
:20256C00012848D009F05EF90646607AF8B9A86805F0CAFF234A2249E3681268086040B91B
:20258C00304609F04BF904F1CC00042108F03EFD31E0D8680968091A04F1A800B1FBF2F152
:2025AC0009F048F904F1A80009F040F920E0304609F034F91449012008701CE0192008F047
:2025CC00A5FE18E009F02EF90646294604F1240007F0CAF9002818BFA9F88C8008D1B4F974
:2025EC0034006FF0010800F6FF706FF31F30A086304609F013F94046BDE8FC87D0140020CA
:20260C001832002044BF000014320020F1EFFF9F200000002DE9F84F0D4683462868DBF861
:20262C000440DBF80880002800F0AF8009F0FAF8D4F8881021B109F0F1F803202874A4E062
:20264C0001212974C4F8885009F0E8F894F8A40038B194F88D204E49D4F89C00114307F0A6
:20266C004FF96F6809F0DEF804F1D8068146307850B917F0704F02D1042007F065FB0220DF
:20268C0007F062FB01203070484609F0C7F8D8F80090D9F8040040F00200C9F80400DBF8D4
:2026AC000830DBF804C0D5F800E019689CF88C201FFA8EF0B1F1804F00FA02F01FFA80FA4A
:2026CC0014BF344E344E3548AA6832B99CF88C108F00C2590CF1A60108E09CF88C108F0078
:2026EC000AEB0201C21952F8082C491EB2607160196801F10808C6F80080B2684FEA0E1100
:20270C0043F6F07E10390EEA01010A43B2601E68B6F1804F14BF224A224A6D68002D04BFF8
:20272C00C05903F10E0504D0C01950F8100C55446D1E90601560C2F8048090680143916068
:20274C00DCF8A0005F6942681969126847EA01009062706A40F003007062D9F8140040F073
:20276C000100C9F81400207828B961686C34204609F028F810B10120BDE8F88F584601F079
:20278C0029F82046002109F01DF80020BDE8F88F000006800005002030040020CCBA0000A6
:2027AC0010050020400400202DE9FC415D4C564D564EDFF85C81594F94F8E410481E0B28BC
:2027CC0000F29F80DFE800F0772C43062343062343067260042907D001220A2945F8212CAB
:2027EC0014BF0220032004E02021012045F8211C024684F8E200002045F8390C0827C5F8C1
:20280C00FF7FC5F8F37F45F8392CBDE8FC81052914BF09200620002584F8E40035606CE085
:20282C0094F8E1700120383D002FC5F81B0004BF0620002102D00021F160032084F8E40041
:20284C00032045F8010C31603068800855D294F8E400012503280DD0002140466022052338
:20286C00009105F02FFF94F8E400062814BF0A200720D1E70220009000216022052340461B
:20288C0005F020FF0420C7E72249002622480E60012505600E2001F055FA022007F03CFA95
:2028AC0084F8E45084F8E360BDE8FC81002038600C2578601FE01A48006800680146202002
:2028CC0088472C3D41F61D560F2000214FF4C072072345F8010C4046C5F80360022500956F
:2028EC0005F0F0FE404600214FF4C072072306F0C9F80120386084F8E45004F1780008F01E
:20290C0095FFBDE8FC81C04639400C4038600C4000A00C402C500C4004800C4034600C40E2
:20292C00A0010010281A0020B0B5456884685148297BADF1180D01291AD001462F7E227ED2
:20294C00637E4D4837F0010741EA020240EA030001904A48009218BF011CA27E11430291BA
:20296C0095F88D200323FF2A13D0014610460DE0A17E627E237E41F00041024343F0004388
:20298C00029195F88D0000933D490192014304230391FE2105F190004DF82310694602F015
:2029AC0089FDC5F89C00002808BF00205FD0287B344951F8200001282BD02068B0F1804F49
:2029CC0014BF22220A22217ED5F89C0007F0EEFB2068B0F1804F14BF21220922617ED5F8DB
:2029EC009C0007F0E3FB2068B0F1804F14BF24220C22A17ED5F89C0007F0D8FB95F88D109F
:202A0C00FF2933D02068B0F1804F14BF23220B2228E02068B0F1804F14BF21220922217E62
:202A2C00D5F89C0007F0C2FB2068B0F1804F14BF22220A22617ED5F89C0007F0B7FB2068B9
:202A4C00B0F1804F14BF24220C22A17ED5F89C0007F0ACFB2068B0F1804F14BF23220B2250
:202A6C0095F88D10D5F89C0007F0A0FB012006B0B0BDC046000480A0004000800004C0A093
:202A8C0000200080B4BA00002DE9F04F04466668A7680D46ADF1440D08F0C4FE96F8DC102A
:202AAC00012903D108F0BAFE00208AE04FF0010B86F8DCB008F0B2FEE868D4F8048028B954
:202ACC00A06890F814A090F8159003E090F800A090F80190BAF1FF0FE6D0B9F1FF0FE3D07B
:202AEC00394941EA0A000D90FE220F9241EA090108F198000E910DA902F0DCFCC8F8A4006C
:202B0C00D8F8A4000028CFD051460D2207F04EFBD8F8A40049460E2207F048FB28783070BB
:202B2C0068687060287A002130220823F06001A808F058FE06943A7B099200250095234A51
:202B4C00B96806F1100001AB08F048FE01A828220823294608F03EFE396907911C4905945E
:202B6C0006F12C0001AA2B4608F030FE01A824220823294608F03EFE06F160008DF81CB07F
:202B8C00594601AA08F032FE307838B906F17C00294601AA08F02AFE0E4870603572C6F8E6
:202BAC00BC50C6F8C050786801F0A0F9204605F065FD094A06F1C8000421234607F034FC41
:202BCC00204611B0BDE8F08F00200084ED3600008B78000073B5000009B300002DE9F043A7
:202BEC0006467768B5680C46ADF1340D08F01AFE97F8D9102D1D012903D108F00FFE00205B
:202C0C0084E04FF0010887F8D98008F007FE4FF00009C7F888902069386160697861207EA6
:202C2C003876207B387320783870606887F8A490786060694946092828BF414687F88C10EF
:202C4C00287A01F053F9304604F09EFEE87D87F88D003046FFF768FE50B9287A01F072F83A
:202C6C0008F0E0FD87F8D99008F0D8FD4E464CE001A849463022082308F0B4FD0696687824
:202C8C00CDF80090234A0990297801AB07F11C0008F0A4FD01A828220823494608F09AFD97
:202CAC000596696807911C4907F1380001AA4B4608F08CFD387878B901A849462422082328
:202CCC0008F098FD07F16C008DF81C80494601AA08F08CFD114800E0A068B86003F020FDB2
:202CEC00397BC7F8A000012908D1D7F89C000C4908F0B2FBD7F89C0000B18660094A07F100
:202D0C00C4000421334607F08FFB30460DB0BDE8F083C046914E0000497C000083B5000097
:202D2C00FD930000DDB400004C4B2DE9F04F0C46283BD97AADF12C0D86460591587B0A90CC
:202D4C00997A0491987809909A7993F80C9093F805A0597A588B0391B3F846800890197AC6
:202D6C00188B02915E8A0790D979D88A0191DF7806901979988A0091196AAEF5407C002513
:202D8C00BCF11D0F10D8DFE80CF0635C59575553514E4A474543403E3C0F3835322F2D27E9
:202DAC002422200F1D1B1A18BEF1280FA8BF02254FDA704605F0C6FF23E0DDF82890CA467B
:202DCC00CDF824A0099805901DE00898079007980690DDF8188005E03833186820609888E2
:202DEC00A08036E040460AE0B3F8440009E0B3F8420004E0B3F8400001E093F83E00064697
:202E0C0014E0208025E0059804900498039001E03233E2E7039802900298009008E0019AC4
:202E2C0003F1870110E003F168010DE03046E8E7009F0DE02C33D0E721600AE003F1580131
:202E4C0001E003F148011022204602F097FA00E0277028460BB0BDE8F08FC04648050020F6
:202E6C002DE9FF410646880FC0F08280454C464D41484FF00008611D1C350F78C5F80080D4
:202E8C0045F81C0C27B13D4880F80080202181703E4A94F84470C44640F60A0104F13800FA
:202EAC00226194F84530A4F83AC007F0F007018003F0F003C4F83CC0B26884F8447043F062
:202ECC00010384F84530171DA2F802C000E01F1D3B6813B11A889142F9D138607A7A02F021
:202EEC00F0027A72626A92681288C91F91421ED0491C91421BD006F118010B88CBB196F80F
:202F0C00243096F82520C6F81CC003F0F00302F0F00286F8243042F0010286F82520E1630C
:202F2C00417BA6F81AC001F0F001417301E0C4F81480B068694607F099FC684608F0B6F9E2
:202F4C00B068FEF71EF828680028FCD0C5F80080012007F0E5FD012807D0787A00F0F000B5
:202F6C0040F001007872064B2361B06845F81C0C0090BDE8FF81C04601010E04006208405F
:202F8C00C1810000D014002000100440611300002DE9F0470C469046DFF8F890414D3F4F27
:202FAC003D493F4AD9F8003008284FF00006ADF1180D69D8DFE800F05F5B4C4844403A11A8
:202FCC0005C0072C59D14046828805F108018A8087798F710068086057E003940420ADF8C3
:202FEC000A004FF0080AADF808A002A89847D8B904980746C0B1696805F1170088420BD026
:20300C0005214846ADF802106A68ADF800A00068019201466846884738464146224602F004
:20302C00ADF96F602C7030E013262EE0142C24DC01F11505294601E0142C1EDC0D460BE008
:20304C00142C1ADC3D4606E0142C16DC3D4603E0142C12DC1546153528463146152202F04C
:20306C0097FF28464146224602F088F90DE0142C03DC1546DEE7082C01D0182605E0404604
:20308C0042686A394A60A5E70226304606B0BDE8F087C04640190020C117002097170020EC
:2030AC006D170020481700202DE9F041434C94F8E700ADF1280D00286CD1384F387B012500
:2030CC000021242284F8E750082384F8E60001A808F074FB002604F10C00069601ABADF819
:2030EC0014602F490796324608F064FB2D4904F1300001AB324608F05DFB2B4904F15400A0
:20310C0001AB324608F056FBB868014628468847DFF89C8025487B7B0078D8F80410C1F32C
:20312C0081571BB1032F03D184F8E150032F16D0022F14D0012F26D103201E4C0090314644
:20314C004FF040521C23204605F0BCFA009531464FF400720923204605F0B4FA13E0022037
:20316C0006F0F2FD032F0CBF4FF47A7142F21071114800685434B1FBF0F1204608F05AFBF5
:20318C00204608F053FBD8F80000C00802D2304606F0DAFD0AB0BDE8F081C04614BE000020
:2031AC003345000071590000215E000029320020B03F005000A00C4044BF0000281A002037
:2031CC002DE9F0413E4F3878002876D03D4C208910F07F0F00F07F086DD006F00BF83A4EFC
:2031EC0021783578A0700DB902293AD12279C30917D2400824D304F1140005F0EDFE04F104
:20320C001A0005F0ADFEE578E088002D08BF217816D00021E17021784FF47A7292FBF0F009
:20322C0009E0521CD0B20228207109D1E0884FF47A72B2FBF0F002B2500000EBC200E060FF
:20324C000025022935700CD12089C00909D304F1200000F0C7F9052822D008B104F0A0F918
:20326C002178E66816B901291BD124E0022904F1140509D0022020700026267100F0CCFD38
:20328C0010B1404600F09AFE2089000A02D3E068401EE060002012212A4602F09FFF0AE0A8
:2032AC00E560002020710126267000F0B5FD10B1607800F0D9FC00203870BDE8F081C0466B
:2032CC00263200208C20002027320020F8B507F0A1FD3F4E3D4F0446A00823D3B96A09B303
:2032EC003D4600208B690A6AA86204EA0300104340F0020006F1080208628B691068984385
:20330C00106001F1180090E80C0030681A1C9043306005F1300006F027FB022105F1CC004F
:20332C0007F074FEB86AA10816D200F118020CCA002122400B40002B08BF002A0CD08269D3
:20334C00016A1440F86207F1CC020C4304624FF48041104607F05AFEB86A002834D107F1DD
:20336C002404256885B3F868E968884226D1A86805F0CAF817490860E0B906F10801A869A9
:20338C000A6810430860326805F1180393E80300081C1043306000233361A86846F80C0CA7
:2033AC0006F1100000680028FAD0204607F056FDBD62F8BD086804F03FFBF8BD07F1CC0005
:2033CC004FF4805107F022FEF8BDC046D01400200C100440183200202DE9F0430646ADF1FA
:2033EC001C0D08F0E3F906F037FC4FF000090546CDF8089008F072F830F0010002D00298BC
:20340C00A84202D16FF0040068E070684C4658B1B0F1FF3F05D001A906F006FC30B1074641
:20342C005BE04FF0FF3000E02046019008F0BAF90199012701EB000802E013463DE00193B3
:20344C006868019908F0BEF900282FD003A804F076FBE0B99DF81000694606F0B5F990B936
:20346C00B268BDF800009DF812101346059A984748B1BDF800009DF81210B081059BB17389
:20348C004F46336112E0059902A806F083F90198641CB0F1FF3FD3D00028D1D008F082F974
:2034AC00B8EB000302D001989842C8D2029E07F0FFFA05F1080146B1334653F80C2C002ACF
:2034CC00BBD10A6843F80C2C0E6007F0C2FD24B1686808F063F9641EFAD1384607B0BDE82B
:2034EC00F0837047F0B5ADF1340DFFF7DDFD344908682822082340F00200086001A800217C
:20350C0008F068F92F4FB978354C07912E49002301AA04F1CC0008F059F900213022082390
:20352C0001A808F05FF9387800261921ADF81C60264A099001AB009604F14C0008F04EF98A
:20354C002822082301A8314608F044F9F97807911F4904F5807001AA334608F037F901A846
:20356C0031463022082308F03DF901257878ADF81C501A2101AB0990164A009604F1680023
:20358C0008F02CF91449324604F1A800134608F011F91248206105F029F83146012808BFDD
:2035AC00291C84F8A560A67126726672A672E672E57161714FF6FF70A4F89C000DB0F0BDC4
:2035CC00002009403ABF00007DAC0000E5A60000B5460000ED7D000045AC0000E14D000045
:2035EC00D0140020FEB53D4C05460621601C017007F0A2FD18B907F04DFF0020FEBD002675
:20360C0001206821667002F049FB2220694601228DF80000372006F0DFFB08B90520607072
:20362C0007F038FF6078002818BF301C54D101200C2102F033FB02206946012207F01FFD93
:20364C0000283CD09DF80000400836D303200DF10101072207F013FD68B39DF80700000931
:20366C0027D29DF802709DF801009DF804609DF803109DF806309DF8052040EA072041EA06
:20368C00062142EA032200B2288009B2698012B2AA80B4F90830584300122880B4F90A00C9
:2036AC00414308126880B4F90C0042431012A88007E0032004E0042002E0022000E00120D9
:2036CC00607011208DF80000694601220A2006F083FB07F0DFFE6078FEBDC046A821002092
:2036EC0098B53A49826844680968106849688847374B01229A6160B1217AFF2909D0FF2182
:20370C00400921725CD204201860022007F063FF56E0207A002853D0401E1DD0401E02D0E6
:20372C00FD3851D049E05968D4F8B4000170D4F8B800D4F8B410401E491CC4F8B800D4F835
:20374C00B870C4F8B41017B3012F88BF092202201A6007F040FF98BDD4F8B000401EC4F88C
:20376C00B000D4F8B070A7B9D4F8B8707FB10220D4F8A8102072097C012F4FEA410141F084
:20378C00010143F8041C94BF03220B22E0E7042210E0D4F8AC0000785860D4F8AC00022FED
:2037AC0000F10100C4F8AC00D1D2D4F8B870002FCDD1052200202072C9E7FF20207298BDB0
:2037CC0004F12C0007F0E6FF98BDC046AC010010042800402DE9F04706467468B56808F0D2
:2037EC0021F8D4F88810002964D008F017F82968486820F0020048602968486A20F003008B
:20380C004862D4F8A0006F6941682A69096847EA0200C1F804052968486920F00100486110
:20382C0028684FF00108C0F82080304606F010FED4F88800D0F8049007F0F4FF04F1D80764
:20384C008246387850B119F0704F02D1042006F063FA022006F060FA00203870504607F00A
:20386C00DDFFD4F88810087C042803D003200874D4F88810D4F8A00043682A6968691B6878
:20388C00474610438740DF622868B0F1804F14BF0A480B48026808689204A0EB9250401E81
:2038AC000860A06800230246C4F8883030469047BDE8F08707F0B2FFBDE8F0870805002053
:2038CC0038040020F8B53A4BC578047944EA05242501B3F90270447990F800C045EA24158C
:2038EC001C88EE10A6EB4406C4EB251464432513B3F9044077436C43A41304EBE72487786F
:20390C0004EB840580352E12457845EA0C20B3F90A500E60000140EA271E6010A0F57A4073
:20392C00811049434C136C43B3F9085045436D1005EBE4054FF4004404EBA544DD88654302
:20394C00EF1331D09C46BCF90E40BCF91030BCF90C50164EC91260434B4340F63544290421
:20396C0003EB400301EBA30104FB1E65081304FB1050C10F19BFB0FBF7F040004000B0FB19
:20398C00F7F0BCF91410BCF91650BCF91240C30886085B4371435B0B49136B4301EB2331DE
:2039AC00641800EB24101060F8BDC046000050C3D8310020F8B5374C0646A078002867D006
:2039CC00B4F93600B4F93410884206D0B6F98C1031A20CCA304601F03BF807F023FFE17867
:2039EC00002946D0491EC9B20029E17041D107F015FF0025A5706078B0B107F013FF07463A
:203A0C00207940B1401EC0B2207120B904F1CC00082107F0FBFA384607F000FF06F1300065
:203A2C004FF0FF3107F0CEFE06F1300007F0AEFE06F1680007F0A6FE04F1CC0007F09EFE30
:203A4C0004F14C0007F096FE04F5807007F096FE04F1680007F08EFE04F1A80007F092FE16
:203A6C002570E560307C012812D10E2000F06AF9F8BD07F0D3FEE068864204BF0020E06077
:203A8C0006F1300007F082FE06F1680007F07AFEF8BDC046D014002002000000000000707D
:203AAC002DE9FE430AAF3C8806460D4699469046284602A906F014FC01464B464246012929
:203ACC00304608BF012058D0BDF80810DFF8B08042F60216FF27891B4FF000063AD048F2DD
:203AEC00FF20091A26D0491E11D0491E30D1002C2CD1022B28D11078062819DAE8681188F1
:203B0C000180E96844468C422BD102272BE0ECB9062B19DA107810280ADCE86811464A4699
:203B2C0001F02CFC1748E96888421AD101271AE0802616E054B9102B06DCE86811464A46DC
:203B4C0001F01CFC37460EE00D260AE00B2608E00A2606E0009401210191294603F0C4FF2C
:203B6C000646FF2F08D04046001D006820B1006810B10146384688473046BDE8FE83C046AC
:203B8C00881D0020901D002032482DE9F04F08214FF00108ADF11C0DADF810100068ADF8AE
:203BAC001280014604A888472B4C069961609DF8140020704FF0FF3104F10C0001F054FAE6
:203BCC002648274D066827484FF47A77B5FBF6F9B0FBF6FA38E0404606F062FC484607F035
:203BEC00C5FD02A805F080F98346002006F058FCBBF1000F1CD002A801A96A46FFF762FEAB
:203C0C009DF805308DF809309DF804208DF808209DF806008DF80A009DF802108DF80D1037
:203C2C009DF801308DF80C309DF800208DF80B200020062102AA02F09BFC60887843401B12
:203C4C00B0FBF6F007F092FD60780128C3D05046F8E7C04640190020B40C002044BF0000D6
:203C6C008038010040420F00F8B5064607F064FA00284FD00120682102F010F800284BD072
:203C8C002F4D09202C1D0122207021466B2006F0A3F800283ED007202871214601226C20E8
:203CAC0006F09AF8002835D001271D2021462F713A4606F091F800282CD040202871214654
:203CCC003A46382006F088F820B3C020287121463A46692006F080F8E0B12E711F2021468A
:203CEC003A4606F079F8A8B10620287121463A461E2006F071F868B12920287121463A4653
:203D0C006B2006F069F828B1E91C1C203A4606F063F818B907F0BEFB0020F8BD3A202146B3
:203D2C003A4607F0ACF907F0B5FB002129706869024905F0E5FD3846F8BDC0460700068041
:203D4C00A82100202DE9F843044607F06BFD81462D48021992F8ED10491ECFB2002F82F805
:203D6C00ED704BD12B4D05EB84052E78698836F07F0788461AD1F10911D24FF08054D4F815
:203D8C00B801806901464046884704F5DC742068406B0146404688470228F8D121E000EBE2
:203DAC008800D0F80011002088471AE04FF08054D4F8B801006A014640468847D4F8B8018A
:203DCC00806A014640468847D4F8B801006B01464046884701210D4A0D481160016889088C
:203DEC00FCD306F03F003F2801D0FFF7ABFF687800F03F003F2801D0FFF7A4FF484607F076
:203E0C000DFDBDE8F883C046281A00202820086028200840D4B90000F8B5334D2F496869C1
:203E2C0005F06EFDFF20A87000242C7068216C70012001F033FF002808BF271C4CD02C46B6
:203E4C0080200122211D20716B2005F0C5FF07F021FB234923480D68B0FBF5F007F086FC18
:203E6C0003F0CCFB261D071C36D0022004F0B4FA07F062F960B304F081FD58B301200C211C
:203E8C0001F00CFF30B30F203070314601220A2005F0A2FF42F21070B0FBF5F007F066FC71
:203EAC0004F10E011020032207F0E9F804F10E0140B10878803020814878803060818878AE
:203ECC008030A08101220B203146227105F084FF07F0E0FA04F0D6FE3846F8BD07000080E2
:203EEC0044BF0000A0860100A82100202DE9F041064607F097FC2D4D8046A91991F8ED000E
:203F0C00421C002881F8ED204AD1294C04EB8604277807F03F003F2801D0FFF7E7FF6078BF
:203F2C0000F03F003F2801D0FFF7E0FF668837F07F001AD1F80911D24FF08054D4F8B8013E
:203F4C00406901463046884704F5DC742068406B0146304688470128F8D121E005EB8605AA
:203F6C00D5F80011012088471AE04FF08054D4F8B801C069014630468847D4F8B801406AF1
:203F8C00014630468847D4F8B801C06A0146304688470121074A0848116001688908FCD351
:203FAC00404607F03BFCBDE8F081C046281A0020D4B900002820086028200840BCB5074638
:203FCC0007F0BAF800285BD02F4C207840BB3FB307F0B2F810B30120682101F05FFEF8B1D4
:203FEC000920211D207101226B2005F0F5FE251DA0B13F202870294601226C2005F0ECFEA0
:20400C000021217050B1E11C1C20012205F0E4FE20B13A202946012207F031F807F03AFAA6
:20402C00F8B2277048B30120682101F037FE48B32078211D012280F0FF0020716C2005F0F3
:20404C00CBFE07F027FA247807F076F8C4F38014B0B104F093FCA8B101200C2101F01EFE8F
:20406C0080B1002C0CBF00201120694601228DF800000A2005F0B0FE02E004F003FEBCBD47
:20408C0007F008FABCBDC046A82100202DE9FF410AAF3F880C4605469846164602A92046F5
:2040AC0006F01EF90146434632460129284608BF012049D0BDF80860DFF8948042F60211B3
:2040CC00FF25761A2DD048F26310361A012E26D81FBB012B1FD1BDF808104AF6662000264A
:2040EC00884202D11178032913DA1178E2681170BDF80810884205D0E1684046884217D134
:20410C00354617E0E1684046401C884210D1012510E080260CE00D260AE00B2608E00A263D
:20412C0006E0009701210191214603F0DDFC0646FF2D08D04046001D006820B1006810B1BA
:20414C0001462846884730460090BDE8FF81C046881F00202DE9FE430AAF3C8805460E4664
:20416C0099469046304602A906F0BAF84B4642462946012808BF012049D0BDF80800DFF86F
:20418C00948042F60215FF27401B4FF000052AD048F21F11401A2ED0401E12D0401E20D1A0
:2041AC00ECB9012B19D110780A2808DBF1680870F1684446601C88421DD102271DE08025E8
:2041CC0019E064B9012B08D11078F1680870F16844468C420FD101270FE00D250BE00B256A
:2041EC0009E00A2507E00094084601243146019403F07AFC0546FF2F08D04046001D0068DC
:20420C0020B1006810B10146384688472846BDE8FE83C046681C00202DE9FE430AAF3C88F2
:20422C0005460E4699469046304602A906F058F84B4642462946012808BF012049D0BDF850
:20424C000800DFF8948042F60215FF27401B4FF000052AD048F2FF01401A2ED0401E12D07F
:20426C00401E20D1ECB9012B19D110781E2808DBF1680870F1684446601C88421DD1022766
:20428C001DE0802519E064B9012B08D11078F1680870F16844468C420FD101270FE00D2522
:2042AC000BE00B2509E00A2507E00094084601243146019403F018FC0546FF2F08D04046E7
:2042CC00001D006820B1006810B10146384688472846BDE8FE83C046F81C00202DE9FE439A
:2042EC000AAF3C8805460E4699469046304602A905F0F6FF4B4642462946012808BF01203D
:20430C0049D0BDF80800DFF8948042F60215FF27401B4FF000052AD048F27F11401A2ED0A0
:20432C00401E11D0401E20D1ECB9012B19D110780A2807DBF1680870F16844468C421ED11B
:20434C0002271EE080251AE06CB9022B09D1F06811880180F1684446601C88420FD10127BC
:20436C000FE00D250BE00B2509E00A2507E00094084601243146019403F0B6FB0546FF2FC6
:20438C0008D04046001D006820B1006810B10146384688472846BDE8FE83C046341B002097
:2043AC002DE9FE430AAF3C8805460E4699469046304602A905F094FF4B464246294601286F
:2043CC0008BF012049D0BDF80800DFF8948042F60215FF27401B4FF000052AD048F26F1160
:2043EC00401A2ED0401E12D0401E20D1ECB9012B19D110780A2808DBF1680870F1684446BE
:20440C00601C88421DD102271DE0802519E064B9012B08D11078F1680870F16844468C426C
:20442C000FD101270FE00D250BE00B2509E00A2507E00094084601243146019403F054FBD8
:20444C000546FF2F08D04046001D006820B1006810B10146384688472846BDE8FE83C046CC
:20446C00181E00202DE9F8430D46064668687468D6F80890002710B9E868002850D02078B8
:20448C00012814D107F0CEF9D4F8BC1049B1D4F8C0108D61C4F8C05007F0C0F90120BDE8E6
:2044AC00F883C4F8BC50C4F8C05007F0B7F9022005F04AFC04F160084FF0FF31404607F094
:2044CC0081F9D9F8080007F04DF93046294601F091FA0546D9F8080007F040F9207888B9B2
:2044EC00B5F1FF3F08D004F17C004FF0FF3107F069F9207A48B110E003202072022005F06C
:20450C000BFC0AE0B5F1FF3F01D0012705E00320207204F12C0007F03DF9404607F03EF925
:20452C003846BDE8F88370471CB52D4C401E02D0401E44D01CBD06F0BFFF400931D32089AB
:20454C00FF2831D00120694604F01AFFBDF8000010F07F0F18D0BDF800002081022002F0B5
:20456C004FFA06F0E9FDA8B11E48006841F28831B1FBF0F007F0FAF804F010FDBDF80010BC
:20458C0041EA0020208105E0BDF800002081002002F036FA04F108020120022101F01EFE56
:2045AC0007E0FF20083420800120FF21022206F0BDF900201222014606F0B8F91CBD0220BF
:2045CC000DF1020104F0DCFE9DF80200410001EBC001E18004F1280003F0AEFB1CBDC04682
:2045EC008C20002044BF000030B52E4CADF1140D28BB04F120050020294604F063FA207E47
:20460C00012802D9401F14D04AE0012803D106F093FD002844D0207E617E01F03FFB00288E
:20462C003ED0207FA27E294605F0D6FB06F032FF36E0E069A27E294600F0A0FE30E0012890
:20464C0021D002282CD1022002A904F03BFA7E21E1619DF8095065769DF808002076052836
:20466C0014BF02200420A076A07E04F11C058DF8080029680DF1090302AA01201960052137
:20468C0004F068F80CE00120694604F01BFA9DF800100DF10100A176006804F11C05286034
:2046AC0005B030BDDC2100202DE9F04107F0BAF8DFF8A0800646D8F8A00010F4602F28D001
:2046CC00400CC4B2600807D2A00803D2E00828BF022402E0012400E00024651D68B203F0BF
:2046EC00D3FBD8F8A01004F111020120904081433046C8F8A01007F091F808EB8400D0F8FE
:20470C008C704FB1D8F8880013A20CCA2946B84702E0304607F082F8D8F8A00020B108F539
:20472C008070002106F072FC98F8A50080080FD3D8F8987037B1D8F8880009A20CCA6FF061
:20474C000101B84798F8A50000F0FD0088F8A500BDE8F081D01400200000000000000008E3
:20476C000000000000000080F8B506F069FE06F079FE044604F00C000C2845D0E0081ED2CB
:20478C0005F098FD234E376805460120014606F02AF931686943884211D21F4C8220B0FBFD
:2047AC00F7F0291A204607F045F8204607F03EF80120FDF78DF8204606F0D8F825E02009A2
:2047CC0022D21648610939BF016821F00101016841F0010102460160D2F898004FF08054E3
:2047EC0040F00300C2F89800D4F8B8018069014620208847D4F8B801094C806B216880474F
:20480C0001202060206800E030BF06F01FFE02F0C3F8F8BD44BF0000341A00208C210840B9
:20482C002C2009402DE9F0412A4D044628781F4690460E46ADF1300D012803D0FEF752FE84
:20484C00012028705EB1B8F1000F666007D0C4F8088006F0E7FF697819B106F0DFFF002070
:20486C0034E0491CC9B2697006F0D8FF012527B91A4807C86F4687E8070038682060786830
:20488C00E060397A782204F118002174002101F07FFB03A800212422082306F0ABFF04F17F
:2048AC0030008DF82450002103AA06F09FFF03A800212422082306F081FF04F16800064902
:2048CC000994002203AB06F075FF20460CB0BDE8F081C046D214002095A2000034BE000088
:2048EC00F8B52C4C04F1180004F1100100F0E2FD0028606008BF002048D004F12406304629
:20490C0006F010FC002584F8245021486063314684F83050284605F02FFA2F46E06000B1E3
:20492C000127002831D0AB208DF8000006F0DEFC6846012105F0F8FA2F4600B9012706F0F7
:20494C00CDFC1FB102F060FC00B12F46CFB104F059F8002808BF2F1C15D004F1440000E041
:20496C00083007683FB1017922789142F8D1417962789142F4D1A06000682C4600B1012408
:20498C002746012F01D002F011FC3846F8BDC04600093D001C1F0020F8B50D46EEB22908F3
:2049AC0024BF27494D40274BB400DFF89CC0195900EA05020CEA020200F4E02C85EA0107DE
:2049CC00BCF5E02F00EA070721EA0001C7F3006742EA010201D1510E14D300F4E0210F4358
:2049EC0010D002F4E027B7F5A02707D0B7F5803704BF22F4003242F4A02203E022F4803273
:204A0C0042F4C0221A51114CC10D04D3C5F38052A4F1D0018A55000E10D306F003FF290E16
:204A2C0003D201220021B24002E00122B2401146236893431943216006F0F0FEF8BDC04634
:204A4C00006000A000100840007F077FD02002402DE9F843984617468946044606F0D6FE4C
:204A6C00274DB5F934604B4642463946F61A04D4B5F936609E4204DA0CE0B5F936609E42E2
:204A8C0005DAB5F93660B5F93470BE4202DC06F0B9FE31E09E1003EB567626F007069B1BB8
:204AAC00DE0006EB4316AD1905F59C752E1D96F82030243513F0070F18D1124B3568AB4286
:204ACC0002D03568A565336004F1500383E8060006F098FE04F130004FF0FF3106F072FE7F
:204AEC0004F1600797E80300BDE8F88306F08AFE287810F0070FFBD102200021BDE8F88349
:204B0C00D01400206182000038B52C4C054600206908207009D300F0E3FB002808BF2078A0
:204B2C0003D0207840F001002070A90809D301F0CFFF002808BF207803D0207840F00200CD
:204B4C002070290909D300F0E5FD002808BF207803D0207840F008002070E90809D303F05F
:204B6C00A1FB002808BF207803D0207840F004002070690909D302F041FD002808BF2078D2
:204B8C0003D0207840F010002070A90909D303F0F9FF002808BF207803D0207840F0200013
:204BAC002070E90909D306F00DFB002808BF207803D0207840F04000207038BD283200202C
:204BCC002B482DE9F8430D469C4608AF91466968BC883E884B78027809784FF0000842F62A
:204BEC00232701EB0321C91B674628D0491E052917D9891F0CD0263933D1072E2ED8C6F168
:204C0C000701A14298BF8CB23618083631461FE0B24223DB921BA242D8BF94B23C80406842
:204C2C000BE0E86806F0BAFA80B2B04216DB801BA042D8BF84B23C80E868311809E0082EB0
:204C4C000CD8C6F10801A14298BF8CB231180F313C804846224600F091FB06E04FF0070841
:204C6C0003E040464FF00A0838804046BDE8F883481700202DE9F04F09AFADF11C0D9246E5
:204C8C0006903C880493D7F80880059197F80490039430B1081C04D0181C18BFB8F1000FD4
:204CAC0001D1022038E01E4801780026354630E0069C04EB8504B4F800B04FF6FF70584585
:204CCC0023D0A7780FB303990498059A05F0B8FE0290D0B178080AD3CDF80090CDF8048064
:204CEC00029B01215846524601F0D2F80643A07880080AD3CDF80090CDF804802088029B4F
:204D0C005246022101F0C4F80643054801786D1CEDB2A942CCDC304607B0BDE8F08FC046FE
:204D2C002005002070B5294E294D012806D038BB31460020491C05F079FD21E0314601201E
:204D4C0005F074FD34462078022811D0621C0020012102F01FFF28680A21002204F02CFBFC
:204D6C0028680F21002204F027FB05F0D5FB07E006F0A2FB621C60700121002002F00AFF65
:204D8C003146087801281FD1344628686178490834BF002201220A2104F00EFB28686178FA
:204DAC00890834BF002201220F2104F005FB61782868C90802D205F0AFFB70BD03F002FF2C
:204DCC004FF4FA6002F064FF70BDC046B023002010090020042998B545D1294C606A40B9AE
:204DEC0094F8A500400838BFE06804D3D4F8880000E0C068E060001D01681B4A097811609F
:204E0C0000681168007888422CD1022004F09CFF1120FFF76BF801202072E168087C091D85
:204E2C0010B1A079012804D00E20FFF75FF8E168091D08680D49083007680FB947681FB1F1
:204E4C000020C8610A4F0F600A4A40F2FF700B4B106000272361084A8F6119204A6106F0B3
:204E6C007DFC98BDFEE798BDD021084000100440510007060000046002000040756A0000AE
:204E8C00D0140020B0B501468B681C68E26948682262520824D2D0F8A01049680A685D69AF
:204EAC00D2F80415294206D01C68616A21F002016162C2F80455D2F8042519690A4231D0C7
:204ECC001A68516A21F001015162D0F8A01049681A6909683830C1F8042506F05BFCB0BDA2
:204EEC001C68626922F001026261D0F88870B7B9626822F0020262601C68626A22F0030246
:204F0C006262D0F8A0005F6944681A69236847EA0200C3F80405084605F09AFAB0BD08464E
:204F2C00FEF758FCB0BD7047F8B5446886680846203804F10C043AD0401E34D0401E2FD13C
:204F4C0020781578012814BF1D491E49FF2D41EA050109D194F88110FF2903D0D4F89000AC
:204F6C0002F042FEFF2515E0D4F8900001F0ACFE98B93068B0F1804F14BF23220B22D4F879
:204F8C009000294605F012F9D4F8900094F8811002F02AFE84F8815010E04FF0FF30F8BD13
:204FAC006FF00100F8BD002084F89800F8BD21780020012908BF012084F898000020F8BD33
:204FCC000004C0A000200080F0B520480127F84201D003F0E5FA204D204F214EBD4206D28D
:204FEC0003CD0478A4003459401CA047F6E71D48002800D08047164D164FBD4202D210CD6C
:20500C00A047FAE7F0BD03251BE0416808300A1C2A400BD11A1C2A40AB4305D0046804309C
:20502C000C600431043BF9D1131C05D0047801300C700131013BF9D1021C2A4001D0A84311
:20504C0004300368002BE0D17047C046FFFFFFFF000000000000000014CA00009CCA0000CC
:20506C000CCA000059C501102DE9F0470F46064606F0D0FBEFF311898246202080F31188E0
:20508C00D6F80880474533D01D481E4B0468002F05D49C690125BD4004EBC70401E0E4181E
:2050AC000025307D01281AD1304606F053FB306C06F0C4FB18B1F16858688843586018690D
:2050CC00864204D02046314606F040FB04E020685C61314606F0C4FA586828435860B760CC
:2050EC00F5603464002F44BF002058610120188189F31188504606F081FB4046BDE8F08733
:20510C00E8050000000100201B4838B50468B4F1FF3F08BF002406F02DF8002517481849EB
:20512C000560012008601749086002F0F3FF1648006820B1154800682046FBF723FF144897
:20514C0014490560144C0A686FF35B4244EA0200086012490868C0F30130012806D10A68F7
:20516C000F48104040F400320A6008600D4908680028FCD138BDC0461C13005084046042E5
:20518C005C600C400822044380012843000120438C21084048200340000039010400094013
:2051AC00FFFFFCFC0C006842F0B50446234DA7682868ADF12C0D67BB0C2000F0EBFC071C1A
:2051CC001ED0684600212422082306F0F7FA002306976A466168ADF810301948059306F0A1
:2051EC00B1FA386078B908210C22ADF82410286AADF82620014609A88847384604F0AAFFA0
:20520C006FF0030018E0E06878602069B860A7600AE080470646386805F0A8FB2069B8608A
:20522C0068680146304688473868616806F002FB386806F0FBFA00200BB0F0BD201900203E
:20524C0041B500002DE9F843244C0646E06890460D46B04218BF03203AD102F0EBFD071CDA
:20526C0035D406F0DFFA81461A4807F00F0145EA012525F003010843C4F8840005F0E6FA4C
:20528C0000F0FF0001281AD1680B0FD384F8A470114B94F8A550186807F10C0201219140C4
:2052AC0045F0040584F8A55088431860C4F8886004EB8700C0F878800126267004E0384607
:2052CC0002F0E2FD6FF00107484606F0A7FA3846BDE8F8830100030608100440D01400205D
:2052EC0010B50020442100F0D9FC002808BF002440D0214C1F200222214605F0C0FE00285E
:20530C0035D021880806000C40EA2120782815D11020208021460220024604F05DFD30B3F6
:20532C0002202146024605F0AAFE00B321880806000C40EA2120B0F5805F01D0208016E027
:20534C000020208021460220024604F045FD70B102202146024605F092FE40B1218808065B
:20536C00000C50EA2120208008BF012400D0002406F090F8204610BD0C320020002A4AD0C7
:20538C005FEA000C8B071CD1830722D1102A08D370B4103A78C978C0103AFBD270BC10322F
:2053AC0038D0042A2CD3082A05D30C2A24BF08C908C008C908C008C908C092072AD0920F8A
:2053CC0022E00B780370491C401C521E22D08B07F7D1C30714D18307D8D0121F12D308C984
:2053EC0003801B0C4380001D121FF8D20AE008C903701B0A43701B0A83701B0AC370001D89
:20540C00121FF4D2121D05D00B780370491C401C521EF9D1604670472DE9FF47204808214A
:20542C004FF00109ADF804100068ADF80690014601A888471B4D039969609DF808002870FA
:20544C004FF0FF3105F10C00FFF70EFE1648174E174F04684FF47A78B6FBF4FA1AE04846DC
:20546C0003F0F0FB504606F081F90DF10200694600F0C8FD002003F0E5FB002004216A46F0
:20548C0001F0EEF9688808FB00F0801BB0FBF4F006F06CF968780128E1D0B7FBF4F0F7E792
:2054AC00401900201C12002044BF00003832040040420F002DE9F843234E0F4604464FF077
:2054CC00FF3106F12405284606F07CF9A94600200CE0FF2909D032688A4204D906EB8101E5
:2054EC00D1F894500DB1002425E0401C1FB117F82010FE29EDD1002020604FF00108606014
:20550C000546A06011E0FF290ED01078636808FA00F0184306EB810360600A491268C3F8E0
:20552C009440204604F0D2F96D1C27B107EB85021178FE29E7D1484606F030F92046BDE86C
:20554C00F883C046007FC767882E0020B0B5244C2178E0888A0832BF0020401C80B24908E3
:20556C00E08017D3A188491C8FB2062FA78013DB062811DB04F10805284605F0A7FE60B385
:20558C00284606F063F80020A080E080607840F001001DE00027A78003280ADA38431CD1D5
:2055AC000834204605F092FEB8B1204606F04EF8B0BD97B904F10805284605F087FE60B1F5
:2055CC00284606F043F80020E080607840F0020002496070086806F0E1F8B0BD0C0900209A
:2055EC009C220020B0B5244C6078410807D320F0010060700A20014602F014FF60781D4D58
:20560C00810807D320F0020029786070062901D102F03EFA2078A178884228D000200121B8
:20562C00224603F06FFA2878022802D1207805F075FCA7782078B90808D3810806D22978AA
:20564C00062903D002F024FAA778207810F0030F0DD067B904F10805284605F037FE28B9EB
:20566C00284605F0F1FF0020E080A0802078A070B0BDC046040900209C2200202DE9F843B4
:20568C002020EFF3118780F31188214CA068012106F054F84FF001094FF000086569216878
:2056AC00A4F81C906A1A2168A4F81E80461B401A904227D387F3118840464519361A4846F3
:2056CC00294606F037F8B042F7D92021EFF3118781F31188E18B012903D14046294606F04B
:2056EC0029F8B0F1FF3F06D0A169801B814238BF081C411901E0A069291806F017F8A4F81F
:20570C0020902560A4F81C8087F31188BDE8F883780100201CB50020772100F0BFFA0028EA
:20572C0008BF00243FD0D0206946012205F0A7FC002835D09DF80000582831D1F520694601
:20574C00012205F09CFC00282AD09DF8000038BB55208DF8000069460122F42004F03CFBD8
:20576C00F0B1F4206946012205F089FCC0B19DF80000552814D1B6208DF800006946012287
:20578C00E02004F029FB58B1F4206946012205F076FC28B19DF80000002808BF012400D03D
:2057AC00002405F077FE20461CBD70471CB5234C401E02D0401E31D01CBD05F07DFEC00879
:2057CC0024D32078FF2823D00120694604F08CFA9DF80010207869B9A0B104F1080005F028
:2057EC0035FF002004F046FC00200222014605F0D1FB07E030B9012004F03CFC04F10800AD
:20580C0005F022FF9DF8000020701CBDFF2020700120FF21024605F0BDFB1CBD02206946D9
:20582C0004F062FA9DF80000410001EBC001618004F1080002F080FA1CBDC046C822002056
:20584C0020482DE9F04308210122ADF1140DADF804100068ADF80620014601A888471A4D6E
:20586C00039969609DF8080028704FF0FF3105F10C00FFF7F9FB1548154F046843F6982603
:20588C004FF47A78B6FBF4F916E004F0BBFC484605F06CFF0DF10201684602F0EBFB0020F3
:2058AC0004216A4600F0A8FF688808FB00F0801BB0FBF4F005F05AFF68780128E5D0B7FBA5
:2058CC00F4F0F7E740190020680F002044BF000040420F0030B5224C207EADF1140D01287D
:2058EC0002D9401F20D024E0012803D105F024FC051C0DD0207E617E00F0D0F9051C07D030
:20590C00207FA27E694605F0BAFB054605F0C2FD012D0ED0A27EFF230020824209DD411CEF
:20592C0000F80D30C8B2F8E7E169A27E6846FFF725FDA27E211D684604F016FF211D60B139
:20594C00A27E08466946FFF719FDA17E00206A4602F000FF6069401C606105B030BDC046A4
:20596C00DC2100202DE9984305F05CFF1F4CDFF87880814604F1E000007850B94446A068D4
:20598C000146022088470746102002F007FF2FB320E001F07BFD002820460FD114490968C7
:2059AC003222B2FBF1F101B9012100F13004204605F040FF204605F039FF0FE0444600222F
:2059CC00A16880F8E020022088470746102002F0E5FE1FB1A068014603208847484605F063
:2059EC001DFFBDE89883C04614BE0000281A002044BF000080B54268C2F8A8100868C2F807
:205A0C00AC004868C2F8B000D2F8B0708868C2F8B400C8681949C2F8B80097B9D2F8A800A6
:205A2C00007C400040F0010041F8040C022010720B68DB0917D2D2F8B820022A17D30B225B
:205A4C0016E0D2F8A800007C0123400041F8040CD2F8AC001372431CC2F8AC300078486099
:205A6C000868C00902D34FF0FF3080BD022003220A6005F0B0FD002080BDC046042800403F
:205A8C0070B51F4CA568064605F0B8F94FF47A71401B4843050C04F063FC2169401A48BF08
:205AAC00404240F6B831AD19A94211D306280FDAA268E1688A420BD8206848B1891A114A0C
:205ACC0051438A0C02EB1141884288BF011C08E00D49486840080ED208687D2100F0FF0010
:205AEC004143C82905D3B1F57A6F88BF4FF47A6103E0C82101E04FF4FA61084670BDC0468D
:205B0C00F031002040420F00AC3F00501CB5204C401E02D0401E2ED01CBD05F0CDFC000903
:205B2C001DD36078FF281DD00120694603F0B0FD9DF8000030B19DF80000012817D10121CF
:205B4C00617007E0002006226070014605F00AFA4FF0FF3104F10C00FFF786FA07E0FF203D
:205B6C00641C20700120FF21024605F0FBF9002004F096FC1CBD0220694603F089FD9DF839
:205B8C0000202146891C500000EBC20008801CBDB40C0020F8B5001D84B214F0030002D0B6
:205BAC00241A241DA4B204F083FF01461948102C47680160C8BF8768388800221646C30B18
:205BCC00DD0319D126B984420ADD3A46012617E01388C3189BB29C42138011DC17461846E9
:205BEC009FB1001B80B20428B4BF3C88385344F400443C803F1D08E080F40040002680B286
:205C0C00C71938880028DAD10027084605F021FA3846F8BD281900201CB51F4C401E02D080
:205C2C00401E2BD01CBD05F047FC40081AD36078FF281AD00120694604F03EF89DF8000041
:205C4C0038B900200422014605F0B0F94FF0FF3100E0012104F10C00FFF706FA9DF800001F
:205C6C00607007E0FF20641C20700120FF21024605F09CF9002002F0E5FF1CBD022069467F
:205C8C0004F01AF89DF800202146891C500000EBC20008801CBDC0461C1200202DE9F8432E
:205CAC008046894618481B4C164A016804F11400B2FBF1F105F086FD00284946404608BF9F
:205CCC0000201CD0144A114D117027682978814212D02870384605F01EFC261D304605F0C7
:205CEC00B5FA28783146012804BF09482061002003F06AFF07462760002007B10120BDE826
:205D0C00F883C04620A1070044BF00002432002068BF000040310020253200201D4A70B5FA
:205D2C00D3680C46834218BF03202DD192F8A500C1080AD392F8A410A14206D100F0FB0055
:205D4C0082F8A500002682F8A46005F06BFD0646204602F099F80D48210201F47F4108436A
:205D6C0004F074FD0A4A0546106804F10C030121994088431060304605F050FD05F0FF05B0
:205D8C00012D0CBF8120022070BDC0460100080408100440D01400201CB51D4C401E02D031
:205DAC00401E28D01CBD05F087FB80081AD36078FF281AD00120694603F0EEFE9DF800008F
:205DCC0038B900200422014605F0D8F84FF0FF3100E0012104F10C00FFF746F99DF8000038
:205DEC0060701CBDFF20641C20700120FF21024605F0C4F81CBD0220694603F0CDFE9DF888
:205E0C0000202146891C500000EBC20008801CBD680F00201CB5042004F082FE022818D0DA
:205E2C00032816D016480068C0F38150032814BF41F288324FF47A721248144C0168543436
:205E4C002046B2FBF1F105F0F5FC204605F0EEFC1CBD03200C4C009000214FF040521C2301
:205E6C00204602F02FFC012000214FF4007209230090204602F026FC022003F04DFF1CBD2C
:205E8C00B43F005044BF000000A00C40281A00202DE9F0430E4691461D4607AF80461B21D3
:205EAC004FF6FF72ADF11C0D03AB04F085FB059038B300210091BDF80C100191FF240294E9
:205ECC007C6802460DF1120340462946A047041C12D16889ADF81000700805D340464A468C
:205EEC0004A904F053FD05E03B7840464A4604A905F082FA041C05D004A81B2104F0AEFD5D
:205F0C0000E01524204607B0BDE8F083F8B506AF38881E4614460F46002818BF0B2030D1C7
:205F2C000846694604F0DCF9012803D1002101203180F8BDBDF800004AF601410025401A34
:205F4C0015D0401E0BD0401E03D028460A25308016E002203080F8680088208010E0052034
:205F6C003080F868016821600079207108E0FFF7B1FC044802783280F9682046FFF7FEF95A
:205F8C002846F8BD901D0020002213460A46194671B510F0030F0BD0002A82BF00F8011B49
:205FAC00B2F1010210F0030FF6D1002A08BF71BD11F0FF0141EA0121042A18D341EA014163
:205FCC00082A0FD30E46102A08D30C460D46B2F10F0312F00F0272C0103BFCD812F0080F61
:205FEC0018BF42C012F0040F18BF40F8041B12F0020F18BF20F8021B12F0010F18BF017000
:20600C0071BDFEE7F8B505460E4600204421FFF745FE002808BF00202CD0174C04200222A1
:20602C00214605F02CF8071C21D021880806000C40EA2120C0F380372080C00B17D3A11C16
:20604C000120022205F01BF8A41C071C0FD0A11C0320022205F013F807462378A278E178C6
:20606C00607840EA0320288041EA0221318005F011FA3846F8BDC0460C3200202DE9FE435A
:20608C001A481B4E017800244FF6FF790127804627E0716931F82450A9451ED0284605F024
:2060AC00BDF8400819D328461B213A46002304F083FA019088B1B6F84210ADF80270737861
:2060CC00ADF80010002269460370284604F05EFC18B168461B2104F0C1FC98F80010641C7B
:2060EC00E4B2A142D5DCBDE8FE83C04620050020A41E002038B5054601211A4C28796971DC
:20610C00B0B904F0D5FC2178002904BF6FF00704051C15D0491EC9B2217039B904F099FF5F
:20612C00606803F079FF0020687118E0054613E004F0BEFC05462078FF2805D16FF00604FA
:20614C00284604F086FF0BE0401CC0B20128207002D1606803F077FF284604F07AFF0024D7
:20616C00204638BDA023002070B50646B079F5680B28A5F108052CDA30790B2829DA04F02F
:20618C0097FC154CB27991000C3401EBC20161184968E1B104F05DFF30792870B079687006
:2061AC00307AA870B179880000EBC1002018F1684068083003F0EEFAB179880000EBC10009
:2061CC0024186068406805F0E9FA002070BD04F040FF6FF0020070BD981900207FB5194CB7
:2061EC000B46002511461A4678B1401E06D0401E24D1012A0BD10878207020E0022A06D19C
:20620C0012480988401C018019E0122A01D0182515E004F10C0612223046FFF7AFF80820FC
:20622C000090FF230193084A0292A068314604F120032A46FEF71EFD054600E0022528464F
:20624C0000907FBD341B00200D650000341B002038B519491A4C00204822C1F8F30F94F890
:20626C00E200C1F8FF2F20B3012817D0022807D003281ED151F8310C00F05EF80B2016E05E
:20628C0051F8315C2846FCF70DF840F2FF50A84202D8801CA842F1D2082008E051F8310C92
:2062AC0000F0F8FE054800780028E7D0052084F8E400FCF779FA38BD39400C4022BE0000C3
:2062CC00281A00202DE9FC411A4C04204FF0050800261022A07604F11C0584F8188004F19A
:2062EC00200766763146666104F1140028603846FFF74EFE102130463A4602F02BFAA07EA4
:20630C008DF8000029680DF101006A4601600120414602F01FFA207E8DF80000607E6A46E7
:20632C008DF801000220014602F014FAFFF7D2FABDE8FC81DC21002038B51A4CA0F5C06059
:20634C00D4F8B810C4F8D4000029B8BF49420028B8BF4042814220DAB4F8BC00124D3021EC
:20636C004FF47F4208230090284602F0ABF9B4F8C00004214FF4F80212230090284602F05B
:20638C00A1F9B4F8D00020214FF440620A230090284602F097F9012000E0002084F8D80093
:2063AC0038BDC046281A002000A00C402DE9FF410D461A4C6A88E18A06468A420CDCA888EC
:2063CC00884209DBE888218B884205D12889618B884208BF18271DD0052002F0B3FC6F8830
:2063EC00AB88ADF80270EA88ADF804302989ADF806208046ADF80810A08AADF8000068467F
:20640C0004F004FF071C05D104F1F0004146A67303F05EF838460090BDE8FF81200500203A
:20642C001A4898B5D0F8781203680F0F03F0FF03802B28BF002302F0D9F84FF0FF3478B1BE
:20644C00401E07D0401E012802D9801E19D01AE0BFB118E0381C12D0801E14D1143311E0BF
:20646C003846401E0BD0801E07D0001F03D0401E09D1163306E0152405E0142403E00A2424
:20648C0001E00A335CB2204698BDC046A0100050F8B5184B194C184A1B1D143423F0030195
:2064AC0094462160571A2068266860606568A760002001E026F8020BB242FBD8BE104FF654
:2064CC00FC7201EB8607134027F8040CE826ACEB030301F1E8072E801A4044F8087CEC3ACD
:2064EC00A1F8E820FFF756FB44F8040C606844F8080CF8BD2A32002050400020201900200A
:20650C00F8B506AF38881E4614460F46002818BF0B202BD10846694603F0E2FE012803D147
:20652C00002101203180F8BDBDF800004AF681210025401A13D0401E0BD0401E03D02846D6
:20654C000A25308011E001203080F868007820700BE002203080F8680088208005E01222C8
:20656C003280F9682046FEF709FF2846F8BDFEE71FB5174B0C4601461046002269B1491EC9
:20658C0008D0491E1FD1012C09D1134B5B1C0078187019E0012C02D1F9E7062C01D01822CE
:2065AC0012E0046803F10C010C608088888008240094FF240194074C029498681433FEF757
:2065CC0059FB024600E00222104600901FBDC046D41B0020436B0000D41B002038B5054643
:2065EC001748184C2830241F01686068C1F30342C1F30353400812D22068040513EB2473AB
:20660C0003D4102BA8BF0F2300E00023000412EB207203D4102AA8BF0F2200E0002242EA56
:20662C00031201F47F4001F0FF03222D40EA024243EA020024BF01F08041084338BDC046CB
:20664C0050130050B03F0050B0B5ADF1400D05F0E1F8044600213C220823684605F062F82D
:20666C00114913488A681C384B680892006806930968059000220D480491694605F04EF8C9
:20668C00071C0DD004F014FA0546384600F018FE30B1284604F0DDFC204605F0AFF801E01E
:2066AC0001F01EFC10B0B0BD50B80000A9B200003819002030B5401E4FF00004ADF12C0D65
:2066CC000AD0401E04D0401E21D1FCF76DF81EE001F002F904461AE001A82146242208234B
:2066EC0005F06CF806940D4DADF8144009490794012201ABE63D05F1780005F05BF823464A
:20670C002C2105F19C00044A009305F067F820460BB030BD517500005D6200000E1B00207D
:20672C002DE9F041164D6C682079ADF1380DFDF7DDFB05F077F82E6880463078C8B901A8F5
:20674C0000213022082305F04DF80695A2790992002700970B4A6179301D01AB05F03EF8F3
