:2000000050400020E979000001CA011001CA011001CA011001CA011001CA011001CA0110A6
:1C00200001CA011001CA011001CA011001CA011001CA011001CA01103FCA011082
:20003C002DE9FE4F0CAF3C8881460D4608469846164601A909F0DEFA012808BF01204DD077
:20005C00BDF80400DFF898A042F6021100274FF0FF0B401A2ED048F2FF01401A32D0401EB5
:20007C0014D0401E24D10CBBB8F1010F1CD130781E2809DBE9680870E9685646701C8842E2
:20009C0020D14FF0020B20E080271BE074B9B8F1010F09D13078E9680870E96856468E4277
:2000BC0010D14FF0010B10E00D270BE00B2709E00A2707E00094484643462946324607F02D
:2000DC002BFA0746BBF1FF0F07D05046001D006818B1016809B1584688473846BDE8FE8FDD
:0400FC00841C002040
:200100003C000000000000000000000034010000000000000000000001000000000000006D
:1C01200000000000000000000000000001000000000000000800000000000000BA
:20013C00340000000000000000000000680100000000000000000000010000000000000005
:14015C00010000000000000000000000080000000000000086
:2001700030000000000000000000000098010000040000000000000001000000FFFFFFFFA5
:10019000FF00000001000000080000000000000057
:2001A0002C0000000000000000000000C4010000040000000000000001000000FFFFFFFF4D
:0C01C000FFFFFFFF08000000000000002F
:2001CC0034050000E401000099A1011095A70110A5C2011009B2011045B80110000000000B
:0801EC00000000002F000000DC
:2001F400280000000000000000000000140200000000000000000000FFFFFFFF00000000B1
:080214000800000000000000DA
:20021C00300500003002000069C201106DC101101FC2011095BA011000000000000000008E
:04023C002D00000091
:20024000300500005402000075C20110A9B601109DBF011049B601100000000000000000DE
:040260002E0000006C
:200264002400000000000000000000008002000000000000000000000000000008000000CC
:040284000000000076
:20028800240000000000000000000000A40200000000000000000000000000000800000084
:0402A8000000000052
:2002AC00240000000000000000000000C8020000000000000100000000000000080000003B
:0402CC00000000002E
:2002D00000000000C022002004000000000000000000000020000000700100003000000047
:2002F0001C020000C82200200400000000000000000000000C00000030040000180000006A
:2003100040020000D0220020040000000000000000000000240000004804000018000000ED
:2003300000000000D822002004000000000000000000000010000000A00100002C000000B2
:20035000CC010000E0220020040000000000000000000000200000006402000024000000F0
:20037000FFFFFFFFE82200200400000000000000000000002800000088020000240000006D
:20039000FFFFFFFFF0220020040000000000000000000000580000003C0100003400000052
:2003B000FFFFFFFFF822002004000000000000000000000010000000600400001800000067
:2003D000FFFFFFFF002300200400000000000000000000001C000000AC02000024000000DC
:2003F000FFFFFFFF0823002004000000000000000000000038000000F4010000280000004D
:20041000FFFFFFFF1023002004000000000000000000000054000000000100003C000000E8
:1804300018000000000000000000000040040000080000000000000050
:1804480018000000000000000000000058040000080000000000000020
:18046000180000000000000000000000700400000800000000000000F0
:08047800010000008CBA000035
:040480000AF042BE7E
:040484000100000073
:0404880000000E0062
:04048C0000000F005D
:040490003200000036
:040494000100000063
:040498003C220020E2
:04049C00000200005A
:0404A0000000000058
:0404A40001CA011078
:0404A8000000000050
:0404AC00000000004C
:0404B0000800000040
:0404B4000000230021
:0404B8006820002098
:0404BC00010000003B
:0404C00054220020A2
:0404C400080000002C
:0404C8000000000030
:0404CC00000000002C
:0404D0000000000028
:0404D4000000000024
:0404D8000000000020
:0404DC00010000001B
:0404E00034210020A3
:0404E400060000000E
:0404E800010000000F
:0404EC00D41F0020F9
:0404F0000000000008
:0404F4000000000004
:0404F80000020000FE
:0404FC0000000000FC
:02050000704742
:020502002900CE
:020504000100F4
:020506002500CE
:020508002D00C4
:02050A002E00C1
:02050C002F00BE
:02050E000100EA
:0105100001E9
:080514000300000000BA000022
:08051C000000000000000000D7
:0405240000000100D2
:0405280000000300CC
:04052C0087C401106F
:04053000380500008A
:040534003805000086
:0405380000000000BF
:04053C00900000002B
:040540009000000027
:0405440000000000B3
:040548005422002019
:04054C00E7AC000018
:040550002000000087
:0405540078B7000074
:04055800BCB600002D
:04055C000DC30110BA
:040560006B9100009B
:04056400839C000074
:0405680099C801101D
:04056C009BC8011017
:040570000000000087
:0405740097B6000036
:0405780068B5000062
:04057C0080B5000046
:0405800050B5000072
:0205840008006D
:0205860009006A
:02058800010070
:02058A0000006F
:01058C00016D
:040590000000000067
:040594000000000063
:04059800000000005F
:04059C00000000005B
:0405A0008DB1000019
:0405A400C585000009
:0405A800359C00007E
:0405AC006D8F00004F
:0405B000DB8B0000E1
:0405B4009D8F000017
:0405B800656000007A
:0405BC00B9AE0000D4
:0405C000656700006B
:0405C40011C8011049
:0405C80021C8011035
:0405CC000800000023
:0405D0002400000003
:0405D400180000000B
:0405D80028000000F7
:0405DC0020000000FB
:0405E0003C000000DB
:0405E4000C00000007
:0405E80034000000DB
:2005EC002DE9FE43B04C0F460646F80B80F03781B80880F0C9806069B90F69D2A07A002849
:20060C004AD138094AD3002501266570A74826720AF054FCA6492A4604F14C000AF09BFD31
:20062C00607901281FD1A079E8B9DFF88882266AD4F81490D8F8000070B10AF07FFAA0EB32
:20064C0009004346000B8619E0611868B6EBC01F28BF256208D2266204F1C8004FF00051F4
:20066C000AF0E0F931E0667104F1380140F60900088094F8450000F0F00040F0010084F860
:20068C004500658794F8440000F0F00084F84400E563894E316018E0380914D2B80BC0F06B
:2006AC00FB8004F128000AF061FD061C08D0706830B17568F068B6F91C1082A20CCAA84792
:2006CC0027F40057E8E00020A07227F00807E3E0D8B1042009F020FEB8B10AF02FFAA06168
:2006EC006169814226BF401A401E401A000BF060F06840F6C41100F58D708142F06003D3D1
:20070C0040F2EE22824200D9F1600025D6F818C06561BCF1000F0FD094F8450010F00F0F82
:20072C000AD1708C40F60901814205D167A20CCA30466FF48071E047604904F14C002A46D3
:20074C000AF009FDA07950B10220ADF80000684609F064FCA571BDF80800A4F8A000012075
:20076C0060702079A846401C2071192084F807800AF024FB756925B156A20CCA3046414655
:20078C00A84727F0005787E004F1300948460AF0EDFC061C5AD007F046FF4FF00008B26900
:2007AC00C6F818807068B8B1F07F42F00202002300F00700401E07D0401E03D0801E06D1FC
:2007CC0046A002E047A000E048A090E80C007568F068B6F91C10A8470AF0CAFD0546B4F95A
:2007EC003600401C6FF31F30E086206B1F30017801F07F01017048460AF024F828460AF003
:20080C00B3FDF068B0F99410B4F9362091421DD1217801291AD090F8965095B9056885B1A7
:20082C00E1680968B1F1FF3F10D0254909687030B5FBF1F10AF094FDF06870300AF08CFD1B
:20084C0004E080F89680404605F02AFF48460AF08DFC27F0020708B147F002071CE00AF056
:20086C0087FD014604F12C000AF080FC0646B56908460AF079FDA8080CD25EB1B069A84341
:20088C00B061706830B12A46F068B6F91C1075680023A84727F4804727B104F1C8003946FA
:2008AC000AF0C0F8BDE8FE8310140020CD5E0000359E0000183100200010044055250000DB
:2008CC0084BA000000000000200000000000000000000002000000000000000400000000A8
:2008EC0000000010000000000000004000000000000000202DE9FE430646DFF8DC82DFF8CD
:20090C00DC92B2780024101C00F03581801E00F00D81401E012840F2E180801E00F0A88051
:20092C00401E7BD0401E59D0083800F04681801E40F046814546B08895F83E70ADF800004C
:20094C00052F45D001208DF80A0005F1CC000AF011FC95F83E0001281BD0042819D00328AA
:20096C0006D0022804D0F28831897089B38907E0B5F84020B5F84210B5F84400B5F8463027
:20098C00ADF80220ADF80410ADF80600ADF8083020E0B5F84000F1888842D8BF081CADF8B3
:2009AC0002003189B5F842008842D8BF081CADF804007189B5F844008842D8BF081CADF83D
:2009CC000600B5F84630B0898342D8BF031CDDE78DF80A4068460AF089FAF1E0454605F11E
:2009EC00F0000AF0C7FB7078002840F0E980F088E882308928837089688305F1CC000AF0B0
:200A0C00CDF9002840F0DC80AB6A002B00F0D8801B68E88A298B6A8B9847D1E0B08809F069
:200A2C003DF945462146062205F1380004F044FDEC822C836C83B079687305F1CC000AF02B
:200A4C0099FB05F1F0000AF095FB01244FF6FF706F79A8824FB9B079082814BF042005201E
:200A6C00A870204609F072FFAAE00320A870A7E0707858BB311D0A68454605F13800026060
:200A8C00898881800627AF707089A882F089E882308A2883708A6883F0784446287394F883
:200AAC003E00012818BF02280AD11F2007F09CF94FF47A71024604F1CC00514307F00CFD51
:200ACC00F0787289311D07F05FFC7BE0707831286FD14D4604202870204623E07778002F55
:200AEC0067D14546698AA878032A13D02A796F7921B9012A14BF6C712C7106E0174304D013
:200B0C0005F1A80007F0E8FCA878072814BF0420062007E0062807D02879002808BF032441
:200B2C00DAD00220A8704DE00724D5E77078751C00283ED14246F7789078D1799FB9022836
:200B4C0016D0072814D0062802D1517901290FD103280DD002F1A8000AF020F940B90120EB
:200B6C0009F0F4FE04E08732204606F0FDF928702878F0B924E07078D8B945460220102153
:200B8C0005F1480207F072FF0320102105F1580207F06CFFF61C05F12C00B7883168878088
:200BAC0005F1680201600120A979A87006F0DCF940B108204D46287004E0B0880AF08AF965
:200BCC00012C06D14546686A18B1016809B1A8788847BDE8FE83C046D8080020DA0800209F
:200BEC00F8B5A0F2013517460E46022D40F20C818649874C874A884B2D1F0F2D04D9143DD9
:200C0C004AD0AD1E1CD011E0DFE815F0BA00B500EB00DB00AE00A700FE009F00980010006B
:200C2C001000900086007A006F006200282880F2EB80022E40F0E880398807F029FDF8BDAF
:200C4C00012E40F0E1800A469078012800F0DC80D1783878D07081B9002800F0D580107893
:200C6C00012800F0A080042800F09D80062800F09A80052800F09780F8BD3878002840F0CD
:200C8C00C3801078032800F09980072800F09680052800F09380F8BD012E40F0B5803878EB
:200CAC00012840F0B180254605F1F0000AF076F8002840F0A98004F13E01002004F0AEFC72
:200CCC00002840F0A18004F1CC000AF053FAF8BD022E40F0998038880A28C0F29580B0F5FB
:200CEC00486F00F39180114614E0022E40F08C803888B0F5FA7F80F2878011460880F8BD8B
:200D0C00022E40F08180388806287DDBB0F5486F7ADC1946891CF1E7022E75D1388806282E
:200D2C0072DBB0F5486F6FDC1946E7E7012E6BD13878062868DA1146891F0CE0012E63D1AD
:200D4C003878042860DA093105E0012E5CD13878082859DA08310870F8BD012E54D1387879
:200D6C00042851DAC91DF6E7012E4DD1387804284ADC891DEFE7022E46D138881031BDE796
:200D8C00012E41D10A46D07801283DD091783878907061B9002837D01078012803D0042886
:200DAC0018BF052830D1012009F0D0FDF8BD387850BB1078022818BF052825D109F09EFF89
:200DCC00F8BD254600211F2205F18704204604F073FB39463246204603F0AEFC0020EE71C3
:200DEC000EE0254600211F2205F16804204604F063FB39463246204603F09EFC0120AE71E8
:200E0C003146224606F0B0F8F8BDC046DA080020D80800201C090020180900202DE9F04FB1
:200E2C000128ADF1140D40F0F280DFF81492D9F8DC00012840F0E9800220C9F8DC000AF077
:200E4C0087FA0290012006F0B5FC20B101210646C9F8DC10D5E00AF077FA03906E484FF017
:200E6C000008C0F80080012009F056FA012818BFCDF8008004D1404605F02AFF012000904D
:200E8C0066486E4CC0F800801934D4F8FF0F11200AF068F800280CBF4646012610200AF024
:200EAC0061F808B146F002060F200AF05BF808B146F004060B200AF055F830B15848006806
:200ECC005849006B0246088890470A200AF04AF80028404618BF01204FF0805B0BF5DC75D4
:200EEC0028B128685049006B0246088890474F480127076028688069014646F020008847BF
:200F0C004B4807600AF028F800F001010191400815D2484809F092FF8246BAF1040FF8D096
:200F2C00BAF1010F06D1DBF8D801406802464148032190474049086820F0030008604046F9
:200F4C0000F080F82868D4F8FF1F806B8047019801280ED0BAF1010F06D1DBF8D80140686B
:200F6C0002463448394690473349086840F0030008602A4807602868406901463046884726
:200F8C000B2009F0EFFF28B128682649C06A0246088890470A2009F0E5FF28B128682249A7
:200FAC00C06A024608889047204807600322C9F8DC201F4BC3F800802868406B01463046FE
:200FCC0088470128F8D1042006F0F4FB124807601A48D4F8FF1F01688909FCD300980128A3
:200FEC0002D1384605F074FE09F0B0FF082006F0E1FB06460398C9F8DC700AF0A1F905F00E
:20100C0069FA02980AF098F902E0042600E00126304605B0BDE8F08F0C40094000022243DE
:20102C00B8010010E6B40000E2B400002820086080010443004003402422084014100940B5
:20104C00141800202DE9F84FDFF8E8B10746ABF13500DFF8D4910068800880F0D68008F063
:20106C0067FC064677480830D0F8008000254FEA28725FEA985002F101020AD2C6F13E0086
:20108C0016F10A0F4FEAE000D8BF08208242B8BF021C624BD3F87C01C0F3046009F0C7FE29
:2010AC0004461868C0F3044009F0C1FE12198246162A05DA12F10A0FB8BF6FF0090200E0BC
:2010CC001522574B574802F01F0141F4F8511980006810F0030F18BF0125C00828BF45F008
:2010EC0002050FB145F00405494691F90700301A052804DA8879A84208BF888865D0DFF89C
:20110C002CE10F2EA6F10F0C25DB0CEB0610A0F1F00C4FEA2C27072F88BF07273C46062C42
:20112C0088BF06245EF82400042303EB84037446E3581B1A03F0FF04E80824BFC3F307204C
:20114C000444A80824BFC3F307400444680828BF04EB136401E0002427465EF827E0E808E7
:20116C000EF0FF0324BFCEF307200344A80824BFCEF307400344680828BF03EB1E63A4B253
:20118C00ACEB0727BAEB020004FB07F404F1800403EB1423D8BF0120342208F0FF074243AE
:2011AC007A43B2FBF3F04FF6FF72824238BF101C802E80B2888005DA16F1800FB8BF6FF006
:2011CC007F0600E07F26CE718D71194A12681F280A604FF0000208D340F2FF11814206D235
:2011EC004008521C8142FBD301E01F208880124F0F38000942EAC00247EA0200CBF8FB0FD5
:20120C000026CBF8FF6FBDE8F88F0D4F0B4E494608203760891D0870BDE8F88F3C11005055
:20122C006E620840242208401C3100209C130050082009403500094000E7A480301009400D
:20124C00FDFDA400AC3F00502DE9F0411C4615468C4208BF854282BF00230022E5E0002CD2
:20126C0008BF002D0AD100290EBF00286FF000006FF0000100F0E1F8BDE8F0815FF0000880
:20128C005FF0000E002C08BF8D429CBF2C1C0025070C47EA01470E0CB44208BFBD429EBF9C
:2012AC005FEA044444EA15445FEA0545070A47EA01670E0AB44208BFBD429EBF5FEA04242B
:2012CC0044EA15645FEA0525470847EAC1774E08B44208BFBD4200F29380870847EA817761
:2012EC008E08B44208BFBD427CD8C70847EA4177CE08B44208BFBD4266D8070947EA0177FB
:20130C000E09B44208BFBD4250D8470947EAC1674E09B44208BFBD423AD8870947EA81674F
:20132C008E09B44208BFBD4224D8C70947EA4167CE09B44208BFBD420DD8E60146EA55665F
:20134C00EF01B14208BFB84201D3C01BB14158EB08085EEB0E0EA60146EA95664FEA8517DD
:20136C00B14208BFB84201D3C01BB14158EB08084EEB0E0E660146EAD5666F01B14208BF68
:20138C00B84201D3C01BB14158EB08084EEB0E0E260146EA15762F01B14208BFB84201D364
:2013AC00C01BB14158EB08085EEB0E0EE60046EA5576EF00B14208BFB84201D3C01BB14177
:2013CC0058EB08084EEB0E0EA60046EA9576AF00B14208BFB84201D3C01BB14158EB080821
:2013EC004EEB0E0E660046EAD5766F00B14208BFB84201D3C01BB14158EB08085EEB0E0E2F
:20140C00A14208BFA84201D3401BA14158EB08085EEB0E0EA34208BFAA423EBF2D0A45EA68
:20142C000465240A89D3734642461E4617460B46024631463846BDE8F08170472DE9F04307
:20144C00ADF11C0D05F0C6FB6E4C04F1280004F16C0103F0BFF9DFF8B091E060494609F03F
:20146C003EFE08F0D9F909F059FA04264FF47A7200236649206104F18800009605F096FFC5
:20148C001F20012107F004F901250020ADF816004FF44871ADF8101008278DF81850804647
:2014AC008DF8146006AAADF812706420ADF80E802946ADF80C0040F20530FFF791FB40F25E
:2014CC00063002210DF11602FFF78AFB04F14E024FF442701B21FFF783FB04F1400240F2C3
:2014EC0007300E21FFF77CFB4FF44470294605AAFFF776FB40F2113002210DF11202FFF7F3
:20150C006FFB40F21230022104AAFFF769FB40F2133002210DF10E02FFF762FB4FF44570C5
:20152C00022103AAFFF75CFB09F0E6FC0620A02107F0AEF80720A02107F0AAF83846A02163
:20154C0007F0A6F80920A02107F0A2F88DF8075003278DF804504046029031468DF8060076
:20156C0002AA8DF805704FF4816007F077F84FF4806029460DF1070207F070F840F20240C3
:20158C0029460DF1060207F069F840F2034029460DF1050207F062F840F20640294601AAA6
:2015AC0007F05CF809F08FFDFEF764FF09F09EFA05F0D6FE07F0A2FF03F0F4FFA0707F2868
:2015CC0014BF0A200F20052106F0C4F908F0B4FA07F0AAFF07F07CFF05F026FB05F09AFE9F
:2015EC0008F096FA08F07AFD09F0D0FB08F040FE08F09AF8E068494609F071FD07B0BDE8CA
:20160C00F083C04620050020B1A80000C9A800002DE9F843814609F093FC002100B901219A
:20162C006B4E30680028FCD06C4D01242D1DEF6A346009B109F08AFCDFF89881C7F307203A
:20164C0008F1BC01086009F07BFC002100B9214630680028FCD02F68346009B109F076FCD3
:20166C00C7F38440C8F8C00009F06AFC0146002001B92046014630680028FCD0ED693460BD
:20168C0009B109F063FCC5F38120C8F8D000B9F5C061C8F8B81000F0968098F8D80068B95D
:2016AC00C8F8D410D8F8C000C8F8C800D8F8BC70C8F8C470D8F8D060C8F8CC60D8F8D410D2
:2016CC00D8F8BC60002954BF02206FF00100454605F1C8031A6801EB41014018411000EBC4
:2016EC00917002EBA0021A60D5F8C810C5F8C46000291CDD1E293DDDD5F8CC0030B93429EC
:20170C00B4BF15391E21C5F8C81025E02A29BABFD5F8C8000B381E20C5F8C800D5F8C4002B
:20172C003F28B4BF401C3F20C5F8C4001FE0D5F8CC00032812D011F10B0FC6BFD5F8C800AC
:20174C000B30201CC5F8C800D5F8C4000028CCBF401E0020C5F8C400032009E011F1150F0C
:20176C00C6BFD5F8C8001530201CC5F8C8000020C5F8CC00B5F8C400174E30214FF47F4269
:20178C0008230090304605F061FF009404214FF400321123304605F059FFB5F8C8000421F8
:2017AC004FF4F80212230090304605F04FFFB5F8CC0020214FF440620A230090304605F09B
:2017CC0045FFBDE8F883002088F8D800BDE8F88300800C401418002000A00C4000A00C4011
:2017EC002DE9F04FADF1840D00F096FD05F00AFF0026012804D108F095FF022808BF012610
:20180C0058490868C0F38150012806D151F80C0C0127010E07FA01F006435348007808F049
:20182C00AFF8524D2C46286038B1FF2204F1400107467F1E01F8012BFBD14D4909684FF0FB
:20184C00000901F0FF02FE2A1BD0DFF824C101F0FF074A460123FF2F0CD0B8427FD903FAAE
:20186C0007F73E427BD101F0FF0147EA0909611881F840205CF8041F521C01F0FF07FE2F03
:20188C00E9D1092001F052FD3948002124220823606001A809F04CFD4FF0010804F12400FA
:2018AC0001AA8DF81C80414609F03EFD236843B3002794354FF0040BBA4608FA07F0064295
:2018CC0019D119EA000F04BF07F0FF0141F4C04105D0E019264990F8400051F82010254825
:2018EC0002F046FBF8B24FF0FF3108F03FFD2368C5F800A001E0C5F800B07F1C2D1D9F4260
:20190C00DBD30AA800213022082309F009FD0025FF2010210AAB1290174A009504F10800FF
:20192C0009F0FAFC16A828220823294609F0F0FC04F1600016AA1C9510491D952B4609F0EA
:20194C00E3FC0F4951F80D0C20F4F85040F4005041F80D0C4746C1F8FF7F0A4E376021B02C
:20196C00BDE8F08FB43F00502D310020882D002050B40000007FC76795A3000095780000AB
:20198C000D300940080009402DE9F843674C04F1240009F0EBFB15460E46009009F0E8FC4C
:2019AC0005F001078146B6F1FF3F0CD1A06A20B9B4F93600401C06B202E0A06AB0F91C60AA
:2019CC00002084F8A300304607F0F0FD0326002800F09B80A16ADFF84081814269D0009FC8
:2019EC00B8422ED03FB100990A68904209D0096800290091F7D1832E41D0484609F0B4FC51
:201A0C003DE004F1A40008F0D9FB00980168AA0802D20A68026008460022026000910098E2
:201A2C0018B9484609F0A0FC28E0C17F41F00401C177684608F006FF0146404606F046FF3D
:201A4C00EDE704F1A40008F0B9FBA8083ABF606A006800206062484609F086FC0099C87FBB
:201A6C0040F00400C877684608F0ECFE0146404606F02CFF009808B1A808EFD28326E079A5
:201A8C0088B9207A012843D0244809F017FA022104F1C80008F0C6FF6078012838D020489F
:201AAC0009F00CFA34E004F1C800022108F0BAFF2EE0A90803D3616A009100266662C27F56
:201ACC000121B9401143C17709F03EFC0446002F14BF1448144808F0A1FA484609F044FCC2
:201AEC00A80801D3009820B9204609F029FC83260EE0C17F41F00401C177684608F0A2FED6
:201B0C000146404606F0E2FEECE7484609F02CFC3046BDE8F883C04640140020ED05000092
:201B2C00693600000100020401000104101400202DE9FC415E4C574D574EDFF860815A4F02
:201B4C0094F8E410481E0B2861D8DFE800F07B2C43062343062343067664042907D00122A7
:201B6C000A2945F8212C14BF0220032004E02021012045F8211C024684F8E200002045F8C1
:201B8C00390C0827C5F8FF7FC5F8F37F45F8392CBDE8FC81052914BF09200620002584F8A6
:201BAC00E400356070E094F8E1700120383D002FC5F81B0004BF0620002102D00021F16088
:201BCC00032084F8E400032045F8010C31603068800859D294F8E400012503280DD000216E
:201BEC00404660220523009105F030FD94F8E400062814BF0A200720D1E7022000900021A9
:201C0C0060220523404605F021FD0420C7E709F077FBBDE8FC812249002622480E60012587
:201C2C0005600E2001F018FB022007F0C1F884F8E45084F8E360BDE8FC81002038600C25B5
:201C4C0078601FE01948006800680146202088472C3D41F61D560F2000214FF4C072072318
:201C6C0045F8010C4046C5F803600225009505F0EDFC404600214FF4C072072305F094FF00
:201C8C000120386084F8E45004F1780009F064FBBDE8FC8139400C4038600C4000A00C4053
:201CAC002C500C4004800C4034600C40A0010010141800202DE9F84F9A4693460E46814672
:201CCC0009F056FB514C0090B4F93610B4F934000AAF401A40F6F8710140082980F2878010
:201CEC00B4F93400401C6FF31F30A086B4F9348008F034FA054609F1700008F05FFAAE6029
:201D0C0085F81EB0C5F804A0A5F81C80C5F80C9097E80C0041A003C8002605F110071040BF
:201D2C00194087E8030004F12400EE770768002F50D1294606F0CAFD002851D0A9F8948065
:201D4C00E87F40F08000E87789F89660607A40B1607830B10120A07266722779A671781CB0
:201D6C002071009809F000FBA06A00284BD1607860BBE079012846D009F0FAFA0646207A8E
:201D8C0000BBA86805F05EFB224B2149E2681B68086040B9304609F0E7FA04F1C8000421E7
:201DAC0008F040FE2FE00968D26804F1A400891AB1FBF3F109F0D4FA04F1A40009F0CCFA3C
:201DCC0030461EE0144901200870F9E7192008F0F5FF18E004F12400294606F077FD48B99D
:201DEC00B4F9340000F6FF706FF31F30A0866FF0010805E0A9F89480E87F40F08000E87742
:201E0C00009809F0B1FA4046BDE8F88F101400201831002084BA000014310020F1EFFF9FFA
:201E2C0020000000B0B5456884684F48297BADF1180D012916D0217E627E4C4B2F7E014363
:201E4C00009143EA02010191494937F0010718BF081CA27E1043029095F88D000322FF28FC
:201E6C0011D00DE0677E217E3843A37E019041F00041009143F000403E49029095F88D002E
:201E8C00014304220391FE204DF82200694605F1900002F09FFCC5F89C00002808BF002089
:201EAC005FD0287B344951F8200001282BD02068B0F1804F14BF22220A22217ED5F89C00F7
:201ECC0007F082FA2068B0F1804F14BF21220922617ED5F89C0007F077FA2068B0F1804FA2
:201EEC0014BF24220C22A17ED5F89C0007F06CFA95F88D10FF2933D02068B0F1804F14BF8A
:201F0C0023220B2228E02068B0F1804F14BF21220922217ED5F89C0007F056FA2068B0F18A
:201F2C00804F14BF22220A22617ED5F89C0007F04BFA2068B0F1804F14BF24220C22A17EA1
:201F4C00D5F89C0007F040FA2068B0F1804F14BF23220B2295F88D10D5F89C0007F034FAE6
:201F6C00012006B0B0BDC046000480A0004000800004C0A000200080D4B500002DE9F04351
:201F8C0005466E68AC680F46ADF1340D09F0F0F996F8D910241D012903D109F0E5F900203D
:201FAC0084E04FF0010986F8D99009F0DDF94FF00008C6F888803869306178697061387E0B
:201FCC003076387B307338783070786886F8A480706078694146092828BF494686F88C102E
:201FEC00207A01F0A3F9284604F048FDE07D86F88D002846FFF716FF50B9207A01F02CF96D
:20200C0009F0B6F986F8D98009F0AEF945464CE001A841463022082309F082F9069560784A
:20202C00CDF80080234A0990217801AB06F11C0009F072F901A841462822082309F068F98E
:20204C0005951D49606801AA4346079006F1380009F05AF9307878B901A8414624220823EC
:20206C0009F066F98DF81C9006F16C00414601AA09F05AF9114800E0B868B06004F0B4FADF
:20208C00C6F8A000307B012808D1D6F89C000C4909F025F8D6F89C0000B18560094A06F10A
:2020AC00C40004212B4607F093FC28460DB0BDE8F083C0462D440000D36E00008BB00000FE
:2020CC00D57F0000C5AF00002DE9F041424C474D8046C8F38140401E02D0401E2AD025E0F4
:2020EC00284620300168880C20D24FF4804020603A48D0F802204B0AC1F3033703F080037F
:20210C0022F08F02134347EA0302C0F80220D0F801300E1266F30303C0F80130026801F0EE
:20212C00E70722F0E70247EA020102E04FF00041204601602A4E06F108000068C0F3C007F4
:20214C000FB94020A0624FF40070206408F006FE40F0300084F8C800C8F3815038B3401E9D
:20216C0003D0401E1ED002211DE0012008F0D4F807460420394605F0A7F8042008F0CCF8CB
:20218C008742FAD1366826F07F4006F0C9FD15480068036807214FF06022300E98474FF4F7
:2021AC00806020600321042005F08EF806E00420012105F089F80C4806F0B2FD284600687F
:2021CC000B4947F6180700F03F0084F8CB0F094E0F803068BDE8F08140A00C400A6008404C
:2021EC00A83F0050B4010010BD3786006C13005070B00C402C2009402DE9F04F0C46454958
:20220C00CA7AADF12C0D84460592487B09900D7900958A7A488B4B8A0E7B91F805A091F8D3
:20222C0002800492B1F846E008904A7A088B0392CD7807900A7AC88A02920F6A0690CA798F
:20224C00888A01928A79E146A9F54079B9F11D0F10D8DFE809F05B5553514F4D4B494643C1
:20226C00413F3C3A380F34312E2B2923201E1C0F19181716BCF1280F49DA604605F0B4FDF1
:20228C0021E0099EB246D046CDF814801DE00898079007980690DDF818E005E0383108682F
:2022AC0020608888A08032E070460AE0B1F8440009E0B1F8420004E0B1F8400001E091F8B8
:2022CC003E00034612E0208021E0059804900498039001E03231E2E7039802900298009014
:2022EC0006E0019A87310DE068310BE01846EAE7009D0BE02C31D2E7276008E0583100E083
:20230C0048311022204602F017FA00E025700BB0BDE8F08FD80800202DE9F041444C94F8E6
:20232C00E700ADF1280D00286FD1394F387B01250021242284F8E7507E6884F8E600082381
:20234C00C4F80C6101A808F0D7FF002604F10C00069601ABADF814602E490796324608F0C5
:20236C00C7FF2D4904F1300001AB324608F0C0FF2A4904F1540001AB324608F0B9FFB86865
:20238C00014628468847DFF89C8025487B7B0078D8F80410C1F381571BB1032F03D184F821
:2023AC00E150032F16D0022F14D0012F26D103201D4C009031464FF040521C23204605F08E
:2023CC0045F9009531464FF400720923204605F03DF913E0022006F003FD032F0CBF4FF4EA
:2023EC007A7142F21071114800685434B1FBF0F1204608F0B5FF204608F0AEFFD8F800006E
:20240C00C00802D2304606F0EBFC0AB0BDE8F0814CB90000935D0000F54B0000C5530000A4
:20242C002D310020B03F005000A00C4084BA0000141800202DE9F0430746880FADF1140D71
:20244C0075D304F0FFF83F4D00261C352E60394845F81C0C384808F031FD3848BC68B14685
:20246C0040F60A0200F13801468790F844300A808046C0F83C9003F0F00380F8443090F8ED
:20248C0045306680241D03F0F00343F0010380F8453000E01C1D236813B118888242F9D1F4
:2024AC002160607A00F0F000607208F1240008F05DFE80680088D21F82421DD0521C82424F
:2024CC001AD007F120000388B3B197F82C2097F82D30C7F8249002F0F00287F82C2003F023
:2024EC00F00242F0010287F82D20C8F83C00487B7E8400F0F0004873694607F09FFD684691
:20250C0008F024FC28680028FCD02E60012007F003FF012808D0607A00F0F00040F001007F
:20252C006072074808F0CAFCB86845F81C0C05B0BDE8F08301010E04ED0500001014002014
:20254C00316D000000100440F8B508F003F9404E3E4F0446A00823D3B96A09B33D46002057
:20256C000B698A69A86204EA0300104340F0020006F1080288610B6910689843106001F155
:20258C00100090E80C0030681A1C9043306005F1300006F09BF9022105F1C80008F042FAA5
:2025AC00B86AA10815D200F110020CCA002122400B40002B08BF002A0BD0016985690C401B
:2025CC00F8622C434FF48041846107F1C80008F029FAB86A002837D107F12404204608F092
:2025EC00C5FD051C30D0F868E968884226D1A86804F028FF17490860E0B906F1080128695D
:20260C000A6810430860326805F1100393E80300081C1043306000233361A86846F80C0C3C
:20262C0006F1100000680028FAD0204608F00AF9BD62F8BD086804F033F8F8BD07F1C800F4
:20264C004FF4805108F0EEF9F8BDC046101400200C100440183100202DE9F0410446676853
:20266C00A5680E46ADF1380D08F082FE97F8DC102D1D012903D108F077FE00205EE04FF0C5
:20268C00010887F8DC8008F06FFEF168204603F047FD0028F1D13078387070687860307A5B
:2026AC00002130220823F86001A808F039FE0694287A00260990234A0096696801AB07F1CD
:2026CC00100008F029FE01A828220823314608F01FFE05941C49E86801AA3346079007F114
:2026EC002C0008F011FE01A824220823314608F01FFE8DF81C8007F16000414601AA08F052
:20270C0013FE387838B907F17C00314601AA08F00BFE0E487860C7F8BC603E72C7F8C060CC
:20272C00286800F003FE204604F048FF084A07F1C8000421234607F04BF920460EB0BDE8C7
:20274C00F081C046F52E0000396B00007BB00000B9AD00003EB53C4C0621601C017008F017
:20276C0033FA18B908F00AFC00203EBD002501206821657003F0E8F82220694601228DF826
:20278C000000372006F078FE08B90520607008F0F5FB6078002818BF281C54D101200C213E
:2027AC0003F0D2F802206946012208F055FB00283CD09DF80000400836D303200DF10101D7
:2027CC00072208F049FB68B39DF80700000927D29DF802109DF80100B4F908501B4B9DF892
:2027EC00042040EA012000B268439DF803500112A3F11400B4F90A30018445EA02219DF80B
:20280C0006509DF8052009B259430912B4F90C30418442EA052109B259430912818407E0CC
:20282C00032004E0042002E0022000E00120607011208DF80000694601220A2006F01CFECA
:20284C0008F09CFB60783EBDA02000209C1F00202DE9F047ADF1180D01F03CFC3A4D4FF050
:20286C00030908274FF6FF780026A5F10E0404F13E0A07F035FD20BB009601A80DF1060102
:20288C006A4606F0CBFBE0B9BDF80400102814D160789DF8061088420FD100980188884536
:2028AC0009D14088C00B08D3042005F11202014606F0DCF801E004F0EBFD009808B107F080
:2028CC00D1FE208A41082DD320F0010063792179208253EA010225D073B9207A637A8DF8A4
:2028EC00070005F124018DF808300A680DF109031A608988998001E08DF80790A07A8DF831
:20290C000F00E37A8DF810300DF1070008F0DCFA38B1636AA77023B11A6812B119683846C2
:20292C008847208A810807D320F0020020825146304602F073FE208AC1089AD320F0040097
:20294C00208207F083FD94E7E6080020F8B5154603784278384CC67842EA0322837812016B
:20296C0042EA231C0279238842EA06224079B4F90A60120142EA2012C3EB2210D210A2EBD6
:20298C004302B4F90230404353430213B4F904005043801300EBE32000EB800280321212D1
:2029AC000A60A11DB4F908404010A0F57A4082105243531373434443641004EBE3044FF4F8
:2029CC00004303EBA4430C885C43E71332D0B1F90830B1F90A40D612584304FB06F2174BF2
:2029EC00B1F9066040F6354402EB4002300404FB1C3300EBA200021304FB1230C20F19BFCF
:202A0C00B0FBF7F040004000B0FBF7F0B1F91030B1F90E70B1F90C60C20884085243520B96
:202A2C005A4307FB04F35B1303EB2233F11800EB21102860F8BDC046D8300020000050C3A0
:202A4C002DE9F041384E307800286AD0374C208910F07F0F00F07F0861D005F077FC344F46
:202A6C0021783D78A0700DB9022930D12279C30913D240081CD305F0F7FC05F0FFFAE07849
:202A8C00E188002808BF217812D0002542F21070E57090FBF1F0217809E0521CD0B2022821
:202AAC00207105D1E08842F21072B2FBF0F0E060002502293D700AD12089C00907D3FFF79E
:202ACC0049FE052821D008B103F032FD2178E76817B901291AD122E0022909D00220207025
:202AEC000027277103F078F810B1404605F03CFF2089000A02D3E068401EE06004F11402B8
:202B0C000020122103F036FF09E0E560002020710127277003F060F808B100F0C5FA0020BD
:202B2C003070BDE8F081C0462A310020881F00202B3100202DE9F04706467468B56808F085
:202B4C0017FCD4F88810002963D008F00DFC2968486820F0020048602968486A20F0030044
:202B6C004862D4F8A07068692969084379680968C1F804052968486920F001004861286875
:202B8C004FF00108C0F82080304606F05DFFD4F88800D0F8049008F0EBFB04F1D807824697
:202BAC00387850B119F0704F02D1042006F000F9022006F0FDF800203870504608F0D4FB78
:202BCC00D4F88810087C042803D003200874D4F888102A696869D4F8A0304746104307FA1E
:202BEC0000F258680068C2622868B0F1804F14BF0A480B480F68006800258204A7EB925015
:202C0C00401E08603046A268C4F888509047BDE8F08708F0A9FBBDE8F087C04608050020F0
:202C2C00380400202DE9F0430646ADF11C0D08F05BFB06F045F84FF000090546CDF8009067
:202C4C0008F0C0F930F0010002D00098A84202D16FF0040059E070684C4658B1B0F1FF3F81
:202C6C0005D001A906F014F830B107464CE04FF0FF3000E02046019008F032FB0199012741
:202C8C0001EB000800E001936868019908F024FB00282ED003A805F02FFDD8B99DF8100017
:202CAC0002A905F00FFD88B9B368BDF808009DF81210059A984748B19DF81270B773BDF81F
:202CCC000800B081059B33614F4612E00599684606F00CFB0198641CB0F1FF3FD4D00028E7
:202CEC00D2D008F0FDFAB8EB000302D001989842C9D2009905F1080006F066FD24B168681C
:202D0C0008F0E6FA641EFAD1384607B0BDE8F083F0B5ADF1340DFFF7FFFA3049086828228F
:202D2C00082340F00200086001A8002108F0F0FA2B4E2C490524002301AA079406F1C800D7
:202D4C0008F0E2FA00213022082301A808F0E8FA0025FF271921244AADF81C5001AB099722
:202D6C0006F14C00009508F0D7FA2822082301A8294608F0CDFA1D49079406F1FC0001AABB
:202D8C002B4608F0C1FA01A829463022082308F0C7FA0124ADF81C40099706F168001A2155
:202DAC0001AB134A009508F0B7FA12492A4606F1A400134608F09CFA0F4808F07FF886F82F
:202DCC00A3507571F57135727572B5727561B4714FF6FF70A6F8A0000DB0F0BD0020094033
:202DEC001014002001AA0000359E0000053B0000856D0000E59B0000693600002DE9FE4F51
:202E0C000CAF3D8883460E4608469846144601A906F0F8FB012808BF01205ED0BDF80400F8
:202E2C00DFF8BCA042F6021100274FF0FF09401A40D048F2FF21401A2BD0401E13D0401EE2
:202E4C0036D1002D32D1B8F1020F2DD1207806281DDAF068218801802248F168884231D1A9
:202E6C004FF0020931E00DBBB8F1060F1CDA207810280CDCF0682146424601F05DFCF168CD
:202E8C005046001D88421DD14FF001091DE0802718E05DB9B8F1100F06DCF06821464246CF
:202EAC0001F04AFCB94610E00D270BE00B2709E00A2707E00095584643463146224604F0FF
:202ECC0033FB0746B9F1FF0F06D05046006818B1016809B1484688473846BDE8FE8FC046E0
:202EEC00681B0020641B002098B53549446809688068496800688847324A0121916140B14B
:202F0C00237AFF2B05D0FF214009217253D2042149E0207A00284ED0401E17D0401E02D045
:202F2C00FD3848D044E05368D4F8B4000370D4F8B400401CC4F8B400D4F8B8707F1EC4F8CD
:202F4C00B8701CD0012F88BF09212CE0D4F8B0707F1EC4F8B07014D1D4F8B8707FB1022014
:202F6C00D4F8A8102072097C012F4FEA410141F0010142F8041C94BF03210B2114E00421B6
:202F8C000FE0D4F8AC0000785060D4F8AC00022F00F10100C4F8AC0005D2D4F8B87017B9F8
:202FAC000521002020720220116008F095F898BDFF20207298BD04F12C0008F085F998BDCE
:202FCC00AC01001004280040BFB5364C0746401E39D0334D401E1FD0801E012830D9801ED7
:202FEC0002D0801E23D058E0284607F0D7FE10B9284608F0BDF8E0680A210022054605F037
:20300C0031FC002228460F2105F02CFC00221521284605F027FC40E0284607F0BFFE10B9B1
:20302C00284608F0A5F8002007F054FC35E006F0ABFD04F10C0000680A2101220546E7E797
:20304C0006F0A2FD29E00F20052104F083FC4FF441706946FFF7D0F89DF800009DF804303F
:20306C008DF808009DF805108DF80E309DF801508DF80F109DF803008DF809509DF8023083
:20308C008DF80D0002AA8DF80A3000208DF80C0008218DF80B0001F0EFFD27700090BFBD3D
:2030AC00A8050020200500203348F8B5057807F08BFD00284FD00120682102F045FC002882
:2030CC0059D02E4C0920211D012208700F466B2006F0D2F900283ED007202071394601220E
:2030EC006C2006F0C9F9002835D001261D2039462671324606F0C0F900282CD0402020719D
:20310C0039463246382006F0B7F920B3C020207139463246692006F0AFF9E0B125711F20E6
:20312C003946324606F0A8F9A8B106202071394632461E2006F0A0F968B1292020713946AF
:20314C0032466B2006F098F928B1E11C1C20324606F092F910B907F011FFF8BD3A20394670
:20316C00324607F079FE07F009FF002020700449606905F005FEF8BD891F0020A020002043
:20318C000700068038B50446084602F0FDFD0146182005F033FB07F0DBF880B200902C4883
:2031AC0040F2FF3200232C2104F050FA07F0DEFD01461C2005F022FB07F0BCF80146142065
:2031CC0005F01CFB07F0EAFA0146102005F016FB204602F095FC01460C2005F00FFB2046BE
:2031EC0007F0C4FA1B4D400040F020002870204607F0C8FA40F010002870204606F02EFFFE
:20320C000146282005F0FAFA204607F0D3FA400040F06000E870204607F0D8FAC00040F0B9
:20322C00800005F8080C204607F0DCFA800040F47C40A5F89300204606F0B0F801460820AB
:20324C0005F0DCFA4FF48000A5F20911086038BD00A00C4049A10C402DE9F843044608F011
:20326C0087F881462D48021992F8ED10491ECFB2002F82F8ED704BD12B4D05EB84052E7844
:20328C00698836F07F0788461AD1F10911D24FF08054D4F8B801806901464046884704F5D9
:2032AC00DC742068406B0146404688470228F8D121E000EB8800D0F80011002088471AE0BA
:2032CC004FF08054D4F8B801006A014640468847D4F8B801806A014640468847D4F8B801B4
:2032EC00006B01464046884701210D4A0D48116001688908FCD306F03F003F2801D0FFF750
:20330C00ABFF687800F03F003F2801D0FFF7A4FF484608F029F8BDE8F883C04614180020FE
:20332C002820086028200840B8B400002DE9F041064608F01DF82D4D8046A91991F8ED00BD
:20334C00421C002881F8ED204AD1294C04EB8604277807F03F003F2801D0FFF7E7FF60788B
:20336C0000F03F003F2801D0FFF7E0FF668837F07F001AD1F80911D24FF08054D4F8B8010A
:20338C00406901463046884704F5DC742068406B0146304688470128F8D121E005EB860576
:2033AC00D5F80011012088471AE04FF08054D4F8B801C069014630468847D4F8B801406ABD
:2033CC00014630468847D4F8B801C06A0146304688470121074A0848116001688908FCD31D
:2033EC00404607F0C1FFBDE8F081C04614180020B8B4000028200860282008402DE9F84F13
:20340C000D46064628687468D6F80880002855D007F0AEFFD4F8881021B107F0A5FF03205A
:20342C0028744BE001272F74C4F8885007F09CFF94F8A40038B194F88D202249D4F89C00A3
:20344C00114305F09DFCD5F804A007F091FF04F1D80999F80030834653B91AF0704F02D17E
:20346C00042005F0BDFC022005F0BAFC89F80070584607F079FFD8F80010486840F00200E1
:20348C0048603046294600F085F8D8F80010486940F001004861207830B9616804F16C050B
:2034AC00284607F019FF10B13846BDE8F88F3046FFF740FB2846002107F00EFF0020BDE819
:2034CC00F88FC04600000680294A2DE9F04180460126284816600768002FFCD0294C2A4FE8
:2034EC00C020443C206007F1080001682348890804D20168090C41F0F00100E072211E4D27
:20350C0085F85412002111638768384602F00EF840463946FFF736FE1C48B038816D40F227
:20352C000F226FF31F418A4212D901680068C1F30363C0F3034003B15B1E072805D0062895
:20354C000EBF0720801C00F00F0043EA001028703846FEF7B9FD0E4814380068C16802207D
:20356C00884740202060064F3E60BDE8F081C046101009409402224302600840AC3F005038
:20358C009404604244600C40A83F00506C130050B4010010F8B58C4645688468DCF80070CE
:2035AC0095F88C10B8B288401FFA80FE2068B0F1804F14BF244B254BDCF80820244832B910
:2035CC0095F88C108E00815905F1A60207E095F88C108E00811951F8081C7244521E9960EC
:2035EC005A6021683A0143F6F077103A0831174019609A683A439A602368B3F1804F14BF04
:20360C00144A154ADCF804C0BCF1000F04BF805904F10E0605D0801950F8100C0EEB0C060B
:20362C00761E9060166051609068074397602169D5F8A06060690843716809688862586A39
:20364C0040F003005862F8BD0005002030040020ECB500001005002040040020042998B58F
:20366C004DD1274C04F1240007F080FD40B994F8A300400838BFE06804D3D4F8880000E066
:20368C00C068E06041681F4A09781160416812680978914206D0876927B120A20CCA6FF0A6
:2036AC00FF01B847022005F09BFB1120FFF73EFE0120E071E068011D007C10B160790128D8
:2036CC0004D00E20FFF732FEE168091D08680E49083007680FB947681FB10020C8610B4FEF
:2036EC000F600B4A40F2FF7000271060094C8F6109484C6107F0E2FB192007F0E1FD98BD48
:20370C0010140020D021084000100440510007060000046002000040412400000000000063
:20372C00000000022DE9F8430646B0680D4600F1080874686868002710B9E868002850D03E
:20374C002078012814D107F013FED4F8BC1049B1D4F8C0108D61C4F8C05007F005FE0120AC
:20376C00BDE8F883C4F8BC50C4F8C05007F0FCFD022005F035FB04F160004FF0FF318146C7
:20378C0007F0AAFDD8F8000007F096FD3046294601F0E2F90546D8F8000007F091FD20783C
:2037AC0088B9B5F1FF3F08D004F17C004FF0FF3107F092FD207A48B110E003202072022040
:2037CC0005F0F6FA0AE0B5F1FF3F01D0012705E00320207204F12C0007F076FD484607F087
:2037EC0077FD3846BDE8F8832DE9FE4F0CAF3D8881460E4608469846144601A905F002FF87
:20380C00012808BF01204DD0BDF80400DFF898A042F6021100274FF0FF0B401A2ED048F259
:20382C007F11401A32D0401E13D0401E24D10DBBB8F1010F1CD120780A2808DBF168087010
:20384C00F16855468D4221D14FF0020B21E080271CE07DB9B8F1020F0AD1F068218801806A
:20386C00F1685546681C884210D14FF0010B10E00D270BE00B2709E00A2707E00095484669
:20388C0043463146224603F04FFE0746BBF1FF0F07D05046001D006818B1016809B15846F1
:2038AC0088473846BDE8FE8F301A00202DE9FE4F0CAF3C8881460D4608469846164601A9E5
:2038CC0005F0A0FE012808BF01204DD0BDF80400DFF898A042F6021100274FF0FF0B401A3E
:2038EC002ED048F26F11401A32D0401E14D0401E24D10CBBB8F1010F1CD130780A2809DBE8
:20390C00E9680870E9685646701C884220D14FF0020B20E080271BE074B9B8F1010F09D1F0
:20392C003078E9680870E96856468E4210D14FF0010B10E00D270BE00B2709E00A2707E0DF
:20394C000094484643462946324603F0EDFD0746BBF1FF0F07D05046001D006818B10168C1
:20396C0009B1584688473846BDE8FE8F141D00202DE9FE4F0CAF3C8881460D4608469846EB
:20398C00164601A905F03EFE012808BF01204DD0BDF80400DFF898A042F6021100274FF03D
:2039AC00FF0B401A2ED048F23F11401A32D0401E14D0801E24D10CBBB8F1010F1CD13078C9
:2039CC000A2809DBE9680870E9685646701C884220D14FF0020B20E080271BE074B9B8F104
:2039EC00010F09D13078E9680870E96856468E4210D14FF0010B10E00D270BE00B2709E04D
:203A0C000A2707E00094484643462946324603F08BFD0746BBF1FF0F07D05046001D00687C
:203A2C0018B1016809B1584688473846BDE8FE8FD01A00202DE9FE4F0CAF3C8881460D466B
:203A4C0008469846164601A905F0DCFD012808BF01204DD0BDF80400DFF898A042F6021119
:203A6C0000274FF0FF0B401A2ED048F21F11401A32D0401E14D0401E24D10CBBB8F1010F97
:203A8C001CD130780A2809DBE9680870E9685646701C884220D14FF0020B20E080271BE084
:203AAC0074B9B8F1010F09D13078E9680870E96856468E4210D14FF0010B10E00D270BE0D1
:203ACC000B2709E00A2707E00094484643462946324603F029FD0746BBF1FF0F07D0504688
:203AEC00001D006818B1016809B1584688473846BDE8FE8FF41B0020F8B507F039FC2A4CAE
:203B0C000746103CD4F89C0010F4602F2BD0D4F89C00400CC5B2680807D2A80803D2E80821
:203B2C0028BF022502E0012500E000256E1D70B203F04CF9D4F89C3005F1110101208840F0
:203B4C0023EA00013846C4F89C1007F00DFC04EB8500D0F88C704FB1D4F8880013A20CCA4E
:203B6C003146B84702E0384607F0FEFBD4F89C0020B104F1FC00002106F054FF94F8A300B0
:203B8C0080080FD3D4F8987037B1D4F8880009A20CCA6FF00101B84794F8A30000F0FD00A2
:203BAC0084F8A300F8BDC04620140020000000000000000800000000000000802DE9F041FC
:203BCC002D4C0546A41C20781F4690460E46ADF1380D012803D0FFF79BF8012020705EB106
:203BEC00B8F1000F6E6007D0C5F8088007F0C0FB617819B107F0B8FB002038E0491CC9B200
:203C0C00617007F0B1FB01241FB9684606F0BEFF6F46386828607868E860387A2874F86813
:203C2C006861386900B1A8610021782205F1200001F042FC05A800212422082307F078FBAB
:203C4C008DF82C4005F13800002105AA07F06CFB05A800212422082307F04EFB05490B959E
:203C6C0005F17000002205AB07F042FB28460EB0BDE8F081FDB00000101400201CB52D4C4F
:203C8C00401E02D0401E44D01CBD07F089F9400931D32089FF2831D00120694605F028F821
:203CAC00BDF8000010F07F0F18D0BDF800002081022002F0F5FA06F087FFA8B11E480068D1
:203CCC0041F28831B1FBF0F007F0F2FA04F0F4F9BDF8001041EA0020208105E0BDF8000051
:203CEC002081002002F0DCFA04F108020120022102F040FE07E0FF20083420800120FF2199
:203D0C00022206F03BFA00201222014606F036FA1CBD02200DF1020104F0EAFF9DF8020017
:203D2C002346410001EBC001D98003F1280002F0A5FF1CBD881F002084BA00002DE9FC47DE
:203D4C000AAF3F8882460C4608469946154601A905F058FC012808BF01204AD0BDF804005E
:203D6C00DFF8948042F60211FF26401A2ED048F26311401A012827D827BBB9F1010F1FD1C8
:203D8C00BDF804104AF666200027884202D12978032913DA2978E2681170BDF8041088420B
:203DAC0005D0E1684046884218D13E4618E0E1684046401C884211D1012611E080270DE0A1
:203DCC000D270BE00B2709E00A2707E0009750464B4621462A4603F0A7FB0746FF2E07D00A
:203DEC004046001D006818B1016809B1304688473846BDE8FC87C046841E0020F8B507F069
:203E0C009FF807F0A9F8044604F00C000C2845D0E0081ED205F0E0FB234E376805460120B0
:203E2C00014606F0F9F931686943884211D21F4C8220B0FBF7F0291A204607F091FA204625
:203E4C0007F08AFA0120FCF7E9FF204606F0B6F925E0200922D21648610939BF016821F078
:203E6C000101016841F0010102460160D2F898004FF0805440F00300C2F89800D4F8B80170
:203E8C008069014620208847D4F8B801094C806B2168804701202060206800E030BF07F0D3
:203EAC0055F801F0A5FFF8BD84BA0000201800208C2108402C2009402DE9FF4705F0C0FC32
:203ECC002A4C4FF0FF3104F10C0000F049FB2448244D066824484FF47A77B5FBF6F8B0FB88
:203EEC00F6F938E0012005F0D7FD404607F0E0F902A804F087F88246002005F0CDFDBAF100
:203F0C00000F1CD002A801A96A46FEF71FFD9DF805308DF809309DF804208DF808209DF802
:203F2C0006008DF80A009DF802108DF80D109DF801308DF80C309DF800208DF80B2000208B
:203F4C00062102AA02F03CFA60887843401BB0FBF6F007F0ADF960780128C3D04846F8E72D
:203F6C0084BA00008038010040420F00F40B0020F8B50D46EEB2290824BF26494D40264B6D
:203F8C00B400195985EA01020240C2F3006C234A00EA05078143FF323A4000F4E0270A4300
:203FAC00B7F5E02F01D1510E15D300F4E0215CEA010710D002F4E027B7F5A02707D0B7F50B
:203FCC00803704BF22F4003242F4A02203E022F4803242F4C0221A51114CC10D04D3A4F156
:203FEC008001C5F380528A55000E11D307F0C0F9290E03D201210022B14002E00121B140F3
:20400C000A46503423688B431A43226007F0ACF9F8BDC046006000A000100840007F077FD4
:20402C00802002402DE9F0410E46294990461C4606AF8C4672680878BB8851783F8812780F
:20404C00002502EB012242F62321521A29D0521E052A18D9921F0CD0263A34D1072F30D87E
:20406C00C7F10700984298BF83B2674407F1080121E0B84225DBC01B9842D8BF83B2238044
:20408C00DCF804000BE0F06806F0EEFD80B2B84217DBC01B9842D8BF83B22380F06839182D
:2040AC000AE0082F0DD8C7F10800984298BF83B207EB0C010F31238040461A4600F03CFBD9
:2040CC0003E0072501E025800A252846BDE8F081401600202DE9FC4705F08AFB274E0024AA
:2040EC00B4704FF6FF70B08204F04AFA244F22463070012039461346009006F1A80003F0DC
:20410C0055F94FF00208224606F1CC003946CDF80080134603F04AF90425224606F1F00006
:20412C0039460095134603F041F906F14809102248462146F57001F0BFF906F1580A1022D1
:20414C005046214601F0B8F906F120073C603472072074721021B0724A46F472404604F084
:20416C006BFC03201021524604F066FC28463A46014604F061FCBDE8FC87C046D8080020D6
:20418C0059A90000B0B5284C6078410807D320F0010060700A20014603F0DCFB6078234DD9
:2041AC00810807D320F002002F786070062F01D102F090FC2078A178884232D005F030FCE4
:2041CC00A7782078790803D341083CBF0021A180B90803D381083CBF0021E18029780229D6
:2041EC0003D106F077FBA7782078B90808D3810806D22978062903D002F06CFCA77820780F
:20420C0010F0030F0DD067B904F10800054606F0C5FD28B9284606F0ABFF0020E080A080F4
:20422C002078A070B0BDC046C42100202005002070B5274C274D012806D028BB2146002098
:20424C00491C06F067FC1FE02146012006F062FC0878022811D0491C002004F0B5FA286876
:20426C000A210022064604F0FDFA002230460F2104F0F8FA05F038FC06E006F091FE4870B4
:20428C00491C002004F0A0FA2146087801281DD1286861780546490834BF002201220A2199
:2042AC0004F0E0FA6078800834BF0022012228460F2104F0D7FA6078C00802D205F014FCB0
:2042CC0070BD284603F034FF03F050FF70BDC046A82200202C050020264838B55038046812
:2042EC00B4F1FF3F08BF002406F032FC22481749002510380560012008601549086002F0E3
:20430C00ABFE1448006820B1134800682046FFF7DBF8124812490560124C0A686FF35B4278
:20432C0044EA0200086010490868C0F30130012806D10A680D48104040F400320A600860DD
:20434C000B4908680028FCD138BDC0465C600C400822044380012843000120438C210840DF
:20436C00482003400000390104000940FFFFFCFC0C0068426C13005094046042FEB5FDF7A3
:20438C005DF8264C002504F1880605F0B7FF00282FD1009501A80DF106016A4604F055FE95
:2043AC00D0B9BDF80400102807D160789DF80610884202D1009806F0EDFD009860B106F068
:2043CC0075F909E0206906F0ADF8071C04D006F021F8384606F022F9206906F065FF0028B6
:2043EC00F0D0FFF7CFFE05F0D7FCFEF729FB06F0FFFBA088C108C8D320F004002778A080FE
:20440C00022FC2D1304606F0B3FE20780228BCD10F20012103F09EFAB7E7C046200500209B
:20442C00B0B501468B681C68E26948682262520824D2D0F8A01049680A685D69D2F804153A
:20444C00294206D01C68616A21F002016162C2F80455D2F8042519690A4230D01A68516AD8
:20446C0021F001015162D0F8A0205268196912683830C2F8041506F027FFB0BD1C68626919
:20448C0022F001026261D0F88870AFB9626822F0020262601C68626A22F003026262D0F87B
:2044AC00A0005A6940681C6900682243C0F80425084605F0C9FAB0BD0846FEF73BFBB0BD59
:2044CC00F0B520480127F84201D003F007F8204D204F214EBD4206D203CD0478A4003459FF
:2044EC00401CA047F6E71D48002800D08047164D164FBD4202D210CDA047FAE7F0BD032557
:20450C001BE0416808300A1C2A400BD11A1C2A40AB4305D0046804300C600431043BF9D19A
:20452C00131C05D0047801300C700131013BF9D1021C2A4001D0A84304300368002BE0D14B
:20454C007047C046FFFFFFFF00000000000000004CC50000CCC5000044C5000059C50110BC
:20456C002DE9F0470F46064606F0F2FEEFF311898246202080F31188D6F80880474533D0E6
:20458C001D481E4B0468002F05D49C690125BD4004EBC70401E0E4180025307D01281AD128
:2045AC00304606F07DFE306C06F07EFE18B1F1685868884358601869864204D0204631469B
:2045CC0006F06AFE04E020685C61314606F0DEFD586828435860B760F5603464002F44BFE7
:2045EC00002058610120188189F31188504606F0A3FE4046BDE8F087E8050000000100202A
:20460C00B0B5244C2278E1889308084603D3491C401CE18080B2A18852080F4603D3491C90
:20462C007F1CA180BFB2062F11DB06280FDB04F10800054606F0B2FB58B3284606F09AFD17
:20464C000020A080E080607840F001001CE003280BDA38431DD104F10800044606F09EFB5A
:20466C00B8B1204606F086FDB0BD97B904F10800054606F093FB60B1284606F07BFD002050
:20468C00E080607840F0020060700348006806F01FFEB0BDC42100202805002010B500206A
:2046AC00442101F051F9002808BF002440D0214C1F200222214606F0CFFB002835D021885E
:2046CC000806000C40EA2120782815D11020208021460220024604F0CFFE30B302202146F5
:2046EC00024606F0B9FB00B321880806000C40EA2120B0F5805F01D0208016E00020208030
:20470C0021460220024604F0B7FE70B102202146024606F0A1FB40B121880806000C50EAA1
:20472C002120208008BF012400D0002406F026FC204610BD0C310020002A4AD05FEA000C6B
:20474C008B071CD1830722D1102A08D370B4103A78C978C0103AFBD270BC103238D0042A9A
:20476C002CD3082A05D30C2A24BF08C908C008C908C008C908C092072AD0920F22E00B7887
:20478C000370491C401C521E22D08B07F7D1C30714D18307D8D0121F12D308C903801B0CAB
:2047AC004380001D121FF8D20AE008C903701B0A43701B0A83701B0AC370001D121FF4D288
:2047CC00121D05D00B780370491C401C521EF9D1604670472DE9F843224D884606464FF062
:2047EC00FF3105F12400814606F076FD00200CE0FF2909D02A688A4204D905EB8101D1F8B0
:20480C0094700FB1002627E0401CB8F1000F03D018F82010FE29EBD10024346074600127DD
:20482C00B46011E0FF280ED005EB80000B787268C0F8946007FA03F0104370600A680A490D
:20484C00304604F0D7FD641CB8F1000F04D008EB84010878FE28E5D1484606F039FD3046FE
:20486C00BDE8F883882D0020007FC7672DE9F8432020EFF3118780F31188214CA0680121DC
:20488C0006F006FD4FF001094FF0000865692168A4F81C906A1A2168A4F81E80461B401AE2
:2048AC00904227D387F3118840464519361A4846294606F0E9FCB042F7D92021EFF3118784
:2048CC0081F31188E18B012903D14046294606F0DBFCB0F1FF3F06D0A169801B814238BF7F
:2048EC00081C411901E0A069291806F0C9FCA4F820902560A4F81C8087F31188BDE8F8830C
:20490C00780100201CB50020772101F01DF8002808BF00243FD0D0206946012206F09CFAF3
:20492C00002835D09DF80000582831D1F5206946012206F091FA00282AD09DF8000038BB15
:20494C0055208DF8000069460122F42004F094FDF0B1F4206946012206F07EFAC0B19DF8EB
:20496C000000552814D1B6208DF8000069460122E02004F081FD58B1F4206946012206F045
:20498C006BFA28B19DF80000002808BF012400D0002406F0F3FA20461CBD70472DE9FE4FF4
:2049AC008046B8F1000F01920C9802919B46009005D0081C03D0101C01D0009810B90220E6
:2049CC00BDE8FE8F1948017800252C4629E0A00038F800A04FF6FF7708EB000657451CD073
:2049EC00B778D7B10198029A594606F064F95FEA000912D0780806D3009B504601214A465D
:204A0C0001F020F90543B078800806D33088009B02214A4601F016F9054304480178641C1C
:204A2C00E4B2A142D3DC2846BDE8FE8FD8080020F8B50F4601464C688E683846203804F1E4
:204A4C000C0432D0401E2CD0401E27D120781578012814BF19491A49FF2D41EA05011BD05A
:204A6C00D4F8900001F0C6FA98B93068B0F1804F14BF23220B22D4F89000294604F0A4FC20
:204A8C00D4F8900094F8811001F0A0FF84F8815012E04FF0FF30F8BDFF25F1E76FF0010043
:204AAC00F8BD002084F89800F8BD21780020012908BF012084F898000020F8BD0004C0A034
:204ACC000020008038B5234D401E02D0401E30D038BD06F065FAC00823D32C78FF2C22D076
:204AEC000120694605F0CAFA9DF8000068B9A4B105F1080006F03EFB002004F0EBFA0020D0
:204B0C000222014605F046FF07E034B9012004F0E1FA05F1080006F02BFB9DF800002870D9
:204B2C0038BDFF2028700120FF21024605F032FF38BD0220694605F0A1FA9DF800002C46B1
:204B4C00410001EBC001618004F1080002F096F838BDC046F021002080B5406800F10802F9
:204B6C00C0F8A8100868C2F8A4004868C2F8A8008868C2F8AC00C8681A49C2F8B000D2F8BC
:204B8C00A87097B9D2F8A000007C400040F0010041F8040C022010700B68DB0917D2D2F855
:204BAC00B020022A17D30B2216E0D2F8A000007C0127400041F8040CD2F8A4001770431CF5
:204BCC00C2F8A430007848600868C00902D34FF0FF3080BD022003220A6006F07DFA002024
:204BEC0080BDC046042800402DE9984306F0C0FB1F4CDFF87880814604F1E000007850B901
:204C0C004446A0680146022088470746102002F0D1FD2FB320E001F02FFC002820460FD115
:204C2C00144909683222B2FBF1F101B9012100F13004204606F094FB204606F08DFB0FE0F8
:204C4C0044460022A16880F8E020022088470746102002F0AFFD1FB1A068014603208847FE
:204C6C00484606F081FBBDE89883C0464CB900001418002084BA0000F8B50D461F4C2049FF
:204C8C000728164638D8DFE800F0192C2A2826242104284605F082F9071C2DD0616804F1F4
:204CAC001700884202D0606805F0D0FC384631462A46FFF741FD67602570F8BD082D1BD1E1
:204CCC0030680F34206077686760F8BD0C46153408E00C4606E0643404E04F3402E03A3408
:204CEC0000E0253420460021152200F0E5FB204631462A46FFF720FDF8BDC0464016002050
:204D0C00B91600202DE9F04107467868051DD0F8BC00A8B306F02CFB1A4E00248046F46060
:204D2C0004203060022006F0D7F92B68D5F8A410384622469847022004F03AF809E08169D7
:204D4C002B6822463846C5F8B8109847022004F02FF8D5F8B800D5F8BC108142EFD1204626
:204D6C00C5F8A4002C71C5F8B800C5F8BC00064B346038461C6002F021FC404606F0F4FAE3
:204D8C00BDE8F081042800401004054270B51E4DAC68064605F0BAFC4FF47A71001B4843BB
:204DAC00030C04F0C5FD2969401A48BF404240F6B8319B19994210D306280EDAE9688C42E7
:204DCC000BD8286848B1114A091B51438A0C02EB1141884288BF011C08E00D49486840080F
:204DEC000ED208687D2100F0FF004143C82905D3B1F57A6F88BF4FF47A6103E0C82101E0DC
:204E0C004FF4FA61084670BDF030002040420F00AC3F00501CB5204C401E02D0401E2ED098
:204E2C001CBD06F0BDF800091DD36078FF281DD00120694604F020FF9DF8000030B19DF80F
:204E4C000000012817D10121617007E0002006226070014605F086FD4FF0FF3104F10C0014
:204E6C00FFF77EFB07E0FF20641C20700120FF21024605F077FD002004F00EFE1CBD022094
:204E8C00694604F0F9FE9DF80010A41C480000EBC10020801CBDC046F40B00201FB5204C35
:204EAC00002834D0012822D0022837D1022002A903F026FD21467E209DF80920C8619DF809
:204ECC0008404A76052C0C7614BF022004208876887E01F11C048DF8080021680DF10903BC
:204EEC0002AA01201960052103F050F816E00120694603F005FD9DF8000021460DF1010247
:204F0C00144601F11C0388762168196006E021460020203103F0F4FC02F070FC00901FBDAF
:204F2C00D42000202DE9FC4108AF38881D4690460E46002818BF0B2033D10846694604F0DB
:204F4C0061FB012804D1002028800120BDE8FC81BDF800004AF601410024401A16D0401EE7
:204F6C000BD0401E1CBF2C800A2419D102202880F06800884146088012E005202880F0687D
:204F8C00026841460A600079087109E004F016FF0548083002782A80F1684046FFF7CCFB81
:204FAC002046BDE8FC81C046641B0020F8B5001D84B214F0030002D0241A241DA4B205F015
:204FCC008AFA01461948102C47680160C8BF8768388800221646C30BDD0319D126B984425C
:204FEC000ADD3A46012617E01388C3189BB29C42138011DC174618469FB1001B80B204287B
:20500C00B4BF3C88385344F400443C803F1D08E080F40040002680B2C71938880028DAD1C7
:20502C000027084605F02CFD3846F8BD34190020B0B50446A768ADF1280D27BB0C20FFF79C
:20504C00B5FF071C16D0684600212422082306F053F9002306976A466168ADF8103014488B
:20506C00059306F009F9386038B905F0FEFC384604F076F86FF0030018E0E0687860206939
:20508C00B860A7600AE005F026FA0546386805F095F82069B860284605F0F2FC386861681E
:2050AC0006F05EF9386806F057F900200AB0B0BD11AF0000B0B514460F4606F059F985B217
:2050CC0019480068007808B905F0DCF987B1384604F0C3FA40B114B14FF0FF3020700820B5
:2050EC00FEF7BAF8002419E038687968BA6803E04FF480700122014603F02AFE0B4901202D
:20510C0008600B4908684008FCD30A4800684168022088470CB1002121700446284606F0CF
:20512C0023F92046B0BDC0465CB90000A802504208800240CC010010F8B51F4C0546207E75
:20514C00012802D9401F1FD023E0012803D105F03BFD061C0DD0207E617E00F0F5FB061C46
:20516C0007D0207FA27E294605F076FE064605F005FF012E0DD0FF210020A27E824208DD5B
:20518C002954401CC0B2F8E7E169A27E2846FFF7D3FAA67E241D28463246214604F0ADFEED
:2051AC00002700B1012727B1204629463246FFF7C3FA3846F8BDC046D4200020F8B50E46BD
:2051CC00044606F0C1F80546304604F0EFF9071C03D1284606F0B4F826E0F87F10F0070F93
:2051EC001BD113487968884202D079682166786010A090E8060004F15807284687E806003A
:20520C0006F09EF804F138004FF0FF3106F064F804F1680696E80300F8BD284606F090F883
:20522C00F87F10F0070FFBD102200021F8BDC0460571000002000000000000701CB51E4CE8
:20524C00401E02D0401E2BD01CBD05F0A9FE40081AD36078FF281AD00120694604F0CEFE96
:20526C009DF8000038B900200422014605F09EFB4FF0FF3100E0012104F10C00FFF770F9B0
:20528C009DF80000607007E0FF20641C20700120FF21024605F08AFB002002F025FD1CBD77
:2052AC000220694604F0AAFE9DF80010A41C480000EBC10020801CBD5C11002070B505F0FC
:2052CC0083FC002832D002F0ABFB88B301200C2100F03AFB60B3184C0F20211D0122087054
:2052EC000E460A2004F0C8F81248006842F21071B1FBF0F005F0DCFF1020032204F10E0144
:20530C0005F0AAFD06F10A0550B128786B78AA788030208103F18000608102F18000A081FF
:20532C0001220B203146227104F0A6F805F026FE70BDC04684BA0000A02000201CB51D4CD3
:20534C00401E02D0401E28D01CBD05F029FE80081AD36078FF281AD00120694604F0EEFDB9
:20536C009DF8000038B900200422014605F006FB4FF0FF3100E0012104F10C00FFF7F0F8C8
:20538C009DF8000060701CBDFF20641C20700120FF21024605F0F2FA1CBD0220694604F08C
:2053AC00CDFD9DF80010A41C480000EBC10020801CBDC046A80E00201CB5042004F0ACFFD5
:2053CC00022818D0032816D016480068C0F38150032814BF41F288324FF47A721248144C80
:2053EC00016854342046B2FBF1F105F0B9FF204605F0B2FF1CBD03200C4C009000214FF0BE
:20540C0040521C23204602F021F9012000214FF4007209230090204602F018F9022003F00C
:20542C00C7FC1CBDB43F005084BA000000A00C40141800202DE9F84304F02AFA1A4D4FF0FC
:20544C00FF3105F10C00FFF78BF81848144E154F04684FF47A79B6FBF4F81AE0012002F023
:20546C0043FC404605F024FF0DF10200694600F0F3FC002002F038FC002004216A4601F089
:20548C00C3FD688809FB00F0801BB0FBF4F005F00FFF68780128E1D0B7FBF4F0F7E7C046FB
:2054AC003832040040420F005C11002084BA0000002213460A46194671B510F0030F0BD0D9
:2054CC00002A82BF00F8011BB2F1010210F0030FF6D1002A08BF71BD11F0FF0141EA012155
:2054EC00042A18D341EA0141082A0FD30E46102A08D30C460D46B2F10F0312F00F0272C0FE
:20550C00103BFCD812F0080F18BF42C012F0040F18BF40F8041B12F0020F18BF20F8021B0C
:20552C0012F0010F18BF017071BDFEE70246184808B50068C0F3046005F079FC00EB227027
:20554C00401C162805DA10F10A0FB8BF6FF0090000E015200F49104B00F01F0040F4F8507A
:20556C0008801868800803D20C490020086001E042F040620A49D00E930E80F0010000F0F5
:20558C000100086083F0010000F00100886008BDB81200506E6208400000094094042A4304
:2055AC000000204310B51C4C00202070FFF776F818B1207840F00100207000F0B5FC18B1AF
:2055CC00207840F002002070FFF79CF918B1207840F00800207001F0B7FD18B1207840F07B
:2055EC000400207000F0D2FF18B1207840F01000207002F059FB18B1207840F02000207092
:20560C0005F050FB002808BF207803D0207840F04000207010BDC0462C3100202DE9FF41A6
:20562C001B4C0E460546F03C7188E08A81420CDCB188814209DBF088218B884205D13089C1
:20564C00618B884208BF18271DD0052002F0CCFB7788B388ADF80270F288ADF80430318959
:20566C00ADF806208046ADF80810A08AADF80000684605F035FC071C05D1A57304F1F00037
:20568C00414602F029FF38460090BDE8FF81C046C809002038B5054601201A4C68712879FA
:2056AC00B0B904F018FF2178002904BF6FF00704051C15D0491EC9B2217039B905F0E0F942
:2056CC00606803F07DFC0020687118E0054613E004F001FF05462078FF2805D16FF006041E
:2056EC00284605F0CDF90BE0401CC0B20128207002D1606803F07BFC284605F0C1F90024BD
:20570C00204638BDA022002070B50646B079F5680B28A5F108052CDA30790B2829DA04F09A
:20572C00DAFE154CB27991000C3401EBC20161184968E1B105F0A4F930792870B0796870E9
:20574C00307AA870B179880000EBC1002018F1684068083003F0CAFDB179880000EBC10094
:20576C0024186068406805F0B3FD002070BD05F087F96FF0020070BDA019002038B5194954
:20578C001A4C00204822C1F8F30F94F8E200C1F8FF2F20B3012817D0022807D003281ED1FF
:2057AC0051F8310C00F05EF80B2016E051F8315C2846FBF72DFF40F2FF50A84202D8801CAD
:2057CC00A842F1D2082008E051F8310C00F0C8FD054800780028E7D0052084F8E400FCF7A9
:2057EC00A7F938BD39400C405AB90000141800202DE9FC411A4C4FF0050804F114000026B0
:20580C0004F11C052860102284F8188004F120076676314666610420A0763846FFF74CFE6A
:20582C00102130463A4602F0B1FBA07E8DF8000029680DF101006A4601600120414602F0B9
:20584C00A5FB207E8DF80000607E6A468DF801000220014602F09AFB04F0B0FABDE8FC81B5
:20586C00D420002038B51A4CA0F5C060D4F8B810C4F8D4000029B8BF49420028B8BF404290
:20588C00814220DAB4F8BC00124D30214FF47F4208230090284601F0D9FEB4F8C0000421A1
:2058AC004FF4F80212230090284601F0CFFEB4F8D00020214FF440620A230090284601F0F0
:2058CC00C5FE012000E0002084F8D80038BDC0461418002000A00C401A4898B5D0F8781250
:2058EC0003680F0F03F0FF03802B28BF002301F089FE4FF0FF3478B1401E07D0401E01289A
:20590C0002D9801E19D01AE0BFB118E0381C12D0801E14D1143311E03846401E0BD0801E71
:20592C0007D0001F03D0401E09D1163306E0152405E0142403E00A2401E00A335CB2204632
:20594C0098BDC046A010005070B50D461549194C134A09680646241F04F11400B2FBF1F1B0
:20596C0005F0BAFC002808BF002017D00E4805700E4D20682978B1420CD02E7005F045FB89
:20598C0004F028FE2878012804BF0948206104F097F92060002100B10121084670BDC0460A
:2059AC0020A1070084BA00002931002028310020A8BA0000443000202DE9F84303F054FF55
:2059CC00184D4FF0FF3105F10C00FEF7C9FD1348134F046843F698264FF47A79B6FBF4F837
:2059EC0016E003F033FD404605F062FC0DF10201684601F06BFF002004216A4600F08EFF2D
:205A0C00688809FB00F0801BB0FBF4F005F050FC68780128E5D0B7FBF4F0F7E784BA0000BB
:205A2C0040420F00A80E0020B0B5ADF1400D05F08FFC044600213C220823684605F018FC78
:205A4C00114841680691816800680490104818380068002205900D480891694605F004FC63
:205A6C00071C0DD004F037FD0546384601F0E0FB30B1284605F004F8204605F05DFC01E088
:205A8C0001F0D0F910B0B0BD84B3000049AD000040190020F8B5174A174B184C121D22F058
:205AAC0003019C4621605E1A2068256860606768A660002001E025F8020BAB42FBD84FF621
:205ACC00FC75B3102A4001EB830323F8040CACEB0202E82315403B80EC3DA1F8E850E831B6
:205AEC0044F8081CFFF762FA44F8040C606844F8080CF8BD2E310020504000204019002027
:205B0C0038B504461848174D001F02686B68C2F30351C2F303405B0813D22B681D0511EB28
:205B2C00257103D41029A8BF0F2100E000211B0410EB237303D4102BA8BF0F2300E00023BD
:205B4C00184640EA011002F47F4102F0FF03222C41EA004143EA010024BF02F08042104324
:205B6C0038BDC046AC3F00507C13005030B5401E4FF00004ADF12C0D0AD0401E04D0401E3D
:205B8C0020D1FBF7D5FF1DE000F04CFF044619E001A821462422082305F0AEFB06940D4DB4
:205BAC00ADF8144009490794012201AB05F1780005F09EFB064A23462C2105F19C000093FD
:205BCC0005F0AAFB20460BB030BDC046ED610000895700001418002038B5184D1549686910
:205BEC0003F0CEF8FF20A87000242C7068216C700120FFF7A9FED0B129468020012208719A
:205C0C006B20091D03F038FC05F0B8F90C480A490068B1FBF0F005F04BFB00F0B7FC041C61
:205C2C0005D001F075FEFFF749FB02F0BDF8204638BDC04607000080A0860100A02000204F
:205C4C0084BA0000F0B50E4615461C460746ADF11C0D4FF6FF7103AA04F018FB02460592E8
:205C6C0012B300200090BDF80C000DF1120329460190FF2002903846A047041C0FD16889C8
:205C8C00ADF81000700804D3384604A904F016FC03E0384604A905F099F8041C05D004A88E
:205CAC001B2104F001FB00E01524204607B0F0BDF8B506AF38881D4614460E46002818BF97
:205CCC000B202AD10846694603F09CFC012803D1002028800120F8BDBDF800004AF68121D8
:205CEC000027401A12D0401E0AD0401E1CBF2F800A2711D101202880F068007820700BE0EE
:205D0C0002202880F0680088208005E012222A80F1682046FEF710FD3846F8BD2DE9F0412F
:205D2C00054615F8017B90460E461CE0B8F1000F05F101050BD0FF2C09D8022015F8011B77
:205D4C00401E41EA0424F9D101E0042C02D315F8011B00E0394630462246FFF7ADFBA61913
:205D6C0001E006F8010B15F8010B8742F9D115F8014B002CE9D115F8010B2C780002241846
:205D8C00D4D1BDE8F08170470146184880B5983000688A0CC0F38367C0F38F2022D241F3BC
:205DAC00072100290BD54A420021400805D17F0806BF0127381C4FF6FF70521EF5D1002900
:205DCC0010DD4FF6FF72400040F00100824207D2780040F001070F2F92BF01200F27101C44
:205DEC00491EF0D140EA074080BDC046B8120050164880B507683FB315498B6803EA53001C
:205E0C00C00E21D2134A106880081DD2486880081AD21068096810F0050F4FEA114101F0CC
:205E2C00F00101F5E0710AD1B9420DD2190F38BF40F00100D90E38BF40F0040003E0B94229
:205E4C0002D920F00500106080BDC04628500940AC3F00500000094070B505460C4600206C
:205E6C004421FFF771FD38B3144E04200222314604F0F2FFF0B131460A881006000C40EA66
:205E8C0022200880C00B15D38E1C01200222891C04F0E2FF70B1B11C0320022204F0DCFF0C
:205EAC0031787078B378F27840EA0120288042EA0320208005F062F870BDC0460C310020EF
:205ECC0070B50646880F26D302F006F8124804F0F5FF134DA81C0078012803D006F13800BC
:205EEC0005F0F6F90D4800240460022002F060FF1120FDF7B1F9307C10B90E20FDF7ACF957
:205F0C002846084A04721178447221B11470C830042104F087FD70BD6936000000000460E5
:205F2C0010140020143100201CB500204321FFF70BFDFE200222694604F08EFF10B3BDF86F
:205F4C000000BDF8001045F249440006000C40EA21208442ADF8000014D1FF2069460222ED
:205F6C0004F07AFF70B1BDF80000BDF800100006000C40EA2120B0F5805FADF8000008BFA0
:205F8C00012400D0002404F0F9FF20461CBDFEE770B544688668D4F8A40004F02EF9134827
:205FAC000025C56005601248361D05603068FDF753F904F1100005F053F904F12C0005F0E0
:205FCC004BF904F1600005F043F9207818B904F17C0005F03DF904F1C80004F05FF805F0E9
:205FEC00C7F984F8DC5005F0BFF970BD04280040100405422DE9F041071C0E4604D0144C9A
:20600C002068F5B2A84202D80220BDE8F08104F124004FF0FF31804605F05EF904EB850437
:20602C009434206860B979680120A84027603246084308497860384603F0DCF9002400E044
:20604C000124404605F044F92046BDE8F081C046882D0020007FC7672DE9F8438146EFF359
:20606C001188202080F311880125114E114CF561114F6560F86A016A14208847D9F8100021
:20608C00810C14BF000C0420A06138680268232100209047C6F88052206820F4C02040F4DE
:2060AC0080302060356088F31188BDE8F883C046000024430020094084010010F8B506AF0E
:2060CC0038881D4614460E46002818BF0B2025D10846694603F096FA012803D1002028807E
:2060EC000120F8BDBDF800004AF641220021801A0CD0401E04D0801E1CBF29800A210CD173
:20610C0001202880F0680078207006E006202880F068026822608088A0800846F8BD704770
:20612C007FB5466819B98068057D447D01E00D784C78FF2D1DD0FF2C1BD0104840EA050193
:20614C000091FE23029320436946019006F19800FEF740FBC6F8A40058B129460D2203F08E
:20616C0033F9D6F8A40021460E2203F02DF9002001E04FF0FF3000907FBDC04600200084E0
:20618C00D0B5044605F0B0F801F052F8071C08BF6FF002041FD004F09EF90146A2880F48BB
:2061AC000023603030F80C6F5EB902804760A26882602373786820610024084604F060FC98
:2061CC0009E0964208BF6FF00204F6D05B1C0B2BE8D300F027FE2046D0BDC0464019002011
:2061EC001648144A144908B5E4300078801E0A2807D8DFE800F01814100614100614100635
:20620C0009C005F07DF811E010688008FCD250688008FCD20AE008688008FCD306E008686B
:20622C008008FCD202E010688008FCD3FBF780FC08BDC04634600C4038600C401418002002
:20624C0010B505F095F8114C611C097829B10E490C6805F089F8204610BD05F085F804F0DC
:20626C006DFC0DA20CCA04F0B9FBA26C002314001B1807A044EB010490E80600C91842EB9D
:20628C0004021046001C10BD0430044010140020000000127A00000000093D00000000001F
:2062AC0038B5154D041C09D10020287002F05CFB03F04EFD05F1280004F05CFF022C1AD1C4
:2062CC002C46022042F210710A252070E0886570B1FBF0F0E0600020A070E0700749087059
:2062EC0002F096FD208900F0FF0002F03DFB04F1280004F03DFF38BD881F00202B310020C6
:20630C00F8B506AF3F881D461446002F18BF0B2022D148684278007842F61927002600EBFC
:20632C00022087420BD042F60812824218BF0A2611D102202880C868008820800BE002F08D
:20634C00E7F80649491C0A788242C4BF021C0A700120288022703046F8BDC046A01D0020D4
:20636C00134910B50A684BF2F5214843040AC2F38140012806D103F0DBFA01F08FFD604334
:20638C0004EB90540C4901F1E500007830B90948006820F07F402418640802E0002081F8E6
:2063AC00E50006480460210C41600123836010BDB43F005010200940141800203C600C40A8
:2063CC008C4601461046124A08B579B1491E09D0491E1BD1BCF1010F18D10F4A521C007887
:2063EC00107008BDBCF1010F10D1F8E7BCF1060F0CD1036802F10C010B60808888800548FD
:20640C000090906808231432FEF7C8FA08BDC046D01A0020C9600000D01A0020B0B5044609
:20642C0004F0D0FD30F0010008BF6FF004041ED004F05AFF054604F04EF801460D480B22B7
:20644C006C3030F80C7F6FB1A388BB4208D1406800680022854208BF0122A260002403E0D4
:20646C00521EEED14FF0FF34084604F009FB2046B0BDC0463419002008B5012003F04CFFC7
:20648C0001281DD00F4834210122002301F08CFB002808BF002014D00B48006803F0E8FAED
:2064AC0004F034F90A4A93681168D060C01A074BA1EB91014343180C884228BF011C116084
:2064CC00012008BD00A00C408000001040420F00F030002098B5154B1B1D18680004070C01
:2064EC0021D003F025FA104991F90720824205DD10F1800FB8BF6FF07F00C8718C88BC42AD
:20650C0010D80A68D3F8D40F801A801C1F2888BF1F203F1B4008C7404FF6FF70E719B8420D
:20652C0038BF071C8F8098BD1C3100203010094070B504F049FB10B301F072FA08B3012082
:20654C000C21FFF701FAE0B10F4C0125211D0B202A460E460D7002F08FFF0A48006842F2E7
:20656C001071B1FBF0F004F0A3FE2078C00906D31120207131462A460A2002F07DFF04F0FE
:20658C00FDFC70BD84BA0000A020002010B504F01BFBF0B101206821FFF7D6F9002808BFDD
:2065AC00002419D00D4CE07940B10E480C490068B1FBF0F004F07CFE0020E071211D7520CE
:2065CC00012204F049FC20B12079712808BF012400D0002404F0D2FC204610BDA02000209B
:2065EC00A086010084BA0000F0B5154C241F65682879ADF1340DFCF799FE04F0B9FE2668D1
:20660C0007463078A0B901A800213022082304F087FE0694A87900230990084A0093697922
:20662C0001AB301D04F078FE0120307003F086FD384604F099FE20460DB0F0BD71B00000BA
:20664C0070B9000098B5134C0C342068011D4068406810B180472168091D086808300168DB
:20666C0009B94768A7B10C4A1C321768002FFCD00023136029B1084680472068001D006895
:20668C000830406800B180470448503803F0C6FC98BDC046101400200010044051000706BC
:2066AC00F8B5074604F064FE124C06462079E0B1401EC0B22071C0B904F1C800082104F0F6
:2066CC00B1F997B1E068703003F078FDE0680A4DC0683F1A286804F1A405B7FBF0F128461D
:2066EC0004F03EFE284604F037FE304604F03CFEF8BDC0461014002084BA000038B504F005
:20670C0063FA18B301206821FFF71EF900B3114C0920211D012208700D466B2002F0ACFE02
:20672C00A0B13F202071294601226C2002F0A4FE0021217050B1E11C1C20012202F09CFEBF
:20674C0020B13A202946012204F086FB04F016FC38BDC046A02000201549096821280ADC1C
