:10100000FFFFFFFFFFFFFFFFFFFFFFFFFFFFFFFFF0
:2010100028420020D99C000035D0000035D0000035D0000035D0000035D0000035D00000A3
:1C10300035D0000035D0000035D0000035D0000035D0000035D000001FD6000091
:20104C002DE9FE43B04C0F460646F80B80F03781B80880F0C9806069B90F69D2A07A0028DE
:20106C004AD138094AD3002501266570A74826720DF022F9A6492A4604F14C000DF0F2FAA2
:20108C00607901281FD1A079E8B9DFF88882266AD4F81490D8F8000070B10CF05FFEA0EBE2
:2010AC0009004346000B8619E0611868B6EBC01F28BF256208D2266204F1C8004FF000518A
:2010CC000CF092FD31E0667104F1380140F60900088094F8450000F0F00040F0010084F83E
:2010EC004500658794F8440000F0F00084F84400E563894E316018E0380914D2B80BC0F001
:20110C00FB8004F128000DF0CCFA061C08D0706830B17568F068B6F91C1082A20CCAA847BC
:20112C0027F40057E8E00020A07227F00807E3E0D8B104200CF098F8B8B10CF00FFEA061A2
:20114C006169814226BF401A401E401A000BF060F06840F6C41100F58D708142F06003D366
:20116C0040F2EE22824200D9F1600025D6F818C06561BCF1000F0FD094F8450010F00F0F18
:20118C000AD1708C40F60901814205D167A20CCA30466FF48071E047604904F14C002A4669
:2011AC000DF060FAA07950B10220ADF8000068460BF05AFEA571BDF80800A4F8A0000120BA
:2011CC0060702079A846401C2071192084F807800CF07EFF756925B156A20CCA304641468B
:2011EC00A84727F0005787E004F1300948460DF058FA061C5AD009F0F6FD4FF00008B2697A
:20120C00C6F818807068B8B1F07F42F00202002300F00700401E07D0401E03D0801E06D191
:20122C0046A002E047A000E048A090E80C007568F068B6F91C10A8470DF0D4F80546B4F9E7
:20124C003600401C6FF31F30E086206B1F30017801F07F01017048460CF0B2FB28460DF002
:20126C00FEF9F068B0F99410B4F9362091421DD1217801291AD090F8965095B9056885B1F6
:20128C00E1680968B1F1FF3F10D0254909687030B5FBF1F10DF02BFAF06870300CF016FD8E
:2012AC0004E080F89680404606F0F4FF48460DF0F8F927F0020708B147F002071CE00DF0B3
:2012CC0091F8014604F12C000DF0EBF90646B56908460DF0C4F9A8080CD25EB1B069A8431D
:2012EC00B061706830B12A46F068B6F91C1075680023A84727F4804727B104F1C800394690
:20130C000CF072FCBDE8FE831014002019780000ADCB0000F834002000100440093100000A
:20132C001CF20000000000002000000000000000000000020000000000000004000000006D
:20134C0000000010000000000000004000000000000000202DE9FE430646DFF8DC82DFF862
:20136C00DC92B2780024101C00F03581801E00F00D81401E012840F2E180801E00F0A880E7
:20138C00401E7BD0401E59D0083800F04681801E40F046814546B08895F83E70ADF80000E2
:2013AC00052F45D001208DF80A0005F1CC000DF07CF995F83E0001281BD0042819D00328D5
:2013CC0006D0022804D0F28831897089B38907E0B5F84020B5F84210B5F84400B5F84630BD
:2013EC00ADF80220ADF80410ADF80600ADF8083020E0B5F84000F1888842D8BF081CADF849
:20140C0002003189B5F842008842D8BF081CADF804007189B5F844008842D8BF081CADF8D2
:20142C000600B5F84630B0898342D8BF031CDDE78DF80A4068460CF057FFF1E0454605F1DE
:20144C00F0000DF032F97078002840F0E980F088E882308928837089688305F1CC000CF0D7
:20146C0007FE002840F0DC80AB6A002B00F0D8801B68E88A298B6A8B9847D1E0B0880BF0BE
:20148C00C9FA45462146062205F1380005F0FEFAEC822C836C83B079687305F1CC000DF079
:2014AC0004F905F1F0000DF000F901244FF6FF706F79A8824FB9B079082814BF04200520DF
:2014CC00A87020460CF0F4FAAAE00320A870A7E0707858BB311D0A68454605F13800026076
:2014EC00898881800627AF707089A882F089E882308A2883708A6883F0784446287394F819
:20150C003E00012818BF02280AD11F2008F030FF4FF47A71024604F1CC00514309F014FB43
:20152C00F0787289311D09F04BFA7BE0707831286FD14D4604202870204623E07778002FFE
:20154C0067D14546698AA878032A13D02A796F7921B9012A14BF6C712C7106E0174304D0A8
:20156C0005F1A80009F0F0FAA878072814BF0420062007E0062807D02879002808BF0324CF
:20158C00DAD00220A8704DE00724D5E77078751C00283ED14246F7789078D1799FB90228CC
:2015AC0016D0072814D0062802D1517901290FD103280DD002F1A8000CF05AFD40B9012041
:2015CC000CF076FA04E08732204607F0CDFC28702878F0B924E07078D8B945460220102194
:2015EC0005F1480209F03CFE0320102105F1580209F036FEF61C05F12C00B7883168878088
:20160C0005F1680201600120A979A87007F0ACFC40B108204D46287004E0B0880CF058FE51
:20162C00012C06D14546686A18B1016809B1A8788847BDE8FE83C046D8080020DA08002034
:20164C00F8B5A0F2013517460E46022D40F20C818649874C874A884B2D1F0F2D04D9143D6E
:20166C004AD0AD1E1CD011E0DFE815F0BA00B500EB00DB00AE00A700FE009F009800100001
:20168C001000900086007A006F006200282880F2EB80022E40F0E880398809F0D9FBF8BD95
:2016AC00012E40F0E1800A469078012800F0DC80D1783878D07081B9002800F0D580107829
:2016CC00012800F0A080042800F09D80062800F09A80052800F09780F8BD3878002840F063
:2016EC00C3801078032800F09980072800F09680052800F09380F8BD012E40F0B580387881
:20170C00012840F0B180254605F1F0000CF0B0FC002840F0A98004F13E01002005F0A4FAD2
:20172C00002840F0A18004F1CC000CF0BEFFF8BD022E40F0998038880A28C0F29580B0F51E
:20174C00486F00F39180114614E0022E40F08C803888B0F5FA7F80F2878011460880F8BD20
:20176C00022E40F08180388806287DDBB0F5486F7ADC1946891CF1E7022E75D138880628C4
:20178C0072DBB0F5486F6FDC1946E7E7012E6BD13878062868DA1146891F0CE0012E63D143
:2017AC003878042860DA093105E0012E5CD13878082859DA08310870F8BD012E54D138780F
:2017CC00042851DAC91DF6E7012E4DD1387804284ADC891DEFE7022E46D138881031BDE72C
:2017EC00012E41D10A46D07801283DD091783878907061B9002837D01078012803D004281C
:20180C0018BF052830D101200CF052F9F8BD387850BB1078022818BF052825D10CF0C0FB7C
:20182C00F8BD254600211F2205F18704204605F02DF939463246204604F016F90020EE7139
:20184C000EE0254600211F2205F16804204605F01DF939463246204604F006F90120AE715E
:20186C003146224607F080FBF8BDC046DA080020D80800201C090020180900202DE9F04F73
:20188C000128ADF1140D40F0F280DFF81492D9F8DC00012840F0E9800220C9F8DC000CF00B
:2018AC0057FC0290012008F049F820B101210646C9F8DC10D5E00CF033FC03906E484FF089
:2018CC000008C0F8008001200BF0CEFC012818BFCDF8008004D1404607F054F90120009041
:2018EC0066486E4CC0F800801934D4F8FF0F11200CF036FD00280CBF4646012610200CF0E3
:20190C002FFD08B146F002060F200CF029FD08B146F004060B200CF023FD30B1584800681E
:20192C005849006B0246088890470A200CF018FD0028404618BF01204FF0805B0BF5DC7594
:20194C0028B128685049006B0246088890474F480127076028688069014646F02000884754
:20196C004B4807600CF0F6FC00F001010191400815D248480CF044FC8246BAF1040FF8D0A6
:20198C00BAF1010F06D1DBF8D801406802464148032190474049086820F00300086040468F
:2019AC0000F080F82868D4F8FF1F806B8047019801280ED0BAF1010F06D1DBF8D801406801
:2019CC0002463448394690473349086840F0030008602A48076028684069014630468847BC
:2019EC000B200CF0BDFC28B128682649C06A0246088890470A200CF0B3FC28B128682249A1
:201A0C00C06A024608889047204807600322C9F8DC201F4BC3F800802868406B0146304693
:201A2C0088470128F8D1042007F088FF124807601A48D4F8FF1F01688909FCD3009801289F
:201A4C0002D1384607F09EF80CF07EFC082007F075FF06460398C9F8DC7009F083FC06F031
:201A6C00D7FA02980AF08AFF02E0042600E00126304605B0BDE8F08F0C400940000222430E
:201A8C00B8010010DAE80000D6E800002820086080010443004003402422084014100940FB
:201AAC00341900202DE9F84FDFF8E8B10746ABF13500DFF8D4910068800880F0D6800AF0D6
:201ACC007DFD064677480830D0F8008000254FEA28725FEA985002F101020AD2C6F13E0005
:201AEC0016F10A0F4FEAE000D8BF08208242B8BF021C624BD3F87C01C0F304600CF079FB0D
:201B0C0004461868C0F304400CF073FB12198246162A05DA12F10A0FB8BF6FF0090200E09F
:201B2C001522574B574802F01F0141F4F8511980006810F0030F18BF0125C00828BF45F09D
:201B4C0002050FB145F00405494691F90700301A052804DA8879A84208BF888865D0DFF831
:201B6C002CE10F2EA6F10F0C25DB0CEB0610A0F1F00C4FEA2C27072F88BF07273C46062CD8
:201B8C0088BF06245EF82400042303EB84037446E3581B1A03F0FF04E80824BFC3F30720E2
:201BAC000444A80824BFC3F307400444680828BF04EB136401E0002427465EF827E0E8087D
:201BCC000EF0FF0324BFCEF307200344A80824BFCEF307400344680828BF03EB1E63A4B2E9
:201BEC00ACEB0727BAEB020004FB07F404F1800403EB1423D8BF0120342208F0FF07424344
:201C0C007A43B2FBF3F04FF6FF72824238BF101C802E80B2888005DA16F1800FB8BF6FF09B
:201C2C007F0600E07F26CE718D71194A12681F280A604FF0000208D340F2FF11814206D2CA
:201C4C004008521C8142FBD301E01F208880124F0F38000942EAC00247EA0200CBF8FB0F6A
:201C6C000026CBF8FF6FBDE8F88F0D4F0B4E494608203760891D0870BDE8F88F3C110050EB
:201C8C006E62084024220840FC3400209C130050082009403500094000E7A48030100940C0
:201CAC00FDFDA400AC3F00502DE9F0411C4615468C4208BF854282BF00230022E5E0002C68
:201CCC0008BF002D0AD100290EBF00286FF000006FF0000100F0E1F8BDE8F0815FF0000816
:201CEC005FF0000E002C08BF8D429CBF2C1C0025070C47EA01470E0CB44208BFBD429EBF32
:201D0C005FEA044444EA15445FEA0545070A47EA01670E0AB44208BFBD429EBF5FEA0424C0
:201D2C0044EA15645FEA0525470847EAC1774E08B44208BFBD4200F29380870847EA8177F6
:201D4C008E08B44208BFBD427CD8C70847EA4177CE08B44208BFBD4266D8070947EA017790
:201D6C000E09B44208BFBD4250D8470947EAC1674E09B44208BFBD423AD8870947EA8167E5
:201D8C008E09B44208BFBD4224D8C70947EA4167CE09B44208BFBD420DD8E60146EA5566F5
:201DAC00EF01B14208BFB84201D3C01BB14158EB08085EEB0E0EA60146EA95664FEA851773
:201DCC00B14208BFB84201D3C01BB14158EB08084EEB0E0E660146EAD5666F01B14208BFFE
:201DEC00B84201D3C01BB14158EB08084EEB0E0E260146EA15762F01B14208BFB84201D3FA
:201E0C00C01BB14158EB08085EEB0E0EE60046EA5576EF00B14208BFB84201D3C01BB1410C
:201E2C0058EB08084EEB0E0EA60046EA9576AF00B14208BFB84201D3C01BB14158EB0808B6
:201E4C004EEB0E0E660046EAD5766F00B14208BFB84201D3C01BB14158EB08085EEB0E0EC4
:201E6C00A14208BFA84201D3401BA14158EB08085EEB0E0EA34208BFAA423EBF2D0A45EAFE
:201E8C000465240A89D3734642461E4617460B46024631463846BDE8F08170472DE9F0439D
:201EAC00ADF11C0D06F0C6FD754C04F1280004F16C0103F027FEDFF8CC81E06041460CF057
:201ECC008FFB0AF0EFFA04F134000CF0B5F904264FF47A7200236C49206104F188000096F1
:201EEC0007F0DCFA1F20012108F0B2FF01250020ADF806004FF44871ADF80C1008278DF89D
:201F0C00045081468DF8086001AAADF80A706420ADF80E902946ADF8100040F20530FFF79B
:201F2C008FFB40F2063002210DF10602FFF788FB04F14E024FF442701B21FFF781FB04F124
:201F4C00400240F207300E21FFF77AFB4FF44470294602AAFFF774FB40F2113002210DF125
:201F6C000A02FFF76DFB40F21230022103AAFFF767FB40F2133002210DF10E02FFF760FB58
:201F8C004FF44570022104AAFFF75AFB0CF0B2F90620A02108F05CFF0720A02108F058FF09
:201FAC003846A02108F054FF0920A02108F050FF8DF8185003278DF81B50484605903146B9
:201FCC008DF8190005AA8DF81A704FF4816008F025FF4FF48060294606AA08F01FFF40F2CF
:201FEC00024029460DF1190208F018FF40F2034029460DF11A0208F011FF40F2064029460F
:20200C000DF11B0208F00AFF0CF0DBFA0CF03FFB0BF07CFE07F01CFA0AF04AF804F0E8FDFA
:20202C00A0707F2814BF0A200F20052107F00AFE02F0E4FF30B900F085FD18B9A07800F083
:20204C00BF00A0700AF0E6FB0AF048F80AF01AF806F01AFD07F0D6F90AF0B4FB0AF064FFAB
:20206C000BF0FEFF0AF0C2FB0BF012FB09F010FEE06841460CF0B4FA07B0BDE8F083C04648
:20208C00200500202DDA000045DA00002DE9F84381460CF053F9002100B901216B4E30681C
:2020AC000028FCD06C4D01242D1DEF6A346009B10CF04AF9DFF89881C7F3072008F1BC018B
:2020CC0008600CF03BF9002100B9214630680028FCD02F68346009B10CF036F9C7F3844001
:2020EC00C8F8C0000CF02AF90146002001B92046014630680028FCD0ED69346009B10CF03B
:20210C0023F9C5F38120C8F8D000B9F5C061C8F8B81000F0968098F8D80068B9C8F8D41024
:20212C00D8F8C000C8F8C800D8F8BC70C8F8C470D8F8D060C8F8CC60D8F8D410D8F8BC60FF
:20214C00002954BF02206FF00100454605F1C8031A6801EB41014018411000EB917002EB37
:20216C00A0021A60D5F8C810C5F8C46000291CDD1E293DDDD5F8CC0030B93429B4BF15398E
:20218C001E21C5F8C81025E02A29BABFD5F8C8000B381E20C5F8C800D5F8C4003F28B4BF88
:2021AC00401C3F20C5F8C4001FE0D5F8CC00032812D011F10B0FC6BFD5F8C8000B30201C85
:2021CC00C5F8C800D5F8C4000028CCBF401E0020C5F8C400032009E011F1150FC6BFD5F8A7
:2021EC00C8001530201CC5F8C8000020C5F8CC00B5F8C400174E30214FF47F420823009076
:20220C00304607F0E7FA009404214FF400321123304607F0DFFAB5F8C80004214FF4F802E5
:20222C0012230090304607F0D5FAB5F8CC0020214FF440620A230090304607F0CBFABDE85E
:20224C00F883002088F8D800BDE8F88300800C403419002000A00C4000A00C402DE9F04FF9
:20226C00ADF1840D00F032FE07F090FA0026012804D10BF0F1FA022808BF0126584908684F
:20228C00C0F38150012806D151F80C0C0127010E07FA01F00643534800780AF0B7F9524D7F
:2022AC002C46286038B1FF2204F1400107467F1E01F8012BFBD14D4909684FF0000901F0BD
:2022CC00FF02FE2A1BD0DFF824C101F0FF074A460123FF2F0CD0B8427FD903FA07F73E42A0
:2022EC007BD101F0FF0147EA0909611881F840205CF8041F521C01F0FF07FE2FE9D1092014
:20230C0001F06EFE3948002124220823606001A80CF09EF84FF0010804F1240001AA8DF8B5
:20232C001C80414609F040FB236843B3002794354FF0040BBA4608FA07F0064219D119EA4D
:20234C00000F04BF07F0FF0141F4C04105D0E019264990F8400051F82010254802F0F4FDA4
:20236C00F8B24FF0FF310AF0A9FF2368C5F800A001E0C5F800B07F1C2D1D9F42DBD30AA83A
:20238C000021302208230CF027F80025FF2010210AAB1290174A009504F1080008F0B8FA0F
:2023AC0016A82822082329460CF058F804F1600016AA1C9510491D952B4608F0A5FC0F49F0
:2023CC0051F80D0C20F4F85040F4005041F80D0C4746C1F8FF7F0A4E376021B0BDE8F08FB5
:2023EC00B43F00500935002058300020F8E70000007FC767E5D20000859B00000D3009409F
:20240C00080009402DE9F843674C04F124000CF048F915460E4600900BF0E4FF05F00107EB
:20242C008146B6F1FF3F0CD1A06A20B9B4F93600401C06B202E0A06AB0F91C60002084F880
:20244C00A300304609F08CFE0326002800F09B80A16ADFF84081814269D0009FB8422ED042
:20246C003FB100990A68904209D0096800290091F7D1832E41D048460CF0F1F83DE004F170
:20248C00A4000AF011FE00980168AA0802D20A6802600846002202600091009818B94846CE
:2024AC000CF0DDF828E0C17F41F00401C17768460BF086FA0146404608F0E8FDEDE704F1ED
:2024CC00A4000AF0F1FDA8083ABF606A00680020606248460CF0C3F80099C87F40F004004E
:2024EC00C87768460BF06CFA0146404608F0CEFD009808B1A808EFD28326E07988B9207A53
:20250C00012843D024480BF0D7FE022104F1C8000BF06AFB6078012838D020480BF0CCFEC1
:20252C0034E004F1C80002210BF05EFB2EE0A90803D3616A009100266662C27F0121B9400C
:20254C001143C1770BF0ECFD0446002F14BF144814480AF089FC48460CF081F8A80801D3F5
:20256C00009820B9204608F0FDFE83260EE0C17F41F00401C17768460BF022FA01464046AE
:20258C0008F084FDECE748460CF069F83046BDE8F883C046401400204D100000B544000092
:2025AC000100020401000104101400202DE9FC415E4C574D574EDFF860815A4F94F8E41097
:2025CC00481E0B2861D8DFE800F07B2C43062343062343067664042907D001220A2945F82D
:2025EC00212C14BF0220032004E02021012045F8211C024684F8E200002045F8390C082733
:20260C00C5F8FF7FC5F8F37F45F8392CBDE8FC81052914BF09200620002584F8E400356016
:20262C0070E094F8E1700120383D002FC5F81B0004BF0620002102D00021F160032084F8D7
:20264C00E400032045F8010C31603068800859D294F8E400012503280DD00021404660227A
:20266C000523009107F0B6F894F8E400062814BF0A200720D1E702200090002160220523F9
:20268C00404607F0A7F80420C7E70BF070FCBDE8FC812249002622480E60012505600E2095
:2026AC0001F034FC022008F0FFFF84F8E45084F8E360BDE8FC81002038600C2578601FE084
:2026CC001948006800680146202088472C3D41F61D560F2000214FF4C072072345F8010C1B
:2026EC004046C5F803600225009507F073F8404600214FF4C072072307F07AFC012038609E
:20270C0084F8E45004F178000BF0E0FABDE8FC8139400C4038600C4000A00C402C500C403C
:20272C0004800C4034600C40A0010010341900202DE9F84F9A4693460E4681460BF052FE43
:20274C00514C0090B4F93610B4F934000AAF401A40F6F8710140082980F28780B4F93400EE
:20276C00401C6FF31F30A086B4F934800AF01CFC054609F170000AF097FCAE6085F81EB00C
:20278C00C5F804A0A5F81C80C5F80C9097E80C0041A003C8002605F110071040194087E8B8
:2027AC00030004F12400EE770768002F50D1294608F06CFC002851D0A9F89480E87F40F069
:2027CC008000E87789F89660607A40B1607830B10120A07266722779A671781C2071009894
:2027EC000BF03DFFA06A00284BD1607860BBE079012846D00BF0F6FD0646207A00BBA8681E
:20280C0006F098FE224B2149E2681B68086040B930460BF024FF04F1C80004210BF0E4F9CD
:20282C002FE00968D26804F1A400891AB1FBF3F10BF05DFF04F1A4000BF048FA30461EE065
:20284C00144901200870F9E719200BF041FC18E004F12400294608F019FC48B9B4F93400B6
:20286C0000F6FF706FF31F30A0866FF0010805E0A9F89480E87F40F08000E87700980BF005
:20288C00EEFE4046BDE8F88F10140020F83400201CF20000F4340020F1EFFF9F200000000A
:2028AC00B0B5456884684F48297BADF1180D012916D0217E627E4C4B2F7E0143009143EA3B
:2028CC0002010191494937F0010718BF081CA27E1043029095F88D000322FF2811D00DE062
:2028EC00677E217E3843A37E019041F00041009143F000403E49029095F88D000143042208
:20290C000391FE204DF82200694605F1900003F0F9F8C5F89C00002808BF00205FD0287B3F
:20292C00344951F8200001282BD02068B0F1804F14BF22220A22217ED5F89C0009F01EFB2C
:20294C002068B0F1804F14BF21220922617ED5F89C0009F013FB2068B0F1804F14BF2422D2
:20296C000C22A17ED5F89C0009F008FB95F88D10FF2933D02068B0F1804F14BF23220B2207
:20298C0028E02068B0F1804F14BF21220922217ED5F89C0009F0F2FA2068B0F1804F14BF32
:2029AC0022220A22617ED5F89C0009F0E7FA2068B0F1804F14BF24220C22A17ED5F89C00B2
:2029CC0009F0DCFA2068B0F1804F14BF23220B2295F88D10D5F89C0009F0D0FA012006B0B2
:2029EC00B0BDC046000480A0004000800004C0A000200080BCE900002DE9F04305466E6861
:202A0C00AC680F46ADF1340D0BF0ECFC96F8D910241D012903D10BF022FE002084E04FF0EB
:202A2C00010986F8D9900BF01AFE4FF00008C6F888803869306178697061387E3076387B86
:202A4C00307338783070786886F8A480706078694146092828BF494686F88C10207A01F071
:202A6C00BFFA284605F08AFEE07D86F88D002846FFF716FF50B9207A01F048FA0BF0B2FC46
:202A8C0086F8D9800BF0EBFD45464CE001A84146302208230BF0A0FC06956078CDF80080BD
:202AAC00234A0990217801AB06F11C0007F030FF01A84146282208230BF0D0FC05951D491A
:202ACC00606801AA4346079006F1380008F01CF9307878B901A84146242208230BF0B8FCF2
:202AEC008DF81C9006F16C00414601AA08F05CFF114800E0B868B06005F070FBC6F8A0008A
:202B0C00307B012808D1D6F89C000C490BF068FDD6F89C0000B18560094A06F1C4000421AA
:202B2C002B4609F09BFD28460DB0BDE8F083C046C15600002F8E000067E500005DA500001C
:202B4C00CDE300002DE9F84F07F0F2F95FEA000800F08A80464E002435680094B8F1000F8E
:202B6C004ED0C4F30C00002700B90127DFF808A1B9460AF1100A48B928460F21012208F012
:202B8C0051FA284600220A2108F04CFA04F5802005F0B4F90025B8F1000F1FD02919504606
:202BAC004FF4807202F060FF28194FF48071524600F5802004F0F2F95FEA00080AD0D346BE
:202BCC004FF480771BF8011B009808F015FE7F1E0090F7D105F58075280BDCD03068B9F1D8
:202BEC00000F054608D00F21002208F01BFA284601220A2108F016FA04F58054600CADD0BE
:202C0C00B8F1010F04D04FF4F42005F077F929E028460A21002208F005FA0098002108F0F3
:202C2C00EBFD002108F0E8FD04464FF4F42005F065F9104A0027978197804FF6FF7050807A
:202C4C0014804FF40046D6800425957346231372537293721021D372FF274FF4F420D773CF
:202C6C0004F09CF908F048FC4046BDE8F88FC0462C05002068310020683100202DE9F041C1
:202C8C00424C474D8046C8F38140401E02D0401E2AD025E0284620300168880C20D24FF447
:202CAC00804020603A48D0F802204B0AC1F3033703F0800322F08F02134347EA0302C0F8BC
:202CCC000220D0F801300E1266F30303C0F80130026801F0E70722F0E70247EA020102E00B
:202CEC004FF00041204601602A4E06F108000068C0F3C0070FB94020A0624FF400702064C7
:202D0C000BF07EF940F0300084F8C800C8F3815038B3401E03D0401E1ED002211DE001205C
:202D2C000AF0A2FA07460420394606F045FB04200AF09AFA8742FAD1366826F07F4008F01A
:202D4C006BFC15480068036807214FF06022300E98474FF4806020600321042006F02CFBC2
:202D6C0006E00420012106F027FB0C4808F054FC284600680B4947F6180700F03F0084F836
:202D8C00CB0F094E0F803068BDE8F08140A00C400A600840A83F0050B4010010BD37860065
:202DAC006C13005070B00C402C2009402DE9F04F0C464549CA7AADF12C0D84460592487BC3
:202DCC0009900D7900958A7A488B4B8A0E7B91F805A091F802800492B1F846E008904A7A04
:202DEC00088B0392CD7807900A7AC88A02920F6A0690CA79888A01928A79E146A9F54079E1
:202E0C00B9F11D0F10D8DFE809F05B5553514F4D4B494643413F3C3A380F34312E2B2923D4
:202E2C00201E1C0F19181716BCF1280F49DA604607F09EFA21E0099EB246D046CDF8148074
:202E4C001DE00898079007980690DDF818E005E03831086820608888A08032E070460AE010
:202E6C00B1F8440009E0B1F8420004E0B1F8400001E091F83E00034612E0208021E0059897
:202E8C0004900498039001E03231E2E7039802900298009006E0019A87310DE068310BE055
:202EAC001846EAE7009D0BE02C31D2E7276008E0583100E048311022204602F0D5FD00E0AC
:202ECC0025700BB0BDE8F08FD80800202DE9F041444C94F8E700ADF1280D00286FD1394F65
:202EEC00387B01250021242284F8E7507E6884F8E6000823C4F80C6101A80BF091FA0026E2
:202F0C0004F10C00069601ABADF814602E490796324608F0F3F92D4904F1300001AB324614
:202F2C0008F0ECF92A4904F1540001AB324608F0E5F9B868014628468847DFF89C802548EE
:202F4C007B7B0078D8F80410C1F381571BB1032F03D184F8E150032F16D0022F14D0012FAB
:202F6C0026D103201D4C009031464FF040521C23204606F02FFC009531464FF40072092337
:202F8C00204606F027FC13E0022008F0A5FB032F0CBF4FF47A7142F21071114800685434D0
:202FAC00B1FBF0F120460BF0A2FB20460AF08EFED8F80000C00802D2304608F08DFB0AB072
:202FCC00BDE8F0814CF00000A7750000496000009969000009350020B03F005000A00C4043
:202FEC001CF20000341900202DE9F0430746880FADF1140D75D305F01FF93F4D00261C3506
:20300C002E60394845F81C0C38480BF055F93848BC68B14640F60A0200F13801468790F80B
:20302C0044300A808046C0F83C9003F0F00380F8443090F845306680241D03F0F00343F02D
:20304C00010380F8453000E01C1D236813B118888242F9D12160607A00F0F000607208F1D7
:20306C0024000BF01EFB80680088D21F82421DD0521C82421AD007F120000388B3B197F848
:20308C002C2097F82D30C7F8249002F0F00287F82C2003F0F00242F0010287F82D20C8F824
:2030AC003C00487B7E8400F0F0004873694609F0EBFE68460AF09CFF28680028FCD02E6082
:2030CC0001200AF0D1F8012808D0607A00F0F00040F00100607207480BF0EEF8B86845F8B5
:2030EC001C0C05B0BDE8F08301010E044D10000010140020E58B000000100440F8B50AF0AF
:20310C00C3FB404E3E4F0446A00823D3B96A09B33D4600200B698A69A86204EA03001043AB
:20312C0040F0020006F1080288610B6910689843106001F1100090E80C0030681A1C904309
:20314C00306005F1300007F0A1FF022105F1C8000AF04AFDB86AA10815D200F110020CCA69
:20316C00002122400B40002B08BF002A0BD0016985690C40F8622C434FF48041846107F130
:20318C00C8000AF031FDB86A002837D107F1240420460BF086FA051C30D0F868E968884244
:2031AC0026D1A86806F0C6F917490860E0B906F1080128690A6810430860326805F1100385
:2031CC0093E80300081C1043306000233361A86846F80C0C06F1100000680028FAD020467A
:2031EC000AF0EEFBBD62F8BD086805F053F8F8BD07F1C8004FF480510AF0F6FCF8BDC0462C
:20320C00101400200C100440F83400202DE9F04104466768A5680E46ADF1380D0BF0E2F839
:20322C0097F8DC102D1D012903D10BF018FA00205EE04FF0010887F8DC800BF010FAF168D3
:20324C00204604F0ADFC0028F1D13078387070687860307A002130220823F86001A80BF031
:20326C00BBF80694287A00260990234A0096696801AB07F1100007F04BFB01A828220823B1
:20328C0031460BF0EBF805941C49E86801AA3346079007F12C0007F037FD01A8242208235B
:2032AC0031460BF0D5F88DF81C8007F16000414601AA08F079FB387838B907F17C00314620
:2032CC0001AA08F071FB0E487860C7F8BC603E72C7F8C060286800F083FE204606F032FAB2
:2032EC00084A07F1C8000421234609F0B7F920460EB0BDE8F081C046893C00009789000054
:20330C0057E500008DE000003EB53C4C0621601C01700AF073FD18B90BF02EF800203EBDF2
:20332C00002501206821657003F0AAFE2220694601228DF80000372008F078FE08B90520FE
:20334C0060700BF019F86078002818BF281C54D101200C2103F094FE0220694601220AF084
:20336C0064FF00283CD09DF80000400836D303200DF1010107220AF058FF68B39DF8070070
:20338C00000927D29DF802109DF80100B4F908501B4B9DF8042040EA012000B268439DF881
:2033AC0003500112A3F11400B4F90A30018445EA02219DF806509DF8052009B2594309121E
:2033CC00B4F90C30418442EA052109B259430912818407E0032004E0042002E0022000E074
:2033EC000120607011208DF80000694601220A2008F01CFE0AF0C0FF60783EBD6C220020D2
:20340C00582100202DE9F047ADF1180D01F058FF3A4D4FF0030908274FF6FF78002605F1D6
:20342C003E0A2C4609F004FF20BB009601A80DF106016A4608F05EFBE0B9BDF80400102820
:20344C0014D160789DF8061088420FD100980188884509D14088C00B08D3042005F12002DC
:20346C00014607F0FDFE01E006F08AF8009808B10AF092F9208A41082DD320F001006379F8
:20348C002179208253EA010225D073B9207A637A8DF8070005F132018DF808300A680DF12A
:2034AC0009031A608988998001E08DF80790A07A8DF80F00E37A8DF810300DF107000AF084
:2034CC0001FF38B1636AA77023B11A6812B1196838468847208A810807D320F0020020826B
:2034EC005146304603F0C0FB208AC1089AD320F00400208207F080FE94E7C046D808002079
:20350C002DE9F84F00298346009106DD024600980021401E42F8041BFBD10098DFF8C880A1
:20352C00DFF8CC900028C8F800B012DD2F48009C0768002537F8020B38B1D9F80000AE007A
:20354C003158002088474BF80600641E05F10105F0D1284F41460120D7F80080C880B8F100
:20356C00000F22DD4FF0000A00980127002817DDABF104050446002655F8040FB0F1FF3FB8
:20358C0004D0D9F800107158884728600021B0F1FF3F08BF0121361D641E01EA0707EBD1D7
:2035AC0037B90AF1010AC245DEDB04A009F0C8FF0D4900200860BDE8F88FC0467864632E68
:2035CC0072756E74696D652E537461727475703A20276D61785061737365732720657863FD
:2035EC00656564656400C046C42500206CF2000070F2000068F20000F8B515460378427862
:20360C00384CC67842EA03228378120142EA231C0279238842EA06224079B4F90A601201B5
:20362C0042EA2012C3EB2210D210A2EB4302B4F90230404353430213B4F9040050438013A8
:20364C0000EBE32000EB8002803212120A60A11DB4F908404010A0F57A40821052435313E4
:20366C0073434443641004EBE3044FF4004303EBA4430C885C43E71332D0B1F90830B1F9A1
:20368C000A40D612584304FB06F2174BB1F9066040F6354402EB4002300404FB1C3300EB9D
:2036AC00A200021304FB1230C20F19BFB0FBF7F040004000B0FBF7F0B1F91030B1F90E70A7
:2036CC00B1F90C60C20884085243520B5A4307FB04F35B1303EB2233F11800EB211028608C
:2036EC00F8BDC046B8340020000050C32DE9F041384E307800286AD0374C208910F07F0F53
:20370C0000F07F0861D007F021F9344F21783D78A0700DB9022930D12279C30913D240087D
:20372C001CD307F0D9F906F06DFFE078E188002808BF217812D0002542F21070E57090FB7F
:20374C00F1F0217809E0521CD0B20228207105D1E08842F21072B2FBF0F0E060002502293E
:20376C003D700AD12089C00907D3FFF7CDFD052821D008B104F0D6FC2178E76817B901292A
:20378C001AD122E0022909D0022020700027277103F0F6FD10B1404607F0C6FC2089000A22
:2037AC0002D3E068401EE06004F114020020122104F034FF09E0E56000202071012727701F
:2037CC0003F0DEFD08B100F0C9FA00203070BDE8F081C0460635002044210020073500208B
:2037EC002DE9F04706467468B5680AF0FBFDD4F88810002963D00AF032FF2968486820F0FD
:20380C00020048602968486A20F003004862D4F8A07068692969084379680968C1F8040554
:20382C002968486920F00100486128684FF00108C0F82080304608F04DFFD4F88800D0F87A
:20384C0004900AF0CFFD04F1D8078246387850B119F0704F02D1042007F026FF022007F0C1
:20386C0023FF0020387050460AF0F9FED4F88810087C042803D003200874D4F888102A694E
:20388C006869D4F8A0304746104307FA00F258680068C2622868B0F1804F14BF0A480B4818
:2038AC000F68006800258204A7EB9250401E08603046A268C4F888509047BDE8F0870AF037
:2038CC00CEFEBDE8F087C04608050020380400202DE9F0430646ADF11C0D0AF0D1FD07F04A
:2038EC006BFE4FF000090546CDF800900AF06EFD30F0010002D00098A84202D16FF004005B
:20390C0059E070684C4658B1B0F1FF3F05D001A907F03AFE30B107464CE04FF0FF3000E0BA
:20392C002046019009F0B0FB0199012701EB000800E001936868019900F086FC00282ED0B4
:20394C0003A807F0B9FAD8B99DF8100002A907F099FA88B9B368BDF808009DF81210059A2C
:20396C00984748B19DF81270B773BDF80800B081059B33614F4612E00599684608F090FAAB
:20398C000198641CB0F1FF3FD4D00028D2D009F07BFBB8EB000302D001989842C9D2009927
:2039AC0005F1080008F056FD24B1686804F094F8641EFAD1384607B0BDE8F083F0B5ADF1B0
:2039CC00340DFFF783FA304908682822082340F00200086001A800210AF040FD2B4E2C4940
:2039EC000524002301AA079406F1C80007F08CF900213022082301A80AF0EEFC0025FF2778
:203A0C001921244AADF81C5001AB099706F14C00009506F07DFF2822082301A829460AF0C4
:203A2C001DFD1D49079406F1FC0001AA2B4607F06BF901A82946302208230AF0CDFC012478
:203A4C00ADF81C40099706F168001A2101AB134A009506F05DFF12492A4606F1A400134670
:203A6C0007F04CFC0F480AF027FC86F8A3507571F57135727572B5727561B4714FF6FF7066
:203A8C00A6F8A0000DB0F0BD002009401014002065DB0000ADCB0000DD4A0000398C000021
:203AAC00E9C80000B54400002DE9FE4F0CAF3D8883460E4608469846144601A908F0D4FB59
:203ACC00012808BF01205ED0BDF80400DFF8BCA042F6021100274FF0FF09401A40D048F252
:203AEC00FF21401A2BD0401E13D0401E36D1002D32D1B8F1020F2DD1207806281DDAF068A2
:203B0C00218801802248F168884231D14FF0020931E00DBBB8F1060F1CDA207810280CDC51
:203B2C00F0682146424601F09FFFF1685046001D88421DD14FF001091DE0802718E05DB9E4
:203B4C00B8F1100F06DCF0682146424601F08CFFB94610E00D270BE00B2709E00A2707E0AB
:203B6C000095584643463146224605F0A1FD0746B9F1FF0F06D05046006818B1016809B146
:203B8C00484688473846BDE8FE8FC046241D0020201D0020BFB5384C0746401E3CD0354D17
:203BAC00401E21D0801E012833D9801E02D0801E25D05BE028460AF05BFA10B928460AF0AB
:203BCC0072FDE0680A210022054607F02BFA002228460F2107F026FA00222846152107F0DA
:203BEC0021FA03F077FD41E028460AF041FA10B928460AF058FD002009F02AFF36E008F09D
:203C0C0045FE04F10C0000680A21012207F00AFA2CE008F03BFE29E00F20052106F012F808
:203C2C004FF441706946FFF7C1F89DF800009DF804308DF808009DF805108DF80E309DF839
:203C4C0001508DF80F109DF803008DF809509DF802308DF80D0002AA8DF80A3000208DF884
:203C6C000C0008218DF80B0002F030FA27700090BFBDC046A80500202005002098B53549D1
:203C8C00446809688068496800688847324A0121916140B1237AFF2B05D0FF214009217212
:203CAC0053D2042149E0207A00284ED0401E17D0401E02D0FD3848D044E05368D4F8B40084
:203CCC000370D4F8B400401CC4F8B400D4F8B8707F1EC4F8B8701CD0012F88BF09212CE00B
:203CEC00D4F8B0707F1EC4F8B07014D1D4F8B8707FB10220D4F8A8102072097C012F4FEA24
:203D0C00410141F0010142F8041C94BF03210B2114E004210FE0D4F8AC0000785060D4F8B1
:203D2C00AC00022F00F10100C4F8AC0005D2D4F8B87017B9052100202072022011600AF040
:203D4C0049FC98BDFF20207298BD04F12C0006F067F898BDAC010010042800403348F8B59B
:203D6C0005780AF04BF800284FD00120682103F087F9002859D02E4C0920211D012208704C
:203D8C000F466B2008F052F900283ED007202071394601226C2008F049F9002835D001264A
:203DAC001D2039462671324608F040F900282CD04020207139463246382008F037F920B39C
:203DCC00C020207139463246692008F02FF9E0B125711F203946324608F028F9A8B10620D1
:203DEC002071394632461E2008F020F968B129202071394632466B2008F018F928B1E11C8C
:203E0C001C20324608F012F910B90AF0B5FAF8BD3A20394632460AF008FA0AF0ADFA0020AA
:203E2C0020700449606907F027FCF8BD452100206C2200200700068038B50446084603F0C8
:203E4C00ADFB0146182007F0B9F809F029FA80B200902C4840F2FF3200232C2105F0BAFCB7
:203E6C000AF0D6F801461C2007F0A8F809F00AFA0146142007F0A2F809F02AFD01461020B4
:203E8C0007F09CF8204603F00FFA01460C2007F095F8204609F004FD1B4D400040F02000DA
:203EAC002870204609F008FD40F010002870204608F0FAFF0146282007F080F8204609F06E
:203ECC0013FD400040F06000E870204609F018FDC00040F0800005F8080C204609F01CFD31
:203EEC00800040F47C40A5F89300204608F030F80146082007F062F84FF48000A5F209115C
:203F0C00086038BD00A00C4049A10C402DE9F84304460AF067FA81462D48021992F8ED1042
:203F2C00491ECFB2002F82F8ED704BD12B4D05EB84052E78698836F07F0788461AD1F10984
:203F4C0011D24FF08054D4F8B801806901464046884704F5DC742068406B0146404688473D
:203F6C000228F8D121E000EB8800D0F80011002088471AE04FF08054D4F8B801006A0146C3
:203F8C0040468847D4F8B801806A014640468847D4F8B801006B01464046884701210D4AB0
:203FAC000D48116001688908FCD306F03F003F2801D0FFF7ABFF687800F03F003F2801D012
:203FCC00FFF7A4FF48460AF04AFBBDE8F883C046341900202820086028200840ACE8000008
:203FEC002DE9F04106460AF0FDF92D4D8046A91991F8ED00421C002881F8ED204AD1294C1E
:20400C0004EB8604277807F03F003F2801D0FFF7E7FF607800F03F003F2801D0FFF7E0FF1E
:20402C00668837F07F001AD1F80911D24FF08054D4F8B801406901463046884704F5DC74FB
:20404C002068406B0146304688470128F8D121E005EB8605D5F80011012088471AE04FF020
:20406C008054D4F8B801C069014630468847D4F8B801406A014630468847D4F8B801C06ABC
:20408C000146304688470121074A0848116001688908FCD340460AF0E2FABDE8F081C04613
:2040AC0034190020ACE8000028200860282008402DE9F84F0D46064628687468D6F80880F5
:2040CC00002855D00AF08EF9D4F8881021B10AF0C6FA032028744BE001272F74C4F88850CD
:2040EC000AF0BDFA94F8A40038B194F88D202249D4F89C00114307F0BFFAD5F804A00AF06F
:20410C0071F904F1D80999F80030834653B91AF0704F02D1042007F0DFFA022007F0DCFA3E
:20412C0089F8007058460AF09AFAD8F80010486840F0020048603046294600F051F9D8F8FD
:20414C000010486940F001004861207830B9616804F16C05284600F077F810B13846BDE857
:20416C00F88F3046FFF73CFB2846002100F06CF80020BDE8F88FC04600000680294A2DE9C5
:20418C00F04180460126284816600768002FFCD0294C2A4FC020443C206007F1080001686E
:2041AC002348890804D20168090C41F0F00100E072211E4D85F854120021116387683846BE
:2041CC0002F09EFC40463946FFF736FE1C48B038816D40F20F226FF31F418A4212D9016899
:2041EC000068C1F30363C0F3034003B15B1E072805D006280EBF0720801C00F00F0043EA20
:20420C00001028703846FEF739FD0E4814380068C1680220884740202060064F3E60BDE8A5
:20422C00F081C046101009409402224302600840AC3F00509404604244600C40A83F005051
:20424C006C130050B40100102DE9F0410D460646B5F1FF3FADF1380D09D045B12B496B461D
:20426C0005A82A4608F076FB05A9022001E0002103200391264F8DF8100038682024EFF353
:20428C001188371884F31188708980BB002D04BF88F31188002036D009F05AFF06460AF024
:2042AC00EFF80290C0F818D007F076F8384669460AF0C8F89DF810000025022802D103982B
:2042CC0003F0D8FA88F31188304608F057FBEFF3118384F31188039810B10AF004FA0395C7
:2042EC000298856183F311889DF810000BE07089401E7081039818B10AF0F5F9002003904C
:20430C0088F3118801200EB0BDE8F0811DC2000028F200002DE9F04115460446A869A06092
:20432C00686A98460E4608B92A4800686062286A002806BF28480768071C0AF05FF8EB69EA
:20434C00A3B9002808BF391C03D03F1841427F1E39400246E161606AE169434603F0B2F82A
:20436C002062206AB8B90120BDE8F081002804BF2362391C0BD01B1841425B1E01EA0300C0
:20438C0020623F1AE869C019E061E0690140E1614FF0FF306062A6622869E06268692063A0
:2043AC00A86A6063A88DA087A08F012803D10B49C868401CC8602046414602F029FA034641
:2043CC00404609F093F8002814BFD81C0020BDE8F081C0463CF2000040F2000028220020D2
:2043EC00F8B58C4645688468DCF8007095F88C10B8B288401FFA80FE2068B0F1804F14BF98
:20440C00244B254BDCF80820244832B995F88C108E00815905F1A60207E095F88C108E0091
:20442C00811951F8081C7244521E99605A6021683A0143F6F077103A0831174019609A68D7
:20444C003A439A602368B3F1804F14BF144A154ADCF804C0BCF1000F04BF805904F10E0652
:20446C0005D0801950F8100C0EEB0C06761E9060166051609068074397602169D5F8A06018
:20448C0060690843716809688862586A40F003005862F8BD0005002030040020D4E900002E
:2044AC001005002040040020042998B54DD1274C04F124000AF0F5F840B994F8A3004008DC
:2044CC0038BFE06804D3D4F8880000E0C068E06041681F4A097811604168126809789142A3
:2044EC0006D0876927B120A20CCA6FF0FF01B847022007F0F1F81120FFF772FD0120E07112
:20450C00E068011D007C10B16079012804D00E20FFF766FDE168091D08680E4908300768B2
:20452C000FB947681FB10020C8610B4F0F600B4A40F2FF7000271060094C8F6109484C6146
:20454C0009F0BAFE192005F049FC98BD10140020D021084000100440510007060000046043
:20456C0002000040F52F000000000000000000021EF0040F14BFEFF3098169468869EFF3E5
:20458C00118102B400B5DFF89CE0F047284A116801EA000010605DF804EB1EF0080F03D105
:2045AC0001BC80F31188704704BC1EF0040F14BFEFF309816946A1F1200114BF81F3098815
:2045CC008D464A604FF08070C8611A488861184B1868086040F201101860704702B401B487
:2045EC00EFF3148100291CBF002282F3148802B402B4DFF834E0F04701BC01BC00281CBFF6
:20460C00022181F3148801BCDFF820E0F04704484FF08051016001BC80F3118800BF00BF8C
:20462C0004ED00E0358D0000B7E5000065E60000C0220020E94500002DE9F8430646B0680F
:20464C000D4600F1080874686868002710B9E868002850D02078012814D109F0C3FED4F89A
:20466C00BC1049B1D4F8C0108D61C4F8C05009F0F6FF0120BDE8F883C4F8BC50C4F8C0504F
:20468C0009F0EDFF022007F027F804F160004FF0FF318146FFF7D8FDD8F8000005F07CFB5F
:2046AC003046294601F03AFC0546D8F8000005F095FB207888B9B5F1FF3F08D004F17C003C
:2046CC004FF0FF31FFF7C0FD207A48B110E003202072022006F0E8FF0AE0B5F1FF3F01D0D6
:2046EC00012705E00320207204F12C0005F098FB484603F0F1F93846BDE8F8832DE9FE4FD7
:20470C000CAF3C8881460D4608469846164601A907F0AAFD012808BF01204DD0BDF804003D
:20472C00DFF898A042F6021100274FF0FF0B401A2ED048F2FF01401A32D0401E14D0401E15
:20474C0024D10CBBB8F1010F1CD130781E2809DBE9680870E9685646701C884220D14FF0DD
:20476C00020B20E080271BE074B9B8F1010F09D13078E9680870E96856468E4210D14FF070
:20478C00010B10E00D270BE00B2709E00A2707E00094484643462946324604F089FF074664
:2047AC00BBF1FF0F07D05046001D006818B1016809B1584688473846BDE8FE8F401E0020BA
:2047CC002DE9FE4F0CAF3D8881460E4608469846144601A907F048FD012808BF01204DD035
:2047EC00BDF80400DFF898A042F6021100274FF0FF0B401A2ED048F27F11401A32D0401E4E
:20480C0013D0401E24D10DBBB8F1010F1CD120780A2808DBF1680870F16855468D4221D1B5
:20482C004FF0020B21E080271CE07DB9B8F1020F0AD1F06821880180F1685546681C8842ED
:20484C0010D14FF0010B10E00D270BE00B2709E00A2707E00095484643463146224604F05F
:20486C0027FF0746BBF1FF0F07D05046001D006818B1016809B1584688473846BDE8FE8F04
:20488C00501B00202DE9FE4F0CAF3C8881460D4608469846164601A907F0E6FC012808BF8A
:2048AC0001204DD0BDF80400DFF898A042F6021100274FF0FF0B401A2ED048F26F11401ABF
:2048CC0032D0401E14D0401E24D10CBBB8F1010F1CD130780A2809DBE9680870E968564654
:2048EC00701C884220D14FF0020B20E080271BE074B9B8F1010F09D13078E9680870E968F5
:20490C0056468E4210D14FF0010B10E00D270BE00B2709E00A2707E0009448464346294697
:20492C00324604F0C5FE0746BBF1FF0F07D05046001D006818B1016809B15846884738466C
:20494C00BDE8FE8FD01E00202DE9FE4F0CAF3C8881460D4608469846164601A907F084FC66
:20496C00012808BF01204DD0BDF80400DFF898A042F6021100274FF0FF0B401A2ED048F2E8
:20498C003F11401A32D0401E14D0801E24D10CBBB8F1010F1CD130780A2809DBE968087096
:2049AC00E9685646701C884220D14FF0020B20E080271BE074B9B8F1010F09D13078E96810
:2049CC000870E96856468E4210D14FF0010B10E00D270BE00B2709E00A2707E00094484606
:2049EC0043462946324604F063FE0746BBF1FF0F07D05046001D006818B1016809B1584663
:204A0C0088473846BDE8FE8F8C1C00202DE9FE4F0CAF3C8881460D4608469846164601A915
:204A2C0007F022FC012808BF01204DD0BDF80400DFF898A042F6021100274FF0FF0B401A4A
:204A4C002ED048F21F11401A32D0401E14D0401E24D10CBBB8F1010F1CD130780A2809DBC6
:204A6C00E9680870E9685646701C884220D14FF0020B20E080271BE074B9B8F1010F09D17F
:204A8C003078E9680870E96856468E4210D14FF0010B10E00D270BE00B2709E00A2707E06E
:204AAC000094484643462946324604F001FE0746BBF1FF0F07D05046001D006818B101683A
:204ACC0009B1584688473846BDE8FE8FB01D0020F8B509F087FC2A4C0746103CD4F89C0066
:204AEC0010F4602F2BD0D4F89C00400CC5B2680807D2A80803D2E80828BF022502E001251D
:204B0C0000E000256E1D70B204F0BAF8D4F89C3005F111010120884023EA00013846C4F860
:204B2C009C1009F09CFD04EB8500D0F88C704FB1D4F8880013A20CCA3146B84702E038463E
:204B4C0009F08DFDD4F89C0020B104F1FC00002109F04AF894F8A30080080FD3D4F89870D3
:204B6C0037B1D4F8880009A20CCA6FF00101B84794F8A30000F0FD0084F8A300F8BDC04616
:204B8C0020140020000000000000000800000000000000802DE9F0412D4C0546A41C2078CA
:204BAC001F4690460E46ADF1380D012803D0FEF705FF012020705EB1B8F1000F6E6007D065
:204BCC00C5F8088009F00EFC617819B109F047FD002038E0491CC9B2617009F040FD01245D
:204BEC001FB9684609F0ECF86F46386828607868E860387A2874F8686861386900B1A8616F
:204C0C000021782205F1200001F040FF05A800212422082309F01CFC8DF82C4005F1380018
:204C2C00002105AA06F0C0FE05A800212422082309F0F6FB05490B9505F17000002205AB95
:204C4C0006F05CFB28460EB0BDE8F081FFE50000101400201CB52D4C401E02D0401E44D0A5
:204C6C001CBD09F0A1FB400931D32089FF2831D00120694606F0B8FCBDF8000010F07F0FDF
:204C8C0018D0BDF800002081022003F079F809F0B5F8A8B11E48006841F28831B1FBF0F0FF
:204CAC0002F05EFA05F0CCFCBDF8001041EA0020208105E0BDF800002081002003F060F88A
:204CCC0004F108020120022103F0A8FC07E0FF20083420800120FF21022208F075F9002021
:204CEC001222014608F070F91CBD02200DF1020106F07AFC9DF802002346410001EBC00176
:204D0C00D98003F1280003F0E9FE1CBD442100201CF200002DE9FC470AAF3F8882460C46D9
:204D2C0008469946154601A907F09EFA012808BF01204AD0BDF80400DFF8948042F602118C
:204D4C00FF26401A2ED048F26311401A012827D827BBB9F1010F1FD1BDF804104AF666207F
:204D6C000027884202D12978032913DA2978E2681170BDF80410884205D0E168404688423C
:204D8C0018D13E4618E0E1684046401C884211D1012611E080270DE00D270BE00B2709E0E5
:204DAC000A2707E0009750464B4621462A4604F07FFC0746FF2E07D04046001D006818B1A6
:204DCC00016809B1304688473846BDE8FC87C04640200020F8B509F0B1FA09F0BBFA0446EA
:204DEC0004F00C000C2845D0E0081ED207F0E4F9234E376805460120014608F0B3F93168B2
:204E0C006943884211D21F4C8220B0FBF7F0291A204609F06CFC204608F058FF0120FCF7BB
:204E2C002DFD204608F040F925E0200922D21648610939BF016821F00101016841F00101AB
:204E4C0002460160D2F898004FF0805440F00300C2F89800D4F8B8018069014620208847DF
:204E6C00D4F8B801094C806B2168804701202060206800E030BF09F067FA02F0C3FBF8BD5A
:204E8C001CF20000401900208C2108402C2009402DE9FF4707F01AFB2A4C4FF0FF3104F1B3
:204EAC000C0000F0A7FC2448244D066824484FF47A77B5FBF6F8B0FBF6F938E0012007F0F4
:204ECC0031FC404602F04CF902A805F05FFB8246002007F027FCBAF1000F1CD002A801A9E7
:204EEC006A46FEF789FB9DF805308DF809309DF804208DF808209DF806008DF80A009DF8D0
:204F0C0002108DF80D109DF801308DF80C309DF800208DF80B200020062102AA02F0C0FF41
:204F2C0060887843401BB0FBF6F002F019F960780128C3D04846F8E71CF20000803801000A
:204F4C0040420F00F40B0020F8B50D46EEB2290824BF26494D40264BB400195985EA0102DC
:204F6C000240C2F3006C234A00EA05078143FF323A4000F4E0270A43B7F5E02F01D1510EBC
:204F8C0015D300F4E0215CEA010710D002F4E027B7F5A02707D0B7F5803704BF22F4003245
:204FAC0042F4A02203E022F4803242F4C0221A51114CC10D04D3A4F18001C5F380528A553E
:204FCC00000E11D309F00EFA290E03D201210022B14002E00121B1400A46503423688B436F
:204FEC001A43226009F03BFBF8BDC046006000A000100840007F077F802002407FB504F075
:20500C0097FF041C46D04FF4802010216A4603F05AFF041C38D00098204E410F01D0864291
:20502C0000D200241E4901981F4D814204D829465639814202D226E0000B24D124B3194890
:20504C0010216A4603F03FFF041C1DD00098410F01D0864200D200240198010B13D02946B7
:20506C00814210D384B103F063FD104D064610214FF4F4202A4603F026FF28880024B04277
:20508C0008BF012404E000244FF4F42002F036FF06F032FA204600907FBDC04600500020C8
:2050AC0001F0010010100400FFFF01006831002070B5294C294D012806D028BB214600209D
:2050CC00491C08F037FE1FE02146012008F032FE0878022811D0491C002005F055FF28689A
:2050EC000A210022064605F09DFF002230460F2105F098FF07F03EFB06E009F055F9487011
:20510C00491C002005F040FF21460878012822D1286861780546490834BF002201220A215F
:20512C0005F080FF6078800834BF0022012228460F2105F077FF6078C00802D207F01AFBCE
:20514C0004E0284605F0B8FA05F0D4FA6078000901D302F0F3FA70BD542500202C050020DC
:20516C00B0B5294C6078410809D320F0010060700A20014604F066FD04F0FAFF6078234D6E
:20518C00810807D320F002002F786070062F01D103F020FB2078A178884232D007F086FA0E
:2051AC00A7782078790803D341083CBF0021A180B90803D381083CBF0021E18029780229E6
:2051CC0003D108F045FCA7782078B90808D3810806D22978062903D003F0FCFAA7782078BF
:2051EC0010F0030F0DD067B904F10800054608F03FFF28B9284609F056FA0020E080A080DE
:20520C002078A070B0BDC046C4230020200500202DE9F0410E46294990461C4606AF8C464F
:20522C0072680878BB8851783F881278002502EB012242F62321521A29D0521E052A18D905
:20524C00921F0CD0263A34D1072F30D8C7F10700984298BF83B2674407F1080121E0B84246
:20526C0025DBC01B9842D8BF83B22380DCF804000BE0F06808F012FE80B2B84217DBC01BE2
:20528C009842D8BF83B22380F06839180AE0082F0DD8C7F10800984298BF83B207EB0C01E5
:2052AC000F31238040461A4600F0DEFB03E0072501E025800A252846BDE8F0814016002092
:2052CC002DE9FC4707F0DAF8274E0024B4704FF6FF70B08205F08CFC244F224630700120E4
:2052EC0039461346009006F1A80004F0D7F84FF00208224606F1CC003946CDF80080134647
:20530C0004F0CCF80425224606F1F00039460095134604F0C3F806F14809102248462146C6
:20532C00F57001F0B3FB06F1580A10225046214601F0ACFB06F120073C60347207207472D0
:20534C001021B0724A46F472404605F06FFF03201021524605F06AFF28463A46014605F09B
:20536C0065FFBDE8FC87C046D8080020BDDA000038B504464A78284D087800EB0220ADF858
:20538C0000006A88BDF8000090423AD1BDF80000891C000108F0F6FC6888AB88401C81B286
:2053AC0069808B4229D103F07FFEE0B12046002102F056FC07F0D0FB29780843287006F029
:2053CC0033FA08F059F990B12878410805D3AB692146032000229847287810F0060F06D01E
:2053EC0008F02EFE03E02046012102F039FC00242C7008F09DFA6C8038BD204602F064FE01
:20540C0038BD00206880287008F092FA2046032102F026FC38BDC04614180020FEB5FCF7DC
:20542C003DFD274C002504F1880607F00FFF00282FD1009501A80DF106016A4606F071FB89
:20544C00D0B9BDF80400102807D160789DF80610884202D1009808F0A1FF009860B108F0FD
:20546C00BFF909E0206908F0ADF8071C04D007F079FF384608F060F9206908F007FF002875
:20548C00F0D0FFF76DFE07F043FBFEF72FF908F0C9FCA088C1080FD320F004002778A0802A
:2054AC00022F09D1304609F0FEF82078022803D10F20012104F0C6FB04F07AFEB5E7C046C6
:2054CC00200500202DE9F84F804608781C4616460AAF022831D02348DFF88C90D1F804B05B
:2054EC008569102282464946584607F01BFC002740B9002D33D08AF801400120414632464A
:20550C00A8472CE009F110015846102207F00AFC10B925B30220F1E709F120015846102226
:20552C0007F000FC90B9012C05D13078002818BF8AF80A0013D1802711E04868427800788F
:20554C0042F6021500EB0220854201D00A2706E0388832460090404604F0AAF80746384685
:20556C00BDE8F88F141800206CE80000264838B550380468B4F1FF3F08BF002408F0F8FB4B
:20558C0022481749002510380560012008601549086003F039FD1448006820B11348006893
:2055AC002046FEF7EBFD124812490560124C0A686FF35B4244EA0200086010490868C0F39F
:2055CC000130012806D10A680D48104040F400320A6008600B4908680028FCD138BDC0468B
:2055EC005C600C400822044380012843000120438C210840482003400000390104000940AF
:20560C00FFFFFCFC0C0068426C130050940460422DE9FE4F0CAF3D8881468B460846984622
:20562C00144601A906F020FE012808BF01203DD0BDF80400DFF878A042F602110026FF27E9
:20564C00401A21D04AF2C031401A0BD0401E19D1B5B9B8F1010F11D12078DBF80C10022790
:20566C0008701BE065B9B8F1080F07D12168656850460E300160012745600FE00D260BE090
:20568C000B2609E00A2607E00095484643465946224604F00DF80646FF2F06D050460068D3
:2056AC0018B1016809B1384688473046BDE8FE8FF41B0020B0B501468B681C68E2694868B0
:2056CC002262520824D2D0F8A01049680A685D69D2F80415294206D01C68616A21F0020102
:2056EC006162C2F80455D2F8042519690A4230D01A68516A21F001015162D0F8A0205268C2
:20570C00196912683830C2F8041504F089FBB0BD1C68626922F001026261D0F88870AFB912
:20572C00626822F0020262601C68626A22F003026262D0F8A0005A6940681C69006822436B
:20574C00C0F80425084606F0C5FFB0BD0846FEF747F8B0BDF0B520480127F84201D003F0C5
:20576C0035FF204D204F214EBD4206D203CD0478A4003459401CA047F6E71D48002800D0CD
:20578C008047164D164FBD4202D210CDA047FAE7F0BD03251BE0416808300A1C2A400BD1D9
:2057AC001A1C2A40AB4305D0046804300C600431043BF9D1131C05D0047801300C700131D1
:2057CC00013BF9D1021C2A4001D0A84304300368002BE0D17047C046FFFFFFFF000000003F
:2057EC000000000054FE000084FE00004CFE0000A59100002DE9F0470F46064608F0A8FCBF
:20580C00EFF311898246202080F31188D6F80880474533D01D481E4B0468002F05D49C69C0
:20582C000125BD4004EBC70401E0E4180025307D01281AD1304608F030FD306C08F026FD6A
:20584C0018B1F1685868884358601869864204D02046314608F0F6FD04E020685C61314652
:20586C0008F04BFF586828435860B760F5603464002F44BF002058610120188189F3118819
:20588C00504607F07BF84046BDE8F08730F20000282200202DE9FF41244D8046681C007845
:2058AC000E46082814BF04240024084604F0C0FB684601F0DBFEA4190026E178A0786E8082
:2058CC0000EB01202E7080106946A880204602F0CDFB18B3204608F09AFCE861000BE88010
:2058EC0008F032F8A8B1E888A988C4B200EB2120C7B2A74208DB3F1B7F1C204608F06DFEDB
:20590C00641CE4B27F1EF8D14046314602F0DCFB08E04046022102F0A3F903E04046694602
:20592C0001F02AF90090BDE8FF81C04614180020B0B5244C2278E1889308084603D3491C44
:20594C00401CE18080B2A18852080F4603D3491C7F1CA180BFB2062F11DB06280FDB04F1DE
:20596C000800054608F084FB58B3284608F09DFE0020A080E080607840F001001CE0032875
:20598C000BDA38431DD104F10800044608F070FBB8B1204608F089FEB0BD97B904F10800FB
:2059AC00054608F065FB60B1284608F07EFE0020E080607840F0020060700348006802F046
:2059CC008BF8B0BDC42300202805002010B50020442101F055FB002808BF002440D0214C5C
:2059EC001F200222214608F020FC002835D021880806000C40EA2120782815D1102020800C
:205A0C0021460220024606F011FB30B302202146024608F00AFC00B321880806000C40EA55
:205A2C002120B0F5805F01D0208016E00020208021460220024606F0F9FA70B1022021460A
:205A4C00024608F0F2FB40B121880806000C50EA2120208008BF012400D0002408F08CFCDE
:205A6C00204610BDEC340020002A4AD05FEA000C8B071CD1830722D1102A08D370B4103A8F
:205A8C0078C978C0103AFBD270BC103238D0042A2CD3082A05D30C2A24BF08C908C008C93A
:205AAC0008C008C908C092072AD0920F22E00B780370491C401C521E22D08B07F7D1C30706
:205ACC0014D18307D8D0121F12D308C903801B0C4380001D121FF8D20AE008C903701B0AE4
:205AEC0043701B0A83701B0AC370001D121FF4D2121D05D00B780370491C401C521EF9D16E
:205B0C00604670472DE9F843224D884606464FF0FF3105F124008146FEF796FB00200CE060
:205B2C00FF2909D02A688A4204D905EB8101D1F894700FB1002627E0401CB8F1000F03D00A
:205B4C0018F82010FE29EBD10024346074600127B46011E0FF280ED005EB80000B7872688B
:205B6C00C0F8946007FA03F0104370600A680A49304606F019FA641CB8F1000F04D008EB13
:205B8C0084010878FE28E5D1484601F0A5FF3046BDE8F88358300020007FC7672DE9F843B9
:205BAC002020EFF3118780F31188214CA068012108F091FD4FF001094FF00008656921680F
:205BCC00A4F81C906A1A2168A4F81E80461B401A904227D387F3118840464519361A4846CE
:205BEC00294601F07DF8B042F7D92021EFF3118781F31188E18B012903D14046294601F0EA
:205C0C006FF8B0F1FF3F06D0A169801B814238BF081C411901E0A069291807F013FCA4F8B2
:205C2C0020902560A4F81C8087F31188BDE8F8831C2400201CB50020772101F021FA00289B
:205C4C0008BF00243FD0D0206946012208F0EDFA002835D09DF80000582831D1F520694695
:205C6C00012208F0E2FA00282AD09DF8000038BB55208DF8000069460122F42006F0D6F9D2
:205C8C00F0B1F4206946012208F0CFFAC0B19DF80000552814D1B6208DF80000694601221B
:205CAC00E02006F0C3F958B1F4206946012208F0BCFA28B19DF80000002808BF012400D037
:205CCC00002408F059FB20461CBD70472DE9FE4F8046B8F1000F01920C9802919B46009036
:205CEC0005D0081C03D0101C01D0009810B90220BDE8FE8F1948017800252C4629E0A00000
:205D0C0038F800A04FF6FF7708EB000657451CD0B778D7B10198029A594608F004F95FEAA2
:205D2C00000912D0780806D3009B504601214A4601F05CFB0543B078800806D33088009BC4
:205D4C0002214A4601F052FB054304480178641CE4B2A142D3DC2846BDE8FE8FD8080020F1
:205D6C00F8B50F4601464C688E683846203804F10C0432D0401E2CD0401E27D12078157872
:205D8C00012814BF19491A49FF2D41EA05011BD0D4F8900001F03CFE98B93068B0F1804F0E
:205DAC0014BF23220B22D4F89000294606F0E6F8D4F8900094F8811002F088FC84F88150B7
:205DCC0012E04FF0FF30F8BDFF25F1E76FF00100F8BD002084F89800F8BD217800200129C5
:205DEC0008BF012084F898000020F8BD0004C0A00020008038B5234D401E02D0401E30D0D7
:205E0C0038BD08F0D1FAC00823D32C78FF2C22D00120694607F058F89DF8000068B9A4B11D
:205E2C0005F1080008F041FC002005F0BFFE00200222014607F060FE07E034B9012005F087
:205E4C00B5FE05F1080008F02EFC9DF80000287038BDFF2028700120FF21024607F04CFEC0
:205E6C0038BD0220694607F02FF89DF800002C46410001EBC001618004F1080002F02EFE41
:205E8C0038BDC046F0230020FEB5044622481646089FC069618250F821201C4800681D469A
:205EAC0090420DD01B480068009000220191184E029231888F23384607F026FB0120FEBD41
:205ECC00084603F069FFA66068696060286AB0F1FF3F08BFFF2020740026E660288B002844
:205EEC000EBF301C0120E0600146A88C10B141F00200E060204602F099FC0346384607F0C2
:205F0C00F5FA002814BFD81C301CFEBD08F20000A8F20000F4F10000A022002080B5406858
:205F2C0000F10802C0F8A8100868C2F8A4004868C2F8A8008868C2F8AC00C8681A49C2F867
:205F4C00B000D2F8A87097B9D2F8A000007C400040F0010041F8040C022010700B68DB09BA
:205F6C0017D2D2F8B020022A17D30B2216E0D2F8A000007C0127400041F8040CD2F8A40054
:205F8C001770431CC2F8A430007848600868C00902D34FF0FF3080BD022003220A6008F0FF
:205FAC0019FB002080BDC0460428004022482DE9FE4F801E028880465FFA92F1100100F456
:205FCC007042801A1FFA80FBB8F80200C5B241185FFA81FA0021AA45019124DBAAEB05063E
:205FEC00761CA8420CBF04240024AA45D8BFA34513DD284621466A4608F084FA0427E9464F
:20600C0019F8011B019805F0DFFB7F1E0190F7D1241DA4B2B4F5805FE7DBB8F802006D1CCD
:20602C00761EEDB2DDD10198002105F0CDFB002105F0CAFBBDE8FE8F1A1800202DE99843AC
:20604C0008F0D0F91F4CDFF87880814604F1E000007850B94446A068014602208847074605
:20606C00102003F06BFC2FB320E001F0A3FF002820460FD1144909683222B2FBF1F101B93C
:20608C00012100F13004204608F031FB204607F01DFE0FE044460022A16880F8E02002206D
:2060AC0088470746102003F049FC1FB1A068014603208847484608F0D2FABDE89883C04627
:2060CC004CF00000341900201CF20000F8B50D461F4C20490728164638D8DFE800F0192C92
:2060EC002A2826242104284606F07EFE071C2DD0616804F11700884202D0606807F040FB68
:20610C00384631462A46FFF7AFFC67602570F8BD082D1BD130680F34206077686760F8BD85
:20612C000C46153408E00C4606E0643404E04F3402E03A3400E0253420460021152200F062
:20614C00A5FC204631462A46FFF78EFCF8BDC04640160020B91600202DE9F0410746786831
:20616C00051DD0F8BC00A8B308F03CF91A4E00248046F46004203060022008F02BFA2B68B9
:20618C00D5F8A410384622469847022005F08CFA09E081692B6822463846C5F8B810984760
:2061AC00022005F081FAD5F8B800D5F8BC108142EFD12046C5F8A4002C71C5F8B800C5F80A
:2061CC00BC00064B346038461C6003F0BBFA404608F045FABDE8F0810428004010040542D6
:2061EC0070B51E4DAC68064607F02AFB4FF47A71001B4843030C06F0E1F92969401A48BFE1
:20620C00404240F6B8319B19994210D306280EDAE9688C420BD8286848B1114A091B5143AB
:20622C008A0C02EB1141884288BF011C08E00D49486840080ED208687D2100F0FF004143B8
:20624C00C82905D3B1F57A6F88BF4FF47A6103E0C82101E04FF4FA61084670BDD03400208B
:20626C0040420F00AC3F00501CB5204C401E02D0401E2ED01CBD08F097F800091DD360784C
:20628C00FF281DD00120694606F0B2FB9DF8000030B19DF80000012817D10121617007E075
:2062AC00002006226070014607F00EFC4FF0FF3104F10C00FFF79EFA07E0FF20641C20705E
:2062CC000120FF21024607F0FFFB002006F02AFA1CBD0220694606F08BFB9DF80010A41C73
:2062EC00480000EBC10020801CBDC046F40B00201FB5204C002834D0012822D0022837D147
:20630C00022002A904F0DCFE21467E209DF80920C8619DF808404A76052C0C7614BF0220A5
:20632C0004208876887E01F11C048DF8080021680DF1090302AA01201960052104F0EAF8B5
:20634C0016E00120694604F0BBFE9DF8000021460DF10102144601F11C0388762168196056
:20636C0006E021460020203104F0AAFE03F076FB00901FBDD42200202DE9FC4108AF388807
:20638C001D4690460E46002818BF0B2033D10846694605F069FF012804D1002028800120F5
:2063AC00BDE8FC81BDF800004AF601410024401A16D0401E0BD0401E1CBF2C800A2419D1DE
:2063CC0002202880F06800884146088012E005202880F068026841460A600079087109E0AB
:2063EC0006F0A8FB0548083002782A80F1684046FFF73AFB2046BDE8FC81C046201D00205A
:20640C00F8B5001D84B214F0030002D0241A241DA4B207F0B0F801461948102C476801602F
:20642C00C8BF8768388800221646C30BDD0319D126B984420ADD3A46012617E01388C31864
:20644C009BB29C42138011DC174618469FB1001B80B20428B4BF3C88385344F400443C8007
:20646C003F1D08E080F40040002680B2C71938880028DAD10027084607F0FCFB3846F8BDB7
:20648C00541A0020B0B50446A768ADF1280D27BB0C20FFF7B5FF071C16D0684600212422FB
:2064AC00082307F0BDFF002306976A466168ADF810301448059304F00BFC386038B907F065
:2064CC00CEFB384605F0FAFB6FF0030018E0E06878602069B860A7600AE007F04CF80546ED
:2064EC00386806F0E1FD2069B860284607F0C2FB3868616808F0FBF8386807F0E7FB00206C
:20650C000AB0B0BD0DE30000B0B514460F4607F069FF85B219480068007808B906F04CFF6B
:20652C0087B1384605F0CBFE40B114B14FF0FF3020700820FDF7EAFC002419E03868796887
:20654C00BA6803E04FF480700122014605F07CF80B49012008600B4908684008FCD30A481A
:20656C0000684168022088470CB1002121700446284608F074F82046B0BDC0465CF000005D
:20658C00A802504208800240CC010010F8B51F4C0546207E012802D9401F1FD023E001288D
:2065AC0003D107F02BFC061C0DD0207E617E00F067FD061C07D0207FA27E294607F035FEBC
:2065CC00064607F0D9FE012E0DD0FF210020A27E824208DD2954401CC0B2F8E7E169A27EEC
:2065EC002846FFF741FAA67E241D28463246214606F098FB002700B1012727B12046294608
:20660C003246FFF731FA3846F8BDC046D4220020F8B50E46044607F083FD0546304605F00E
:20662C009FFD071C03D1284604F09CFE26E0F87F10F0070F1BD113487968884202D0796887
:20664C002166786010A090E8060004F15807284687E8060004F086FE04F138004FF0FF3156
:20666C00FDF7F2FD04F1680696E80300F8BD284604F078FEF87F10F0070FFBD1022000211E
:20668C00F8BDC0460591000002000000000000701CB51E4C401E02D0401E2BD01CBD07F097
:2066AC0083FE40081AD36078FF281AD00120694606F0CAFB9DF8000038B900200422014691
:2066CC0007F026FA4FF0FF3100E0012104F10C00FFF790F89DF80000607007E0FF20641CBC
:2066EC0020700120FF21024607F012FA002003F07FFD1CBD0220694606F0A6FB9DF80010FD
:20670C00A41C480000EBC10020801CBD5C11002070B507F073FB002832D003F0F9FA88B3DE
:20672C0001200C2100F0ACFC60B3184C0F20211D012208700E460A2005F078FC124800683F
:20674C0042F21071B1FBF0F000F00AFD1020032204F10E0107F069FD06F10A0550B1287898
:20676C006B78AA788030208103F18000608102F18000A08101220B203146227105F056FC2F
:20678C0007F0FAFD70BDC0461CF200006C220020B0B517491C481D4A0F68C0691549C2F8C8
:2067AC00080DD2F8083D99420ED06FB1124B1B6800240F2C2CBF1D1C0D68091D641C0560ED
:2067CC007F1E00F10400F4D10D48D2F80C7D0B4D0168202427F47F4000EB01202918C2F8C8
:2067EC000C1D084B82F8224D1868C2F8140DB0BDF8F100001010000008F200000000FA055E
:20680C000CF2000000F20000A022002000E000E070B50D461B4A1A4904462B4605F00BFAE5
:20682C002061284606F062FE40BB184801220021A568036822751448A161002D18D4A168D9
:20684C008A408069A168E26007F0F0FD206407F07FFCEFF311850646202080F311882046DE
:20686C0007F0CEF985F31188304606F087F805E0E160C0182146206406F00EFE002070BD1A
:20688C00DDD4000093A900002822002030F20000F8B50E4605461446A969EA691F4620469D
:2068AC00FFF7E2F864602FB1EA6920463946082303F0F8F8E468D6B9E8686969AA68079B61
:2068CC0007F0F0FD071C08BF002020D007F0DEFD69683960696849687960696849680F6046
:2068EC0069684F6007F03CFC07F1080605E06A6930460021083A00F0C9F82868B0F1FF3F26
:20690C0018BF3060286908B1616831503046F8BD1CB51D4C401E02D0401E28D01CBD07F0B5
:20692C0043FD80081AD36078FF281AD00120694606F02AFA9DF8000038B9002004220146B0
:20694C0007F0CEF84FF0FF3100E0012104F10C00FEF750FF9DF8000060701CBDFF20641CDB
:20696C0020700120FF21024607F0BAF81CBD0220694606F009FA9DF80010A41C480000EB0E
:20698C00C10020801CBDC046A80E00201CB5042006F06AFC022818D0032816D0164800689B
:2069AC00C0F38150032814BF41F288324FF47A721248144C016854342046B2FBF1F107F096
:2069CC0096FE204607F082F91CBD03200C4C009000214FF040521C23204602F0FBFE0120B8
:2069EC0000214FF4007209230090204602F0F2FE022004F059FE1CBDB43F00501CF200001A
:206A0C0000A00C40341900202DE9F84305F086FD1A4D4FF0FF3105F10C00FEF7EBFE184832
:206A2C00144E154F04684FF47A79B6FBF4F81AE0012003F0DDFB404600F092FB0DF102005C
:206A4C00694600F0AFFE002003F0D2FB002004216A4601F0B7FD688809FB00F0801BB0FB3A
:206A6C00F4F000F07DFB68780128E1D0B7FBF4F0F7E7C0463832040040420F005C110020FE
:206A8C001CF20000002213460A46194671B510F0030F0BD0002A82BF00F8011BB2F101027A
:206AAC0010F0030FF6D1002A08BF71BD11F0FF0141EA0121042A18D341EA0141082A0FD3EA
:206ACC000E46102A08D30C460D46B2F10F0312F00F0272C0103BFCD812F0080F18BF42C091
:206AEC0012F0040F18BF40F8041B12F0020F18BF20F8021B12F0010F18BF017071BD7047E9
:206B0C000246184808B50068C0F3046007F071FB00EB2270401C162805DA10F10A0FB8BF9B
:206B2C006FF0090000E015200F49104B00F01F0040F4F85008801868800803D20C490020B4
:206B4C00086001E042F040620A49D00E930E80F0010000F00100086083F0010000F001000B
:206B6C00886008BDB81200506E6208400000094094042A4300002043FEB51C4D0C462D1FBF
:206B8C00E968064607F014FA40082CD330460821002206F023FB0746019727B32A4602F109
:206BAC0020001021083207F0BEF908254089ADF80250ADF8000022783A702188019809125D
:206BCC004170A17881706188231D0912C1701968051D30462960694606F0C0FC18B16846FF
:206BEC001B2106F009FB06F0A3FEFEBD1818002010B51C4C00202070FEF7E8FE18B1207898
:206C0C0040F00100207000F09DFE18B1207840F002002070FFF70EF818B1207840F0080064
:206C2C00207002F0E1FA18B1207840F00400207001F0A6FA18B1207840F01000207003F011
:206C4C0077FA18B1207840F02000207007F062F9002808BF207803D0207840F04000207032
:206C6C0010BDC046083500202DE9FF411B4C0E460546F03C7188E08A81420CDCB188814246
:206C8C0009DBF088218B884205D13089618B884208BF18271DD0052003F06AFB7788B38827
:206CAC00ADF80270F288ADF804303189ADF806208046ADF80810A08AADF80000684607F0E2
:206CCC000DFB071C05D1A57304F1F000414603F03BFF38460090BDE8FF81C046C8090020CC
:206CEC002DE9F04780461A481A4C00682418204607F001FD0E464FF0FF374FF0000A8146D5
:206D0C0021E04D46284607F0FAFC8146A88A012819D1B8F1010F0ED1E86886420BD128694F
:206D2C00002808BFA5F814A002D0E9684018E860A969E8698847A88A012804D1E868801BF7
:206D4C00874288BF071C4C45DBD13846BDE8F08718F200001C24002038B5054601201A4CF4
:206D6C0068712879B0B906F006FC2178002904BF6FF00704051C15D0491EC9B2217039B9D2
:206D8C0006F078FF606804F087FE0020687118E0054613E006F0EFFB05462078FF2805D14A
:206DAC006FF00604284606F065FF0BE0401CC0B20128207002D1606804F085FE284606F0AE
:206DCC0059FF0024204638BD4C25002070B50646B079F5680B28A5F108052CDA30790B2890
:206DEC0029DA06F0C8FB154CB27991000C3401EBC20161184968E1B106F03CFF3079287091
:206E0C00B0796870307AA870B179880000EBC1002018F1684068083005F042F8B1798800F3
:206E2C0000EBC10024186068406800F055FE002070BD06F01FFF6FF0020070BDC01A0020C2
:206E4C0038B519491A4C00204822C1F8F30F94F8E200C1F8FF2F20B3012817D0022807D0F3
:206E6C0003281ED151F8310C00F05EF80B2016E051F8315C2846FBF709F940F2FF50A8425C
:206E8C0002D8801CA842F1D2082008E051F8310C00F0D6FF054800780028E7D0052084F823
:206EAC00E400FBF783FB38BD39400C405AF00000341900202DE9FC411A4C4FF0050804F107
:206ECC001400002604F11C052860102284F8188004F120076676314666610420A07638469A
:206EEC00FFF7D4FD102130463A4603F013FBA07E8DF8000029680DF101006A460160012032
:206F0C00414603F007FB207E8DF80000607E6A468DF801000220014603F0FCFA05F00AFE63
:206F2C00BDE8FC81D422002038B51A4CA0F5C060D4F8B810C4F8D4000029B8BF494200288E
:206F4C00B8BF4042814220DAB4F8BC00124D30214FF47F4208230090284602F03BFCB4F855
:206F6C00C00004214FF4F80212230090284602F031FCB4F8D00020214FF440620A23009032
:206F8C00284602F027FC012000E0002084F8D80038BDC0463419002000A00C402DE9FC4146
:206FAC0017460E4605464FF0020802F093F918BB04F058FE00BB05F0FF04C4F58074B4428F
:206FCC0088BF341C8DF800808DF80350280C8DF80100280A8DF8020006F04CFF68460421AA
:206FEC0004F0DAFB361B651920B93846214604F0D3FB20B106F034FF0020BDE8FC8106F03B
:20700C002FFFE719002ED0D10120BDE8FC81FEE71A4898B5D0F8781203680F0F03F0FF03C0
:20702C00802B28BF002302F0B1FB4FF0FF3478B1401E07D0401E012802D9801E19D01AE03E
:20704C00BFB118E0381C12D0801E14D1143311E03846401E0BD0801E07D0001F03D0401E4F
:20706C0009D1163306E0152405E0142403E00A2401E00A335CB2204698BDC046A0100050A7
:20708C0070B50D461549194C134A09680646241F04F11400B2FBF1F1FDF7D6F8002808BF03
:2070AC00002017D00E4805700E4D20682978B1420CD02E7007F00DFA06F00EFB287801283B
:2070CC0004BF0948206105F0B7FC2060002100B10121084670BDC04620A107001CF200009C
:2070EC000535002004350020A6F20000243400202DE9F84305F0FEF9184D4FF0FF3105F1BA
:20710C000C00FEF777FB1348134F046843F698264FF47A79B6FBF4F816E004F071FF40461D
:20712C0000F01EF80DF10201684602F047FD002004216A4601F01AFA688809FB00F0801BDF
:20714C00B0FBF4F000F00CF868780128E5D0B7FBF4F0F7E71CF2000040420F00A80E0020F9
:20716C0070B5021CADF1380D2ED0184904A86B4605F0F0FB2024EFF3118504A8039084F3CF
:20718C00118806F0E5FF064607F07AF9029004F003F9039800F06EFB684607F06CFA02989F
:2071AC00C0F818D085F31188304605F0E7FBEFF3118384F31188039807F095FA0021039169
:2071CC0083F31188029881610EB070BD39D60000B0B5ADF1400D06F0BBFF044600213C2255
:2071EC000823684607F046F9114841680691816800680490104818380068002205900D48DA
:20720C000891694602F050FE071C0DD006F0B3F90546384602F084F830B1284606F02AFD95
:20722C00204605F0ABFB01E001F056FD10B0B0BD2CE70000EDDF0000601A0020F8B5174A68
:20724C00174B184C121D22F003019C4621605E1A2068256860606768A660002001E025F874
:20726C00020BAB42FBD84FF6FC75B3102A4001EB830323F8040CACEB0202E82315403B80FF
:20728C00EC3DA1F8E850E83144F8081CFFF7B8F844F8040C606844F8080CF8BD0A35002051
:2072AC0028420020601A002038B504461848174D001F02686B68C2F30351C2F303405B08E3
:2072CC0013D22B681D0511EB257103D41029A8BF0F2100E000211B0410EB237303D4102B0C
:2072EC00A8BF0F2300E00023184640EA011002F47F4102F0FF03222C41EA004143EA0100BB
:20730C0024BF02F08042104338BDC046AC3F00507C13005030B5401E4FF00004ADF12C0D05
:20732C000AD0401E04D0401E20D1FBF73FF91DE001F0F8F9044619E001A821462422082319
:20734C0007F06EF806940D4DADF8144009490794012201AB05F1780003F0D0FF064A234632
:20736C002C2105F19C00009303F0D2FA20460BB030BDC046CD7C00004D6E0000341900204B
:20738C0038B5184D1549686904F076F9FF20A87000242C7068216C700120FFF771FED0B19A
:2073AC0029468020012208716B20091D04F03EFE06F0E2FF0C480A490068B1FBF0F0FFF7CD
:2073CC00CFFE00F0DDFE041C05D002F019FCFFF79FF902F06DFF204638BDC0460700008039
:2073EC00A08601006C2200201CF20000F0B50E4615461C460746ADF11C0D4FF6FF7103AA72
:20740C0005F0ECFE0246059212B300200090BDF80C000DF1120329460190FF20029038462A
:20742C00A047041C0FD16889ADF81000700804D3384604A906F092F803E0384604A906F0B5
:20744C00A7FE041C05D004A81B2105F0D5FE00E01524204607B0F0BDF8B506AF38881D466E
:20746C0014460E46002818BF0B202AD10846694604F0FAFE012803D1002028800120F8BDA9
:20748C00BDF800004AF681210027401A12D0401E0AD0401E1CBF2F800A2711D101202880EA
:2074AC00F068007820700BE002202880F0680088208005E012222A80F1682046FEF7D4FAE6
:2074CC003846F8BD2DE9FF41984607460C461346404606F00BF8054613B906F0E9FF034684
:2074EC00002F12BF381C0F4800681A462146434607F026F8061C10D11DB9404605F0F6FFBF
:20750C0058B90A48006800900197074D0294298800223423404605F0F7FF30460090BDE83C
:20752C00FF81C04660F20000AEF2000048F200002DE9F041054615F8017B90460E461CE04C
:20754C00B8F1000F05F101050BD0FF2C09D8022015F8011B401E41EA0424F9D101E0042CAD
:20756C0002D315F8011B00E0394630462246FFF78DFAA61901E006F8010B15F8010B8742BB
:20758C00F9D115F8014B002CE9D115F8010B2C7800022418D4D1BDE8F081704701461848C2
:2075AC0080B5983000688A0CC0F38367C0F38F2022D241F3072100290BD54A420021400877
:2075CC0005D17F0806BF0127381C4FF6FF70521EF5D1002910DD4FF6FF72400040F00100DA
:2075EC00824207D2780040F001070F2F92BF01200F27101C491EF0D140EA074080BDC04644
:20760C00B8120050164880B507683FB315498B6803EA5300C00E21D2134A106880081DD2B2
:20762C00486880081AD21068096810F0050F4FEA114101F0F00101F5E0710AD1B9420DD2B4
:20764C00190F38BF40F00100D90E38BF40F0040003E0B94202D920F00500106080BDC0463B
:20766C0028500940AC3F0050000009401FB5044602F05EFC50B3164810300078022804D038
:20768C00032818BF4FF4F02001D14FF4F22010216A4601F018FC03F02FFFBDF806006080C0
:2076AC00BDF80400FF2808BF002002A920800968201D0160FF219DF80C30E1729DF80E2096
:2076CC006372BDF80C00A2720012207200901FBDF424002000B540F21630ADF1140D694611
:2076EC00FBF764FB40F213300DF10201FBF75EFB4FF4467001A9FBF759FB9DF800008DF869
:20770C000600BDF8000000128DF807009DF802008DF80800BDF8020000128DF809009DF8F4
:20772C0004008DF80A00BDF8040000128DF80B000DF1060004F03EFE05B000BDF8B502F00A
:20774C00F7FB60B3164E35680024C4F30C00002700B9012748B928460F21012203F062FC15
:20776C00284600220A2103F05DFC204600F0C6FB3068054647B10A21012203F053FC284606
:20778C0000220F2103F04EFC04F58054E00CDCD028460A21002203F045FC03F0ADFEF8BDA7
:2077AC002C05002070B505460C4600204421FFF767FC38B3144E04200222314606F035FD98
:2077CC00F0B131460A881006000C40EA22200880C00B15D38E1C01200222891C06F025FD7E
:2077EC0070B1B11C0320022206F01FFD31787078B378F27840EA0120288042EA032020802E
:20780C0006F0BAFD70BDC046EC34002070B50646880F26D302F024FE124806F04DFD134D2D
:20782C00A81C0078012803D006F1380000F054F90D4800240460022003F036FF1120FCF74D
:20784C0065FB307C10B90E20FCF760FB2846084A04721178447221B11470C830042106F0ED
:20786C00C3F970BDB54400000000046010140020F4340020B0B5184C0546208C002701281A
:20788C001BD1A08BC8B9A068012106F024FF2168421A23686169C91A91420ED30127A968F7
:2078AC00AA68AF824118E9606169091A914211D9E968104605F0C6FDB0BD5FB905F0E4FB75
:2078CC00A78BA968012F0844E8604FF00100A88208BFE083B0BDC0461C240020F8B570BB56
:2078EC00174C606848B3002080F31188202080F31188606863692669F825B0FA80F0A5EBF4
:20790C00C0001B1805E06369B0FA80F0A5EBC0001B189E4211D2184606F08EFD07461846CD
