:10100000FFFFFFFFFFFFFFFFFFFFFFFFFFFFFFFFF0
:2010100050420020A1AC00009DD700009DD700009DD700009DD700009DD700009DD7000009
:1C1030009DD700009DD700009DD700009DD700009DD700009DD7000079DD000096
:20104C002DE9F04FADF1740D07F096FDDB4C04F1200004F1640105F047FCD949E0600DF059
:20106C00BDFB4FF008080127DFF858B3ADF86080DBF80000ADF86270014618A888479DF819
:20108C00640060701A98A06004F12C000DF01FFB00264FF0040A04F180054FF47A72D749EA
:2010AC002061334600962846CDF804A008F082FB1F2039460AF016FF4FF44870ADF81800C3
:2010CC008DF82070B146ADF81E908DF81C9008AAADF81A803946ADF816906420ADF814007C
:2010EC0040F2053000F0DCFF40F2063002210DF11E0200F0D5FF4FF442701B2104F14602D7
:20110C0000F0CEFF1B9504F1380240F207300E2100F0C6FF4FF44470394607AA00F0C0FF04
:20112C0040F2113002210DF11A0200F0B9FF40F21230022106AA00F0B3FF40F213300221CA
:20114C000DF1160200F0ACFF4FF44570022105AA00F0A6FFC54D3046152105F147020DF079
:20116C008FF80620A0210AF0BDFE0720A0210AF0B9FE4046A0210AF0B5FE0920A0210AF0CF
:20118C00B1FECDF8109003268DF80F7038468DF80E9051468DF80D6004AA8DF80C004FF456
:2011AC0081600AF0AFFB4FF480600DF10F0239460AF0A8FB40F202400DF10E0239460AF055
:2011CC00A1FB40F203400DF10D0239460AF09AFB40F2064003AA39460AF094FB4FF0FF303C
:2011EC000DF036FC4FF0FF300DF02FFC0DF03EF805F111023846112102F0D2FC022005212A
:20120C002A4602F0CDFC05202A46014602F0C8FC05F134023046132102F0C2FC6A1D504662
:20122C000C2102F0BDFC05F12207062012213A4602F0B6FC0AF0C2FF7F2004F0D9FDA070FA
:20124C007F2814BF0A200F20052109F04FF909F071FF0BF0CDFA0BF0B3FA07F0EDFC09F09C
:20126C006BF90BF0DDFA0CF023FA0CF0ADFE0BF0EBFD04F114000AF01BFE04F118000BF065
:20128C0006FD4F49E0680DF0A9FA4FF0050A5D460A21ADF85A104FF0FF37ADF85880286812
:2012AC001797014616A88847002840F0238148462F6802900926ADF848803946ADF84A6083
:2012CC0012A88847149E0028029640F00581BDF84C0010280CD160789DF84E10884207D1CE
:2012EC0030460178B02903D1017908300CF056FB0298002800F0F0800321ADF84210ADF865
:20130C00408028681196014610A88847E4E020690CF0FEF9071C00F0DF803E78781C761E6C
:20132C003ED0761E40F0CF800078B97806280ADC062821D0401E2FD0401E29D0801E23D05F
:20134C00401E1DD0BFE0C01F12D0801E0CD0C01E06D0401E40F0B78008460CF0FFFBB2E00D
:20136C00084604F059FAAEE0084608F0F5FDAAE0084604F0E1FCA6E0084605F0DFFDA2E036
:20138C00084605F0E1FF9EE0084604F0E5F99AE0084605F0D9FB96E0084605F055FE92E071
:2013AC000678701E64D0401E2AD0801E01284AD9801E09D0801E2ED084E0C04604090020F5
:2013CC00EDDF0000601A00201B980DF0AFF810B91B980DF099FBE0680A214A460AF056FBE9
:2013EC00E0680F214A460AF051FBE06815214A460AF04CFB06F0C8FD64E0C04641E300001B
:20140C001B980DF093F810B91B980DF07DFB48460CF0F2FD56E00BF0C3FF0BF09DFF0BF096
:20142C00B5FE0BF0FBFC0AF0A1FB0BF083FF09F00FFC06F00BFB0CF0AFFDE0680A210122AA
:20144C000AF024FB3EE00BF0ABFF0BF085FF0BF09DFE0BF0E3FC0AF089FB0BF06BFF09F0D9
:20146C00F7FB06F0F3FA0CF097FD2BE0B4EC00000F20514609F03AF84FF441700EA902F0C2
:20148C005BFA9DF839308DF831308DF834908DF833909DF83D108DF837109DF83A208DF854
:2014AC0032209DF83C309DF838008DF836309DF83B308DF8300041460CAA48468DF83530AB
:2014CC0002F06EFB2670ADF82880ADF82AA028680B9701460AA8884720690DF022F9002890
:2014EC003FF415AF05F0C8F80BF048FF02F070FC0CF00CFFA088C1080FD320F0040021780D
:20150C00A080022909D11B980DF0FEFA2078022803D10F20012108F0E9FF07F0BDFBB7E6DF
:20152C002DE9F04F0820ADF17C0DDFF8FCB2ADF840000120ADF84200DBF80000014610A8B7
:20154C008847C84C9DF8440060700026A6701298E0614FF6FF70A0820AF094FBB046C64D64
:20156C002070324633460120CDF800802946019004F1A800159008F01DF90220CDF80080C1
:20158C00324633462946019004F1CC00149008F011F90420CDF8008032463346294601908D
:2015AC0004F1F000139008F005F904F14809042010223146E070484605F0C2FF04F1580AA3
:2015CC0010225046314605F0BBFF04F120073E6004F10B052E700720A072102126724A4622
:2015EC00667202200AF06AFB0320102152460AF065FB04203A4601460AF060FBCDF860904B
:20160C0004F13E001E90CDF864A015981C974FF00309169005F12D00159005F17C001790E2
:20162C0005F121001A9005F15D001B9027351D9509E0A078062818BF072804D16078A18AC4
:20164C00132209F075FE08200A21ADF838004FF0FF35ADF83A10DBF800700F950EA839462F
:20166C008847002840F062813046082102900925ADF82810DBF80070ADF82A500AA8394685
:20168C008847DDF830A00028CDF808A040F04E81BDF82C106078102940F03A819DF82E1076
:2016AC00884240F0358155462A884FF6FF73A91C934200F0258151460F78A23F00F00981C1
:2016CC002E3F40F025818978B046002900F0D680891E00F0AB80491E01297DD9891E4CD0E9
:2016EC00491E23D0491E03D0083900F0E480E6E013980DF00BFA02984778002F40F0DF802B
:20170C00C188E182018921834089608314980CF00DFF002840F0D380A76A002F00F0CF8059
:20172C003B68E08A218B628B9847F1E0A8880BF098FA15984146062205F002FFE682268327
:20174C006683A879607314980DF0E0F913980DF0DDF94FF001084FF6FF706779A0824FB99A
:20176C00A879082814BF04200520A07040460CF05BFCA4E084F80290A1E06F7837BB291DD5
:20178C000A6815980260898881800627A7706889A082E889E082288A2083688A94F83E105F
:2017AC006083E8780129207308D11F2009F0A2FD4FF47A71414314980AF0F4F9E8786A89D5
:2017CC002D1D0423294608F0F1FB7BE0687831286FD12671042023E06F78002F69D1A87837
:2017EC00678AA178032812D02079657927B9012814BF6671267106E0054304D016983946D6
:20180C000AF0D0F9A1780729E4D1062008E0062908D02779002F08BF84F8029052D00220FE
:20182C00A0704FE00720FBE7601A00206B786F1C002B3ED1ED78A178E279ADB9022918D0C0
:20184C00072916D0062902D16079012811D103290FD016980CF06AFE58B901200CF0E4FB56
:20186C0007E0C04620050020179B414608F0B8FF38703F78EFB922E035E000006F78C7B9BD
:20188C00189A022010210AF035FA199A484610210AF030FAED1C29681A98AF88016001256E
:2018AC0087802946A2791B9B6078A57008F098FF40B10820B4E7A88805210CF059FFB8F152
:2018CC00010F25D1676A1FB33F680FB3A078B8471EE0687913281BD12889012808D1A07BFF
:2018EC00022805D113980DF011F90BF051FE0FE0052009F0FFFC014613980AF053F907E0B9
:20190C000888C00B04D31C9A042001460AF0F2F9029FDBF800004FB10821ADF82010ADF86C
:20192C002290CDF824A0014608A88847208A6779217942082DD320F0010057EA0105208232
:20194C0027D02E4800786FB9227A617A8DF80C201D9F8DF80D103B680DF10E052B60BA8867
:20196C00AA8001E08DF80C90E17A8DF81510A27A8DF8142003A90CF0F5FE48B10820676AC8
:20198C00A0702FB13D681DB13868014608208847208A810807D320F002001E99208230460C
:2019AC0006F0C8F8208AC108FFF44DAE20F00400A77B20827F1E03D07F1E3FF43AAE42E6DC
:2019CC00A078B4F84050B4F84230B4F84420B4F8461006287FF437AEADF81850ADF81A30F5
:2019EC00ADF81C201498ADF81E100DF08FF801200DF1160106F09EF825E6C04621050020DE
:201A0C00D74A2DE9F04F0126ADF1140D02F141010490D148C1F8CF6F0768002FFCD0D14802
:201A2C00C02344380360CD4B029003F108000068800804D25868000C40F0F00000E072200E
:201A4C00D94FDA4C0193002587F84C02A4F1DC081846C1F8FF5FD0F80CA058F8040CC0F331
:201A6C0004600CF02DFE00EB2A70401C162805DA10F10A0FB8BF6FF0090000E0152000F0D3
:201A8C001F0040F4F850A7F864021068800828BF4AF0406AC6494FEADA604FEA9A6580F0A5
:201AAC00010000F00100086085F0010000F001008860504606F0E2FD0022044615460CF043
:201ACC0081FE00B935462A46BA4D2B68002BFCD0DFF8E49209F10809C9F810402E600AB194
:201AEC000CF076FE0CF0A4F980B20090B24840F2FF3200232C2108F0BBFE0CF0AFFC0446A0
:201B0C000CF060FE4FF0000B00B9B3462B68002BFCD0C9F81440BBF1000F2E6001D00CF0AE
:201B2C0057FE0BF049FF04460CF04CFE4FF0000B00B9B3462B68002BFCD0C9F80C40BBF132
:201B4C00000F2E6001D00CF043FE0CF04DF904460CF038FE4FF0000B00B9B3462B68002B56
:201B6C00FCD0C9F80840BBF1000F2E6001D00CF02FFE049806F066F904460CF023FE4FF0AA
:201B8C00000B00B9B3462B68002BFCD0C9F80440BBF1000F2E6001D00CF01AFE04990846D4
:201BAC000CF00AF9844C4000403440F0200084F8090108460CF00CF940F0100084F80901AB
:201BCC0008460BF0F5FC03900CF0FCFD4FF0000B00B9B3462B68002BFCD00398C9F8200035
:201BEC00BBF1000F2E6001D00CF0F2FD049908460CF006F9400040F0600084F80C01084647
:201C0C000CF00AF9C00040F0800084F8010108460CF01AF9800040F47C40A4F89C01084677
:201C2C000BF064FB03900CF0CDFD4FF0000B00B9B3462B68002BFCD00398C9F80000BBF157
:201C4C00000F2E6001D00CF0C3FD4FF480002060D8F8580040F20F216FF31F40814215D90F
:201C6C00D8F80000D8F80030C0F30365C3F3034005B16D1E072805D006280EBF0720801C71
:201C8C0000F00F0045EA001007F8080CCAF38140401E02D0401E28D024E0D8F8D000810CB2
:201CAC0020D24FF480412160D7F80210420AC0F3033502F0800221F08F010A4345EA0201F5
:201CCC00C7F80210D7F80120031263F30302C7F80120396800F0E70521F0E70145EA010041
:201CEC00386002E04FF0004020604FF4007020640CF0ACFB40F03000334F84F8C800CAF3A2
:201D0C00815088B3401E03D0401E20D002211FE030460BF0A5FE05460420294608F09AFB8B
:201D2C0004200BF09DFE8542FAD10198056825F07F400AF08DFD3846143000680368072130
:201D4C004FF06022280E98474FF4806020600321042008F07FFB0EE094022243A83F005024
:201D6C000000094044600C400420314608F072FB12480AF06DFDD8F8B0001149114B47F6ED
:201D8C00180500F03F0084F8CB0F3A460D8018681068C16802208847402102980B4C0160C3
:201DAC0005B02660BDE8F08F0A600840981300500000204300800C4000A00C40BD37860076
:201DCC0070B00C402C200940A0010010940460422DE9FF47A24C0F460546F80B80F01E810F
:201DEC00B80880F0A380B80F63D2E07A002848D1380948D30025012665706079667208B106
:201E0C00984805709849216198492A4604F14C000CF05DFEA07901281AD1E079C0B9944E34
:201E2C00306870B10CF036FA61693368401A000BE061226A8018B0EBC31F28BF256208D2BD
:201E4C00206204F1CC004FF000510CF07DF92DE0A67104F1380040F60901018094F845103E
:201E6C0001F0F00141F0010184F84510658794F8441001F0F00184F84410E5637D4E30604F
:201E8C0014E0380910D2B80BC0F0E180A66A46B1706830B17568F068B6F9101078A20CCA97
:201EAC00A84727F40057D2E00020E07227F00807CDE0714904F14C0000220CF008FEE8684F
:201ECC0040F6C411814216D104200BF0C9FD90B1606980B1A06970B90CF0DCF96169A06153
:201EEC00814226BF401A401E401A000BE860E86800F58D70E860E07958B10220ADF8000016
:201F0C0068460BF0A5FB0020E071BDF80860A4F89C600120607020790026401C2071192070
:201F2C0026720CF043FB27F0005790E004F1300ADAF80060002E69D0B06840F603031A4669
:201F4C0006F10C0C2025521C02E040686D1EEDB268B165B101888B4218BF8A42F5D1DCF83D
:201F6C0000102CC818312CC129C881E829000025326A35627368DBB196F8243042F00202C1
:201F8C004FF0000990465B1E07D05B1E03D09B1E06D13DA002E03EA000E03FA090E8000314
:201FAC007268F068B6F910104B4694464246E047B4F93600401C6FF31F30E08650460BF013
:201FCC00BBFFF068B0F98C10B4F9362091421DD1217801291AD090F88E3093B9036883B1FC
:201FEC00E1680968B1F1FF3F10D0244909686830B3FBF1F10CF0ACFDF06868300CF021F9AA
:20200C0004E080F88E50284607F000FCDAF8000027F0020708B147F0020718E00CF02CFC12
:20202C00E66A356A0CF050FDA8080ED26EB1306AA8433062706840B17168F068B6F910607D
:20204C0000232A468C463146E04727F4804727B104F1CC0039460CF077F80090BDE8FF8751
:20206C00D0140020026208401988000019D40000F835002000100440E93E000070F60000E8
:20208C000000000020000000000000000000001000000000000000400000000000000020A4
:2020AC002DE9F8430C4603461546DFF894C2A24EDFF888E2A4499F48A24A0027A3F20138BA
:2020CC00B8F11A0F1CD8DFE818F0290125011F011B00FC00F700E000CF00C800C100B900F0
:2020EC00B100AA001B001B00A000930085007A006D001B001B001B001B0051001B002600A6
:20210C00282B06DA022C04D12988184609F0EAFED0E002270BE1012C40F00281C178012985
:20212C0000F0F08002792978017182B9002900F0FE804078012800F0D680042800F0D3803D
:20214C00062800F0D080052800F0CD80EFE02978002940F0EC804178032900F0CF80072912
:20216C0000F0CC80052940F0E280C7E0012C40F0D7802878012840F0D38006F1F0000CF0CD
:20218C00D5F968B93446384604F13E0105F0D2FC071C40F0CC8004F1CC000CF0B7FCC6E0A0
:2021AC001627C4E0022C40F0BB8029880A29C0F2B780B1F5486F00F3B380704616E0022C6F
:2021CC0040F0AE802988B1F5FA7F80F2A98070460180ACE0022C40F0A38029880629C0F254
:2021EC009F80B1F5486F00F39B806046801CEFE7022C40F0958029880629C0F29180B1F575
:20220C00486F00F38D806046E2E7012C40F088802878022880F2848002F10C010CE0012CCE
:20222C007ED1287804287BDA0B3105E0012C77D12878082874DA0A31087078E0062C6FD1F1
:20224C00296810460160AE88868070E0012C67D12878042864DA0931EEE7012C60D1287822
:20226C0004285DDC0831E7E7202C59DA06F1870839461F22404605F063F9294622464046ED
:20228C0004F096FAF47139460FE0202C48DA06F1680839461F22404605F052F929462246A9
:2022AC00404604F085FAB471012170782246434608F096FA07463AE0022C31D129881130E8
:2022CC0086E7012C2CD1017901291BD0C2782978C17062B900292AD04078012803D00428A2
:2022EC0018BF052823D101200BF09EFE1FE02978E9B94178022918BF052918D100780CF09A
:20230C008DF814E0122712E0042C09D129681F3001600CE0102C03D1573004E0102C01D04E
:20232C00182704E047302946102204F041FA3846BDE8F88321050020200500206405002075
:20234C006005002052050020200500202DE9F04F0128ADF1140D40F0F280DFF81492D9F803
:20236C00DC00012840F0E9800220C9F8DC000CF05DF90290012008F0E7FA20B101210646D7
:20238C00C9F8DC10D5E00CF039F903906E484FF00008C0F8008001200BF062FB012818BF60
:2023AC00CDF8008004D1404607F05EFC0120009066486E4CC0F800801934D4F8FF0F112077
:2023CC000CF018FA00280CBF4646012610200CF011FA08B146F002060F200CF00BFA08B126
:2023EC0046F004060B200CF005FA30B1584800685849006B0246088890470A200CF0FAF9AE
:20240C000028404618BF01204FF0805B0BF5DC7528B128685049006B0246088890474F48EC
:20242C000127076028688069014646F0200088474B4807600CF0D8F900F001010191400889
:20244C0015D248480CF027F98246BAF1040FF8D0BAF1010F06D1DBF8D801406802464148D8
:20246C00032190474049086820F003000860404600F080F82868D4F8FF1F806B804701982E
:20248C0001280ED0BAF1010F06D1DBF8D801406802463448394690473349086840F003000A
:2024AC0008602A480760286840690146304688470B200CF09FF928B128682649C06A024601
:2024CC00088890470A200CF095F928B128682249C06A024608889047204807600322C9F873
:2024EC00DC201F4BC3F800802868406B0146304688470128F8D1042008F026FA1248076079
:20250C001A48D4F8FF1F01688909FCD30098012802D1384607F0A8FB0CF05AF9082008F07E
:20252C0013FA06460398C9F8DC7009F017FF06F023FF02980AF08EFE02E0042600E0012634
:20254C00304605B0BDE8F08F0C40094000022243B80100108AED000086ED000028200860C1
:20256C0080010443004003402422084014100940481B00202DE9F84F82467A48DFF8D8915F
:20258C0035380068800880F0D7800AF037FD054678480830D0F8008000244FEA2876761CC5
:2025AC005FEA98500AD2C5F13E0015F10A0F4FEAE000D8BF08208642B8BF061C634FD7F835
:2025CC007C01C0F304600CF07BF883463868C0F304400CF075F806EB0B020090162A05DA76
:2025EC0012F10A0FB8BF6FF0090200E01522584B584F02F01F0141F4F8511980396811F0A6
:20260C00030F18BF0124C90828BF44F00204BAF1000F18BF44F00404494691F90730EB1A8C
:20262C00052B04DA8B79A34208BF888863D0DFF82CE10F2DA5F10F0325DB03EB03134FEA88
:20264C00232CBCF1070F88BF4FF0070C6746062F88BF06275EF82700042606EB870677468B
:20266C00BE59361A06F0FF07E00824BFC6F307200744A00824BFC6F307400744600828BFD0
:20268C0007EB166701E00027BC465EF82CE0E0080EF0FF0624BFCEF307200644A00824BFC8
:2026AC00CEF307400644600828BF06EB1E660098A3EB0C23BFB25F438037801A06EB172611
:2026CC00D8BF0120342208F0FF0742437A43B2FBF6F04FF6FF72824238BF101C802D80B291
:2026EC00888005DA15F1800FB8BF6FF07F0500E07F25CD718C711A4A12681F280A604FF06B
:20270C00000208D340F2FF11814206D24008521C8142FBD301E01F208880134F11490F3881
:20272C00000942EAC00247EA0200C1F8FB0F0026C1F8FF6FBDE8F88F0D4F0C4E49460820BA
:20274C003760891D0870BDE8F88FC0463C1100506E62084024220840FC3500209C130050F3
:20276C00082009403500094000E7A48030100940FDFDA400AC3F00502DE9F0411C461546ED
:20278C008C4208BF854282BF00230022E5E0002C08BF002D0AD100290EBF00286FF000000E
:2027AC006FF0000100F0E1F8BDE8F0815FF000085FF0000E002C08BF8D429CBF2C1C002590
:2027CC00070C47EA01470E0CB44208BFBD429EBF5FEA044444EA15445FEA0545070A47EA41
:2027EC0001670E0AB44208BFBD429EBF5FEA042444EA15645FEA0525470847EAC1774E089B
:20280C00B44208BFBD4200F29380870847EA81778E08B44208BFBD427CD8C70847EA4177D5
:20282C00CE08B44208BFBD4266D8070947EA01770E09B44208BFBD4250D8470947EAC1675F
:20284C004E09B44208BFBD423AD8870947EA81678E09B44208BFBD4224D8C70947EA4167A6
:20286C00CE09B44208BFBD420DD8E60146EA5566EF01B14208BFB84201D3C01BB14158EB7A
:20288C0008085EEB0E0EA60146EA95664FEA8517B14208BFB84201D3C01BB14158EB080868
:2028AC004EEB0E0E660146EAD5666F01B14208BFB84201D3C01BB14158EB08084EEB0E0E78
:2028CC00260146EA15762F01B14208BFB84201D3C01BB14158EB08085EEB0E0EE60046EAB7
:2028EC005576EF00B14208BFB84201D3C01BB14158EB08084EEB0E0EA60046EA9576AF0085
:20290C00B14208BFB84201D3C01BB14158EB08084EEB0E0E660046EAD5766F00B14208BFA4
:20292C00B84201D3C01BB14158EB08085EEB0E0EA14208BFA84201D3401BA14158EB080840
:20294C005EEB0E0EA34208BFAA423EBF2D0A45EA0465240A89D3734642461E4617460B46C5
:20296C00024631463846BDE8F08170472DE9FE4F724C04F12406306815460F4600900BF02E
:20298C007BFF01903846B0F1FF3F05F001070CD1A06A20B9B4F93600401C00B202E0A06A29
:2029AC00B0F91000002184F8A510A16A821000EB527222F00702801AC20002EB4012A01846
:2029CC0000F59C78414500F083800098804549D000284FF003073FD04FF0000904F1A80B83
:2029EC00CA46006880451ED158460AF021FF00980768C0F800A0019800970CF065F8A8084F
:202A0C000ED297F8240040F0040087F8240068460BF092FA014606F10C0009F0B5FB01E037
:202A2C004FF001098327B9F1010F03D00098006800900EE0009991F8240040F0040081F899
:202A4C00240068460BF078FA014606F10C0009F09BFB00980028C4D1832F24D001980CF0C2
:202A6C0033F820E004F1A8000AF0E2FEA8083ABF606A00680020606201980CF025F80C36F7
:202A8C00009991F8240040F0040081F8240068460BF052FA0146304609F076FB009808B1A6
:202AAC00A808EDD28327207A60B9254904F1CC00216102210BF048FB607801281CBF2148E7
:202ACC00206138E004F1CC0002210BF03DFB32E0A80803D3606A00900023636298F824109C
:202AEC000120B840084388F824000BF087FD0446002F14BF144815480AF0AAFD01980BF009
:202B0C00E3FFA80813D3009888B10C36014691F8240040F0040081F8240068460BF00CFAAA
:202B2C000146304609F030FB00980028EED1204609F014FC83273846BDE8FE8FD01400205C
:202B4C00DD1D0000CD60000001000204010001042DE9F04F8346ADF1840D01F0ADF807F05B
:202B6C001BFE4FF00009012805D10BF019F9022808BF4FF0010960490868C0F381500128DC
:202B8C0006D151F80C1C0120090E884040EA09095A495B485B4D09780068C0F3460028604D
:202BAC0007F0FAFD2C46012807D10BF0F9F8022803D12068401C206000E0206838B1FF22E8
:202BCC0004F1400107467F1E01F8012BFBD1DBF80010002601F0FF02FE2A1BD08C46DE46D4
:202BEC00324601270CF0FF01884204D907FA01F319EA030F01D002207AE00CF0FF015EF8DD
:202C0C0004CF61181E4381F84020521C0CF0FF01FE29E9D1092002F0EBF8C4F804B001A8C0
:202C2C000021242208230BF05DFE4FF0010804F1240001AA8DF81C80414609F0F9FE236871
:202C4C002BB300279435BA4608FA07F019EA000F17D1064204BF07F0FF0141F4C04104D09B
:202C6C00E01990F840005BF82010274802F0ACFFF8B24FF0FF310AF00FFF2368C5F800A0EF
:202C8C0001E0042028607F1C2D1D9F42DCD30AA80021302208230BF0E9FD1C4E30780025BE
:202CAC0010210AAB12901A4A009504F1080008F097FD16A82822082329460BF019FE716871
:202CCC0004F1600016AA1C9112491D952B4609F081F8114A52F80D0C414620F4F85040F461
:202CEC00005042F80D0C0D4BC2F8FF1F2846196021B0BDE8F08FC046B43F00500536002075
:202D0C008012084058310020007FC7679CF50000C1DA0000D5AB00000D30094008000940F4
:202D2C002DE9F84381460BF04DFD002100B901216B4E30680028FCD06C4D01242D1DEF6A68
:202D4C00346009B10BF044FDDFF89881C7F3072008F1BC0108600BF035FD002100B9214680
:202D6C0030680028FCD02F68346009B10BF030FDC7F38440C8F8C0000BF024FD014600202D
:202D8C0001B92046014630680028FCD0ED69346009B10BF01DFDC5F38120C8F8D000B9F5E4
:202DAC00C061C8F8B81000F0968098F8D80068B9C8F8D410D8F8C000C8F8C800D8F8BC7017
:202DCC00C8F8C470D8F8D060C8F8CC60D8F8D410D8F8BC60002954BF02206FF0010045461E
:202DEC0005F1C8031A6801EB41014018411000EB917002EBA0021A60D5F8C810C5F8C46032
:202E0C0000291CDD1E293DDDD5F8CC0030B93429B4BF15391E21C5F8C81025E02A29BABFDE
:202E2C00D5F8C8000B381E20C5F8C800D5F8C4003F28B4BF401C3F20C5F8C4001FE0D5F878
:202E4C00CC00032812D011F10B0FC6BFD5F8C8000B30201CC5F8C800D5F8C4000028CCBF17
:202E6C00401E0020C5F8C400032009E011F1150FC6BFD5F8C8001530201CC5F8C8000020D5
:202E8C00C5F8CC00B5F8C400174E30214FF47F4208230090304607F0EBFC009404214FF467
:202EAC0000321123304607F0E3FCB5F8C80004214FF4F80212230090304607F0D9FCB5F8C9
:202ECC00CC0020214FF440620A230090304607F0CFFCBDE8F883002088F8D800BDE8F88347
:202EEC0000800C40481B002000A00C4000A00C402DE9FC471E4692460D4681460BF0BCFC3D
:202F0C005D4C0AAF40F6F871B4F93630B4F934200095D21A1140082902DB0BF0D5FD41E0C2
:202F2C00B4F93410491C6FF31F31A186B4F934800BF0CAFD4046811000EB517121F0070156
:202F4C00401AC10001EB4011651809F168000AF06FFC05F59C7585F812A00098A8606E6021
:202F6C00C5F80C90A5F8108097E80C0046A696E8030005F1180700261040194087E8030071
:202F8C0004F1240085F824600768002F58D1294609F0FAF848B9B4F9340000F6FF706FF341
:202FAC001F30A0866FF0010863E0A9F88C800BF063FC89F88E60A17A41B1617831B1012185
:202FCC00E172A672E6712179491C21710BF07CFDA06A00284DD1607870BB207A012848D0F0
:202FEC000BF04AFC0646607AF8B9A86807F016FB234A2249E3681268086040B930460BF026
:20300C0063FD04F1CC0004210BF09EF831E0D8680968091A04F1A800B1FBF2F10BF098FD2C
:20302C0004F1A8000BF00DF920E030460BF04CFD1449012008701CE019200BF0B7FA18E05D
:20304C000BF01AFC0646294604F1240009F09CF8002818BFA9F88C8008D1B4F934006FF02D
:20306C00010800F6FF706FF31F30A08630460BF02BFD4046BDE8FC87D0140020F835002067
:20308C0070F60000F4350020F1EFFF9F200000002DE9F04F0D46624C6A782978ADF1140D3F
:2030AC0001EB0221ADF800106188BDF8002003908A4240F0A980E06940F6FF7200EB0110DE
:2030CC00024203D1000BC0B20BF060FCBDF80010A079AA1C102309010BF062FC6088401C7A
:2030EC0081B26180A088884240F08A800DF102000BF0F4F9BDF802004FF6FF71814275D028
:20310C00BDF80270E088002F70D0A28800271101C6B201F4704304975FFA92F2C91A82182D
:20312C005FFA82FA1FFA81FBB24528DBAAEB060101F10108B0420CBF04250025B245D8BFEF
:20314C00AB4516DD304629460DF1060204230BF022FC04270DF1060919F8011B049809F05B
:20316C0024FD7F1E0490F7D12D1DADB2B5F5805FE4DBE088761CB8F10108F6B2DAD104989D
:20318C00002109F012FD002109F00FFDBDF80210ADF80400814229D10DF102000BF0A6F90D
:2031AC00BDF80400BDF8021088421FD10398002105F052FC0AF006F921780843207009F064
:2031CC0065F8A17A491EC8B2A17298B92078410806D3A069039900220346032098472078C2
:2031EC0010F0060F06D00BF089F903E00398012105F032FC002525700BF056F865800CE0C4
:20320C00039805F0F9FB08E00020608020700BF04BF80398032105F01FFC05B0BDE8F08FC0
:20322C001C1900202DE9F84F0D4683462868DBF80440DBF80880002800F0AF800BF01CFB59
:20324C00D4F8881021B10BF03FFC03202874A4E001212974C4F888500BF036FC94F8A40003
:20326C0038B194F88D204E49D4F89C00114308F057FF6F680BF000FB04F1D8068146307870
:20328C0050B917F0704F02D1042009F021FA022009F01EFA0120307048460BF015FCD8F8EA
:2032AC000090D9F8040040F00200C9F80400DBF80830DBF804C0D5F800E019689CF88C2096
:2032CC001FFA8EF0B1F1804F00FA02F01FFA80FA14BF344E344E3548AA6832B99CF88C10DA
:2032EC008F00C2590CF1A60108E09CF88C108F000AEB0201C21952F8082C491EB260716032
:20330C00196801F10808C6F80080B2684FEA0E1143F6F07E10390EEA01010A43B2601E689F
:20332C00B6F1804F14BF224A224A6D68002D04BFC05903F10E0504D0C01950F8100C5544D1
:20334C006D1E90601560C2F80480906801439160DCF8A0005F6942681969126847EA0100F2
:20336C009062706A40F003007062D9F8140040F00100C9F81400207828B961686C3420463D
:20338C0001F06EFE10B10120BDE8F88F584601F0A3F92046002101F063FE0020BDE8F88F66
:2033AC0000000680000500203004002048EE000010050020400400202DE9FC415D4C564D94
:2033CC00564EDFF85C81594F94F8E410481E0B2800F29F80DFE800F0772C43062343062385
:2033EC0043067260042907D001220A2945F8212C14BF0220032004E02021012045F8211CEA
:20340C00024684F8E200002045F8390C0827C5F8FF7FC5F8F37F45F8392CBDE8FC810529CD
:20342C0014BF09200620002584F8E40035606CE094F8E1700120383D002FC5F81B0004BFBB
:20344C000620002102D00021F160032084F8E400032045F8010C31603068800855D294F881
:20346C00E400012503280DD00021404660220523009107F0FDF994F8E400062814BF0A20C4
:20348C000720D1E702200090002160220523404607F0EEF90420C7E72249002622480E6025
:2034AC00012505600E2001F0CFFB022009F0F8F884F8E45084F8E360BDE8FC810020386038
:2034CC000C2578601FE01A48006800680146202088472C3D41F61D560F2000214FF4C07278
:2034EC00072345F8010C4046C5F803600225009507F0BEF9404600214FF4C072072307F0FF
:20350C0019FD0120386084F8E45004F178000AF098FEBDE8FC81C04639400C4038600C4052
:20352C0000A00C402C500C4004800C4034600C40A0010010481B0020B0B545688468514850
:20354C00297BADF1180D01291AD001462F7E227E637E4D4837F0010741EA020240EA03004F
:20356C0001904A48009218BF011CA27E1143029195F88D200323FF2A13D0014610460DE099
:20358C00A17E627E237E41F00041024343F00043029195F88D0000933D490192014304238E
:2035AC000391FE2105F190004DF82310694603F09BF9C5F89C00002808BF00205FD0287BDE
:2035CC00344951F8200001282BD02068B0F1804F14BF22220A22217ED5F89C0009F0B0FBEE
:2035EC002068B0F1804F14BF21220922617ED5F89C0009F0A5FB2068B0F1804F14BF242294
:20360C000C22A17ED5F89C0009F09AFB95F88D10FF2933D02068B0F1804F14BF23220B22C8
:20362C0028E02068B0F1804F14BF21220922217ED5F89C0009F084FB2068B0F1804F14BFF2
:20364C0022220A22617ED5F89C0009F079FB2068B0F1804F14BF24220C22A17ED5F89C0072
:20366C0009F06EFB2068B0F1804F14BF23220B2295F88D10D5F89C0009F062FB012006B0DF
:20368C00B0BDC046000480A0004000800004C0A00020008030EE00002DE9F04F0446666838
:2036AC00A7680D46ADF1440D0BF0E6F896F8DC10012903D10BF008FA00208AE04FF0010B8A
:2036CC0086F8DCB00BF000FAE868D4F8048028B9A06890F814A090F8159003E090F800A0E2
:2036EC0090F80190BAF1FF0FE6D0B9F1FF0FE3D0394941EA0A000D90FE220F9241EA090181
:20370C0008F198000E910DA903F0EEF8C8F8A400D8F8A4000028CFD051460D2209F010FB75
:20372C00D8F8A40049460E2209F00AFB2878307068687060287A002130220823F06001A833
:20374C000BF094F806943A7B099200250095234AB96806F1100001AB08F042F801A82822CC
:20376C00082329460BF0C4F8396907911C49059406F12C0001AA2B4608F02CFB01A8242267
:20378C00082329460BF0AEF806F160008DF81CB0594601AA09F04CF9307838B906F17C00A6
:2037AC00294601AA09F044F90E4870603572C6F8BC50C6F8C050786801F01AFB204607F005
:2037CC0033F8094A06F1C8000421234609F07AFC204611B0BDE8F08F00200084F14500007E
:2037EC0007960000DFE9000069E500002DE9F04306467768B5680C46ADF1340D0BF03CF819
:20380C0097F8D9102D1D012903D10BF05DF9002084E04FF0010887F8D9800BF055F94FF05F
:20382C000009C7F888902069386160697861207E3876207B387320783870606887F8A4908B
:20384C00786060694946092828BF414687F88C10287A01F0CDFA304605F080FFE87D87F84A
:20386C008D003046FFF768FE50B9287A01F0ECF90BF002F887F8D9900BF026F94E464CE0A5
:20388C0001A84946302208230AF0F0FF06966878CDF80090234A0990297801AB07F11C0046
:2038AC0007F09EFF01A82822082349460BF020F80596696807911C4907F1380001AA4B46D3
:2038CC0008F088FA387878B901A84946242208230BF008F807F16C008DF81C80494601AA1E
:2038EC0009F0A6F8114800E0A068B86004F082FB397BC7F8A000012908D1D7F89C000C4985
:20390C000AF06CFFD7F89C0000B18660094A07F1C4000421334609F0D5FB30460DB0BDE8E6
:20392C00F083C04629620000259B0000EFE90000D1BA000061E800004C4B2DE9F04F0C46CD
:20394C00283BD97AADF12C0D86460591587B0A90997A0491987809909A7993F80C9093F8E9
:20396C0005A0597A588B0391B3F846800890197A188B02915E8A0790D979D88A0191DF785E
:20398C0006901979988A0091196AAEF5407C0025BCF11D0F10D8DFE80CF0635C595755539E
:2039AC00514E4A474543403E3C0F3835322F2D272422200F1D1B1A18BEF1280FA8BF022505
:2039CC004FDA704607F096FC23E0DDF82890CA46CDF824A0099805901DE008980790079841
:2039EC000690DDF8188005E03833186820609888A08036E040460AE0B3F8440009E0B3F81F
:203A0C00420004E0B3F8400001E093F83E00064614E0208025E0059804900498039001E0B9
:203A2C003233E2E7039802900298009008E0019A03F1870110E003F168010DE03046E8E777
:203A4C00009F0DE02C33D0E721600AE003F1580101E003F148011022204602F0A9FE00E0D1
:203A6C00277028460BB0BDE8F08FC046480500202DE9FF410646880FC0F08280454C464DD4
:203A8C0041484FF00008611D1C350F78C5F8008045F81C0C27B13D4880F8008020218170CB
:203AAC003E4A94F84470C44640F60A0104F13800226194F84530A4F83AC007F0F007018031
:203ACC0003F0F003C4F83CC0B26884F8447043F0010384F84530171DA2F802C000E01F1D1E
:203AEC003B6813B11A889142F9D138607A7A02F0F0027A72626A92681288C91F91421ED0AF
:203B0C00491C91421BD006F118010B88CBB196F8243096F82520C6F81CC003F0F00302F030
:203B2C00F00286F8243042F0010286F82520E163417BA6F81AC001F0F001417301E0C4F812
:203B4C001480B068694609F093FD68460AF0BEFCB06801F000FE28680028FCD0C5F800804B
:203B6C00012009F07DFF012807D0787A00F0F00040F001007872064B2361B06845F81C0C64
:203B8C000090BDE8FF81C04601010E0400620840E9A10000D014002000100440DD1D0000C4
:203BAC002DE9F0470C469046DFF8F890414D3F4F3D493F4AD9F8003008284FF00006ADF1E6
:203BCC00180D69D8DFE800F05F5B4C4844403A1105C0072C59D14046828805F108018A80E4
:203BEC0087798F710068086057E003940420ADF80A004FF0080AADF808A002A89847D8B990
:203C0C0004980746C0B1696805F1170088420BD005214846ADF802106A68ADF800A00068D1
:203C2C00019201466846884738464146224602F0BFFD6F602C7030E013262EE0142C24DC04
:203C4C0001F11505294601E0142C1EDC0D460BE0142C1ADC3D4606E0142C16DC3D4603E04D
:203C6C00142C12DC1546153528463146152203F067FC28464146224602F09AFD0DE0142CE0
:203C8C0003DC1546DEE7082C01D0182605E0404642686A394A60A5E70226304606B0BDE8EF
:203CAC00F087C046601A0020C1170020971700206D170020481700202DE9F041434C94F896
:203CCC00E700ADF1280D00286CD1384F387B01250021242284F8E750082384F8E60001A809
:203CEC000AF0E8FD002604F10C00069601ABADF814602F490796324608F0FCFA2D4904F16B
:203D0C00300001AB324608F0F5FA2B4904F1540001AB324608F0EEFAB868014628468847F7
:203D2C00DFF89C8025487B7B0078D8F80410C1F381571BB1032F03D184F8E150032F16D0A2
:203D4C00022F14D0012F26D103201E4C009031464FF040521C23204606F08AFD0095314688
:203D6C004FF400720923204606F082FD13E0022008F0AEFC032F0CBF4FF47A7142F21071E4
:203D8C00114800685434B1FBF0F120460AF0E0FE20460AF056FAD8F80000C00802D2304671
:203DAC0008F096FC0AB0BDE8F081C046A8F40000536B0000A16D0000D17300000536002090
:203DCC00B03F005000A00C4070F60000481B00202DE9F0413E4F3878002876D03D4C20899F
:203DEC0010F07F0F00F07F086DD007F017FD3A4E21783578A0700DB902293AD12279C30929
:203E0C0017D2400824D304F1140007F0BDFB04F11A0007F07DFBE578E088002D08BF2178E6
:203E2C0016D00021E17021784FF47A7292FBF0F009E0521CD0B20228207109D1E0884FF4D0
:203E4C007A72B2FBF0F002B2500000EBC200E0600025022935700CD12089C00909D304F1D7
:203E6C00200000F049FA052822D008B105F028FA2178E66816B901291BD124E0022904F104
:203E8C00140509D0022020700026267100F046FF10B1404601F014F82089000A02D3E0686C
:203EAC00401EE060002012212A4603F05BFD0AE0E560002020710126267000F02FFF10B1CE
:203ECC00607800F053FE00203870BDE8F081C0469E2D0020482200209F2D0020F8B509F0D2
:203EEC00FBFF3F4E3D4F0446A00823D3B96A09B33D4600208B690A6AA86204EA0300104383
:203F0C0040F0020006F1080208628B6910689843106001F1180090E80C0030681A1C904312
:203F2C00306005F1300008F02FF9022105F1CC000AF00AF9B86AA10816D200F118020CCA29
:203F4C00002122400B40002B08BF002A0CD08269016A1440F86207F1CC020C4304624FF4CD
:203F6C00804110460AF0F0F8B86A002834D107F12404256885B3F868E968884226D1A86886
:203F8C0006F04CFB17490860E0B906F10801A8690A6810430860326805F1180393E8030010
:203FAC00081C1043306000233361A86846F80C0C06F1100000680028FAD0204609F0BCFF56
:203FCC00BD62F8BD086805F021FCF8BD07F1CC004FF480510AF0B8F8F8BDC046D014002089
:203FEC000C100440F83500202DE9F0430646ADF11C0D0AF08FFC08F0F3FA4FF000090546AF
:20400C00CDF808900AF02CFC30F0010002D00298A84202D16FF0040068E070684C4658B1AD
:20402C00B0F1FF3F05D001A908F0C2FA30B107465BE04FF0FF3000E02046019009F0E8FBD8
:20404C000199012701EB000802E013463DE001936868019901F004F800282FD003A805F094
:20406C00DCFCE0B99DF81000694607F0BDFF90B9B268BDF800009DF812101346059A984716
:20408C0048B1BDF800009DF81210B081059BB1734F46336112E0059902A807F08BFF01983D
:2040AC00641CB0F1FF3FD3D00028D1D009F0B0FBB8EB000302D001989842C8D2029E09F067
:2040CC0097FC05F1080146B1334653F80C2C002ABBD10A6843F80C2C0E600AF070F824B10F
:2040EC00686804F0F7FB641EFAD1384607B0BDE8F08370472DE9F043ADF1140D01F008FDAF
:20410C00041C6AD04FF4802010216A4605F0D2FE041C5AD00098334E410F01D0864200D292
:20412C00002431480199324D884204D828465638884202D248E0080B46D1002C45D02B4877
:20414C0010216A4605F0B6FE041C3ED00098410F01D0864200D200240199080B34D0284605
:20416C00884231D38CB3234C002604F110093546C84605F580204FF480714A4605F09AFE0F
:20418C004FF4807718F8011B304608F025FD7F1E0646F7D105F58075A8F58078680CE8D0BC
:2041AC003046002108F018FD002108F015FD0546224610214FF4F42005F07CFE20880024AE
:2041CC00A84208BF012406E000244FF4F4204FF4805104F0B1FB04F079FE204605B0BDE8BD
:2041EC00F083C0460050002001F0010010100400FFFF010068320020F0B5ADF1340DFFF781
:20420C005BFD344908682822082340F00200086001A800210AF06CFB2F4FB978354C07914B
:20422C002E49002301AA04F1CC0007F0D3FD00213022082301A80AF019FB38780026192140
:20424C00ADF81C60264A099001AB009604F14C0007F0C6FA2822082301A831460AF048FB1C
:20426C00F97807911F4904F5807001AA334607F0B1FD01A83146302208230AF0F7FA012561
:20428C007878ADF81C501A2101AB0990164A009604F1680007F0A4FA1449324604F1A80037
:2042AC00134608F027F81248206106F075FA3146012808BF291C84F8A560A671267266728E
:2042CC00A672E672E57161714FF6FF70A4F89C000DB0F0BD002009403AF60000BDDB0000B3
:2042EC0019D40000E5580000C99C000085DB0000CD600000D0140020FEB53D4C05460621E4
:20430C00601C017009F0F8FF18B90AF085FA0020FEBD002601206821667002F0D7FE2220E0
:20432C00694601228DF80000372008F019FA08B9052060700AF070FA6078002818BF301C7B
:20434C0054D101200C2102F0C1FE02206946012209F04BFF00283CD09DF80000400836D3DC
:20436C0003200DF10101072209F03FFF68B39DF80700000927D29DF802709DF801009DF8C3
:20438C0004609DF803109DF806309DF8052040EA072041EA062142EA032200B2288009B277
:2043AC00698012B2AA80B4F90830584300122880B4F90A00414308126880B4F90C00424365
:2043CC001012A88007E0032004E0042002E0022000E00120607011208DF800006946012218
:2043EC000A2008F0BDF90AF017FA6078FEBDC0466C2300202DE9F0413B4C621C12780E465C
:20440C008046ADF1180D082A14BF04250025084606F0B0FD684603F0CDF80027A819C2783B
:20442C008178678001EB022127708910A1808178C27801EB02218A10694605F00AF9AD19E7
:20444C0000283BD1E168404609F0F8FF400832D340461B2108223B4608F036FF059050B3DE
:20446C0004F1200004F10802102109F089FA08224189ADF81220059EADF810109DF80000A7
:20448C003070BDF800100598091241709DF802108170BDF8022001AD1212C2702968041D1D
:2044AC003A464046216004A909F002FA18B104A81B2109F073FA09F0F7FE11E028460AF069
:2044CC00F1F8E061000BE08009F012FD20B94046022104F0C1FA03E04046394604F08CFAA0
:2044EC0006B0BDE8F081C0461C1900202DE9F84F00298346009106DD024600980021401E67
:20450C0042F8041BFBD10098DFF8C880DFF8CC900028C8F800B012DD2F48009C0768002552
:20452C0037F8020B38B1D9F80000AE003158002088474BF80600641E05F10105F0D1284F54
:20454C0041460120D7F80080C880B8F1000F22DD4FF0000A00980127002817DDABF104058F
:20456C000446002655F8040FB0F1FF3F04D0D9F800107158884728600021B0F1FF3F08BFE4
:20458C000121361D641E01EA0707EBD137B90AF1010AC245DEDB04A009F0C0FB0D490020DF
:2045AC000860BDE8F88FC0467864632E72756E74696D652E537461727475703A20276D6174
:2045CC00785061737365732720657863656564656400C046BC260020C0F60000C4F60000F2
:2045EC00BCF6000098B53A49826844680968106849688847374B01229A6160B1217AFF29BA
:20460C0009D0FF21400921725CD20420186002200AF027FA56E0207A002853D0401E1DD04C
:20462C00401E02D0FD3851D049E05968D4F8B4000170D4F8B800D4F8B410401E491CC4F87A
:20464C00B800D4F8B870C4F8B41017B3012F88BF092202201A600AF004FA98BDD4F8B00051
:20466C00401EC4F8B000D4F8B070A7B9D4F8B8707FB10220D4F8A8102072097C012F4FEACE
:20468C00410141F0010143F8041C94BF03220B22E0E7042210E0D4F8AC0000785860D4F848
:2046AC00AC00022F00F10100C4F8AC00D1D2D4F8B870002FCDD1052200202072C9E7FF20AB
:2046CC00207298BD04F12C0006F06CFB98BDC046AC010010042800402DE9F0470646746870
:2046EC00B5680AF0C9F8D4F88810002964D00AF0EBF92968486820F0020048602968486AF9
:20470C0020F003004862D4F8A0006F6941682A69096847EA0200C1F804052968486920F098
:20472C000100486128684FF00108C0F82080304608F0DCFCD4F88800D0F804900AF09CF80F
:20474C0004F1D8078246387850B119F0704F02D1042007F0A5FF022007F0A2FF0020387024
:20476C0050460AF0B1F9D4F88810087C042803D003200874D4F88810D4F8A00043682A695F
:20478C0068691B68474610438740DF622868B0F1804F14BF0A480B48026808689204A0EB5E
:2047AC009250401E0860A06800230246C4F8883030469047BDE8F0870AF086F9BDE8F08760
:2047CC000805002038040020F8B53A4BC578047944EA05242501B3F90270447990F800C0B8
:2047EC0045EA24151C88EE10A6EB4406C4EB251464432513B3F9044077436C43A41304EB02
:20480C00E724877804EB840580352E12457845EA0C20B3F90A500E60000140EA271E6010A9
:20482C00A0F57A40811049434C136C43B3F9085045436D1005EBE4054FF4004404EBA544B1
:20484C00DD886543EF1331D09C46BCF90E40BCF91030BCF90C50164EC91260434B4340F6AB
:20486C003544290403EB400301EBA30104FB1E65081304FB1050C10F19BFB0FBF7F040004F
:20488C004000B0FBF7F0BCF91410BCF91650BCF91240C30886085B4371435B0B49136B4324
:2048AC0001EB2331641800EB24101060F8BDC046000050C3B8350020F8B5374C0646A07832
:2048CC00002867D0B4F93600B4F93410884206D0B6F98C1031A20CCA304601F0D1F909F0DB
:2048EC00CBFFE178002946D0491EC9B20029E17041D10AF0E9F80025A5706078B0B109F095
:20490C00BBFF0746207940B1401EC0B2207120B904F1CC00082109F017FC38460AF0D4F886
:20492C0006F130004FF0FF3100F09AFB06F130000AF018F906F168000AF002F904F1CC0009
:20494C000AF012F904F14C000AF0ECF804F580700AF00AF904F168000AF0E4F804F1A80071
:20496C000AF0EEF82570E560307C012812D10E2000F06AF9F8BD0AF0A7F8E068864204BF17
:20498C000020E06006F130000AF0ECF806F168000AF0D6F8F8BDC046D014002002000000BE
:2049AC00000000702DE9FE430AAF3C8806460D4699469046284602A908F0E0FA01464B4690
:2049CC0042460129304608BF012058D0BDF80810DFF8B08042F60216FF27891B4FF0000660
:2049EC003AD048F2FF20091A26D0491E11D0491E30D1002C2CD1022B28D11078062819DA87
:204A0C00E86811880180E96844468C422BD102272BE0ECB9062B19DA107810280ADCE86888
:204A2C0011464A4601F0C4FE1748E96888421AD101271AE0802616E054B9102B06DCE86833
:204A4C0011464A4601F0B4FE37460EE00D260AE00B2608E00A2606E0009401210191294652
:204A6C0004F0B0FF0646FF2F08D04046001D006820B1006810B10146384688473046BDE881
:204A8C00FE83C046441F00204C1F002032482DE9F04F08214FF00108ADF11C0DADF81010A9
:204AAC000068ADF81280014604A888472B4C069961609DF8140020704FF0FF3104F10C0009
:204ACC0001F09EFC2648274D066827484FF47A77B5FBF6F9B0FBF6FA38E0404608F02EFB53
:204AEC00484603F009F902A806F0D6FC8346002008F024FBBBF1000F1CD002A801A96A460A
:204B0C00FFF762FE9DF805308DF809309DF804208DF808209DF806008DF80A009DF8021074
:204B2C008DF80D109DF801308DF80C309DF800208DF80B200020062102AA03F04DF96088C7
:204B4C007843401BB0FBF6F003F0D6F860780128C3D05046F8E7C046601A0020B40C002058
:204B6C0070F600008038010040420F00F8B5064609F0C2FB00284FD00120682102F0A6FA47
:204B8C0000284BD02F4D09202C1D0122207021466B2007F0E5FD00283ED0072028712146FD
:204BAC0001226C2007F0DCFD002835D001271D2021462F713A4607F0D3FD00282CD0402006
:204BCC00287121463A46382007F0CAFD20B3C020287121463A46692007F0C2FDE0B12E7191
:204BEC001F2021463A4607F0BBFDA8B10620287121463A461E2007F0B3FD68B129202871F5
:204C0C0021463A466B2007F0ABFD28B1E91C1C203A4607F0A5FD18B909F0FEFD0020F8BDAA
:204C2C003A2021463A4609F0E0FA09F0F5FD002129706869024907F073FA3846F8BDC046F6
:204C4C00070006806C2300202DE9F843044609F013FE81462D48021992F8ED10491ECFB2A1
:204C6C00002F82F8ED704BD12B4D05EB84052E78698836F07F0788461AD1F10911D24FF0FD
:204C8C008054D4F8B801806901464046884704F5DC742068406B0146404688470228F8D11F
:204CAC0021E000EB8800D0F80011002088471AE04FF08054D4F8B801006A01464046884714
:204CCC00D4F8B801806A014640468847D4F8B801006B01464046884701210D4A0D481160F2
:204CEC0001688908FCD306F03F003F2801D0FFF7ABFF687800F03F003F2801D0FFF7A4FFF2
:204D0C00484609F0E1FEBDE8F883C046481B002028200860282008405CED0000F8B5334DC2
:204D2C002F49686907F0FCF9FF20A87000242C7068216C70012002F0C9F9002808BF271CCF
:204D4C004CD02C4680200122211D20716B2007F007FD09F061FD234923480D68B0FBF5F06E
:204D6C0002F0CAFF04F0DAFA261D071C36D0022005F096FB09F0C0FA60B305F0ADFF58B31E
:204D8C0001200C2102F0A2F930B30F203070314601220A2007F0E4FC42F21070B0FBF5F09B
:204DAC0002F0AAFF04F10E011020032209F01DFA04F10E0140B108788030208148788030AD
:204DCC00608188788030A08101220B203146227107F0C6FC09F020FD06F0ECF93846F8BDE0
:204DEC000700008070F60000A08601006C2300202DE9F041064609F03FFD2D4D8046A9191A
:204E0C0091F8ED00421C002881F8ED204AD1294C04EB8604277807F03F003F2801D0FFF7F8
:204E2C00E7FF607800F03F003F2801D0FFF7E0FF668837F07F001AD1F80911D24FF08054F6
:204E4C00D4F8B801406901463046884704F5DC742068406B0146304688470128F8D121E091
:204E6C0005EB8605D5F80011012088471AE04FF08054D4F8B801C069014630468847D4F8CA
:204E8C00B801406A014630468847D4F8B801C06A0146304688470121074A0848116001683F
:204EAC008908FCD3404609F00FFEBDE8F081C046481B00205CED00002820086028200840D2
:204ECC00BCB5074609F018FA00285BD02F4C207840BB3FB309F010FA10B30120682102F048
:204EEC00F5F8F8B10920211D207101226B2007F037FC251DA0B13F202870294601226C2098
:204F0C0007F02EFC0021217050B1E11C1C20012207F026FC20B13A202946012209F065F928
:204F2C0009F07AFCF8B2277048B30120682102F0CDF848B32078211D012280F0FF00207165
:204F4C006C2007F00DFC09F067FC247809F0D4F9C4F38014B0B105F0BFFEA8B101200C21F6
:204F6C0002F0B4F880B1002C0CBF00201120694601228DF800000A2007F0F2FB02E006F0D1
:204F8C0019F9BCBD09F048FCBCBDC0466C2300201EF0040F14BFEFF3098169468869EFF32D
:204FAC00118102B400B5DFF8A4E0F047DFF8A8E0DEF8001001EA0000CEF800005DF804EB1C
:204FCC001EF0080F03D101BC80F31188704704BC1EF0040F14BFEFF309816946A1F12001CA
:204FEC0014BF81F309888D461B4B1868086040F2011018604A604FF08070C86117488861A7
:20500C00704702B401B4EFF3148100291CBF002282F3148802B402B4DFF834E0F04701BC69
:20502C0001BC00281CBF022181F3148801BCDFF824E0F04704484FF08051016001BC80F3B5
:20504C00118800BF00BFC04604ED00E0199E00003FEA0000CFEA0000C02300200F5000005B
:20506C002DE9F0410D460646B5F1FF3FADF1380D09D045B12B496B4605A82A4608F0D6F8A0
:20508C0005A9022001E0002103200391264F8DF8100038682024EFF31188371884F31188B3
:2050AC00708980BB002D04BF88F31188002036D009F0BCFA064609F02DFC0290C0F818D037
:2050CC0007F066F93846694609F006FC9DF810000025022802D1039803F002FA88F31188E1
:2050EC00304608F0B7F8EFF3118384F31188039810B109F029FD03950298856183F311885F
:20510C009DF810000BE07089401E7081039818B109F01AFD0020039088F3118801200EB091
:20512C00BDE8F08131CF00007CF600002DE9F04115460446A869A060686A98460E4608B919
:20514C002A4800686062286A002806BF28480768071C09F09DFBEB69A3B9002808BF391CA1
:20516C0003D03F1841427F1E39400246E161606AE169434602F074FF2062206AB8B9012036
:20518C00BDE8F081002804BF2362391C0BD01B1841425B1E01EA030020623F1AE869C0192B
:2051AC00E061E0690140E1614FF0FF306062A6622869E06268692063A86A6063A88DA08746
:2051CC00A08F012803D10B49C868401CC8602046414601F0FBFF0346404608F075FD002856
:2051EC0014BFD81C0020BDE8F081C04690F6000094F60000282300202DE9FF410AAF3F884F
:20520C000C4605469846164602A9204607F0B6FE0146434632460129284608BF012049D00E
:20522C00BDF80860DFF8948042F60211FF25761A2DD048F26310361A012E26D81FBB012B2E
:20524C001FD1BDF808104AF666200026884202D11178032913DA1178E2681170BDF8081039
:20526C00884205D0E1684046884217D1354617E0E1684046401C884210D1012510E08026FE
:20528C000CE00D260AE00B2608E00A2606E0009701210191214604F095FB0646FF2D08D044
:2052AC004046001D006820B1006810B101462846884730460090BDE8FF81C04644210020A3
:2052CC002DE9FE430AAF3C8805460E4699469046304602A907F052FE4B4642462946012881
:2052EC0008BF012049D0BDF80800DFF8948042F60215FF27401B4FF000052AD048F23F1161
:20530C00401A2ED0401E12D0801E20D1ECB9012B19D110780A2808DBF1680870F16844464E
:20532C00601C88421DD102271DE0802519E064B9012B08D11078F1680870F16844468C423D
:20534C000FD101270FE00D250BE00B2509E00A2507E00094084601243146019404F032FBCA
:20536C000546FF2F08D04046001D006820B1006810B10146384688472846BDE8FE83C0469D
:20538C00901D00202DE9FE430AAF3C8805460E4699469046304602A907F0F0FD4B464246EE
:2053AC002946012808BF012049D0BDF80800DFF8948042F60215FF27401B4FF000052AD092
:2053CC0048F21F11401A2ED0401E12D0401E20D1ECB9012B19D110780A2808DBF168087047
:2053EC00F1684446601C88421DD102271DE0802519E064B9012B08D11078F1680870F168F2
:20540C0044468C420FD101270FE00D250BE00B2509E00A2507E000940846012431460194D2
:20542C0004F0D0FA0546FF2F08D04046001D006820B1006810B10146384688472846BDE8A5
:20544C00FE83C046241E00202DE9FE430AAF3C8805460E4699469046304602A907F08EFD8C
:20546C004B4642462946012808BF012049D0BDF80800DFF8948042F60215FF27401B4FF0B7
:20548C0000052AD048F2FF01401A2ED0401E12D0401E20D1ECB9012B19D110781E2808DB74
:2054AC00F1680870F1684446601C88421DD102271DE0802519E064B9012B08D11078F16831
:2054CC000870F16844468C420FD101270FE00D250BE00B2509E00A2507E00094084601244D
:2054EC003146019404F06EFA0546FF2F08D04046001D006820B1006810B10146384688474E
:20550C002846BDE8FE83C046B41E00202DE9FE430AAF3C8805460E4699469046304602A9AA
:20552C0007F02CFD4B4642462946012808BF012049D0BDF80800DFF8948042F60215FF2770
:20554C00401B4FF000052AD048F27F11401A2ED0401E11D0401E20D1ECB9012B19D11078B3
:20556C000A2807DBF1680870F16844468C421ED102271EE080251AE06CB9022B09D1F06850
:20558C0011880180F1684446601C88420FD101270FE00D250BE00B2509E00A2507E00094E5
:2055AC00084601243146019404F00CFA0546FF2F08D04046001D006820B1006810B10146C9
:2055CC00384688472846BDE8FE83C046541C00202DE9FE430AAF3C8805460E469946904620
:2055EC00304602A907F0CAFC4B4642462946012808BF012049D0BDF80800DFF8948042F62F
:20560C000215FF27401B4FF000052AD048F26F11401A2ED0401E12D0401E20D1ECB9012B36
:20562C0019D110780A2808DBF1680870F1684446601C88421DD102271DE0802519E064B90E
:20564C00012B08D11078F1680870F16844468C420FD101270FE00D250BE00B2509E00A25D3
:20566C0007E00094084601243146019404F0AAF90546FF2F08D04046001D006820B10068F8
:20568C0010B10146384688472846BDE8FE83C046D41F00202DE9F8430D4606466868746860
:2056AC00D6F80890002710B9E868002850D02078012814D109F0E0F8D4F8BC1049B1D4F81B
:2056CC00C0108D61C4F8C05009F0FEF90120BDE8F883C4F8BC50C4F8C05009F0F5F9022066
:2056EC0006F0F6FF04F160084FF0FF314046FFF7B7FCD9F8080005F011FB3046294601F008
:20570C0091FB0546D9F8080005F02AFB207888B9B5F1FF3F08D004F17C004FF0FF31FFF748
:20572C009FFC207A48B110E003202072022006F0B7FF0AE0B5F1FF3F01D0012705E00320ED
:20574C00207204F12C0005F02DFB404603F0C2F83846BDE8F88370471CB52D4C401E02D06B
:20576C00401E44D01CBD09F069F8400931D32089FF2831D00120694606F06CF9BDF800007A
:20578C0010F07F0F18D0BDF800002081022002F03FFE08F0B1FDA8B11E48006841F2883127
:2057AC00B1FBF0F002F0A8FA05F0D0FEBDF8001041EA0020208105E0BDF8000020810020EE
:2057CC0002F026FE04F108020120022102F0CAF807E0FF20083420800120FF21022207F072
:2057EC00A7FF00201222014607F0A2FF1CBD02200DF1020106F02EF99DF80200410001EBE7
:20580C00C001E18004F1280004F004FA1CBDC0464822002070F6000030B52E4CADF1140D5E
:20582C0028BB04F120050020294605F0C3FB207E012802D9401F14D04AE0012803D108F019
:20584C005BFD002844D0207E617E01F03FFC00283ED0207FA27E294606F082FF08F0DCFF51
:20586C0036E0E069A27E294600F0A2FF30E0012821D002282CD1022002A905F09BFB7E2155
:20588C00E1619DF8095065769DF808002076052814BF02200420A076A07E04F11C058DF8A9
:2058AC00080029680DF1090302AA01201960052105F026F80CE00120694605F07BFB9DF8FE
:2058CC0000100DF10100A176006804F11C05286005B030BDD42300202DE9F04108F0CCFFCD
:2058EC00DFF8A0800646D8F8A00010F4602F28D0400CC4B2600807D2A00803D2E00828BF0F
:20590C00022402E0012400E00024651D68B204F029FAD8F8A01004F111020120904081435A
:20592C003046C8F8A01009F0CFF808EB8400D0F88C704FB1D8F8880013A20CCA2946B84729
:20594C0002E0304609F0C0F8D8F8A00020B108F58070002108F0F8FB98F8A50080080FD359
:20596C00D8F8987037B1D8F8880009A20CCA6FF00101B84798F8A50000F0FD0088F8A500DB
:20598C00BDE8F081D014002000000000000000080000000000000080F8B508F013FF08F0AA
:2059AC0023FF044604F00C000C2845D0E0081ED207F08CFA234E376805460120014607F017
:2059CC00A4FF31686943884211D21F4C8220B0FBF7F0291A204609F0BBF8204608F031FCA7
:2059EC000120FCF7B3FC204607F022FF25E0200922D21648610939BF016821F00101016893
:205A0C0041F0010102460160D2F898004FF0805440F00300C2F89800D4F8B80180690146EF
:205A2C0020208847D4F8B801094C806B2168804701202060206800E030BF08F0C9FE02F08D
:205A4C00B3FCF8BD70F60000541B00208C2108402C2009402DE9F0412A4D044628781F464A
:205A6C0090460E46ADF1300D012803D0FEF7C4FB012028705EB1B8F1000F666007D0C4F88C
:205A8C00088008F0F9FE697819B109F01DF8002034E0491CC9B2697009F016F8012527B9D0
:205AAC001A4807C86F4687E80700386820607868E060397A782204F118002174002101F03D
:205ACC003FFD03A800212422082308F00BFF04F130008DF82450002103AA06F0A9FF03A80A
:205AEC0000212422082308F0E5FE04F1680006490994002203AB06F0FDFB20460CB0BDE85F
:205B0C00F081C046D214002081CE0000E4F40000F8B52C4C04F1180004F1100100F0E4FECB
:205B2C000028606008BF002048D004F12406304608F0D8FB002584F824502148606331465A
:205B4C0084F83050284606F0DBFD2F46E06000B10127002831D0AB208DF8000008F0F6FC10
:205B6C006846012106F0A4FE2F4600B9012708F0E5FC1FB103F0D8F900B12F46CFB105F053
:205B8C0099F9002808BF2F1C15D004F1440000E0083007683FB1017922789142F8D141792E
:205BAC0062789142F4D1A06000682C4600B101242746012F01D003F089F93846F8BDC0469B
:205BCC0000093D00D8200020F8B50D46EEB2290824BF27494D40274BB400DFF89CC01959DF
:205BEC0000EA05020CEA020200F4E02C85EA0107BCF5E02F00EA070721EA0001C7F3006752
:205C0C0042EA010201D1510E14D300F4E0210F4310D002F4E027B7F5A02707D0B7F5803760
:205C2C0004BF22F4003242F4A02203E022F4803242F4C0221A51114CC10D04D3C5F380529B
:205C4C00A4F1D0018A55000E10D308F015FE290E03D201220021B24002E00122B240114667
:205C6C00236893431943216008F02EFFF8BDC046006000A000100840007F077FD02002406B
:205C8C002DE9F843984617468946044608F0B6FC274DB5F934604B4642463946F61A04D473
:205CAC00B5F936609E4204DA0CE0B5F936609E4205DAB5F93660B5F93470BE4202DC06F07D
:205CCC004DFB31E09E1003EB567626F007069B1BDE0006EB4316AD1905F59C752E1D96F84C
:205CEC002030243513F0070F18D1124B3568AB4202D03568A565336004F1500383E8060041
:205D0C0006F02CFB04F130004FF0FF31FFF7A8F904F1600797E80300BDE8F88306F01EFB22
:205D2C00287810F0070FFBD102200021BDE8F883D014002089A2000070B52B4E2B4D012804
:205D4C0006D038BB31460020491C07F071FC21E03146012007F06CFC34462078022811D0F9
:205D6C00621C0020012103F083FE28680A21002205F08CFE28680F21002205F087FE07F034
:205D8C0019FA07E008F05AFD621C60700121002003F06EFE31460878012824D134462868A0
:205DAC006178490834BF002201220A2105F06EFE28686178890834BF002201220F2105F092
:205DCC0065FE61782868C90802D207F0F3F905E005F070F94FF4FA6003F0C8FE60780009E9
:205DEC0001D302F0ADFA70BD542600201009002038B52C4C054600206908207009D300F08D
:205E0C0089FC002808BF207803D0207840F001002070A90809D302F0CBFB002808BF207872
:205E2C0003D0207840F002002070290909D300F03FFE002808BF207803D0207840F00800C4
:205E4C002070E90809D304F091FA002808BF207803D0207840F004002070690909D303F063
:205E6C005DFA002808BF207803D0207840F010002070A90909D305F0FDF8002808BF2078FE
:205E8C0003D0207840F020002070E90909D308F0A1FA002808BF207803D0207840F04000E8
:205EAC00207038BD043600202B482DE9F8430D469C4608AF91466968BC883E884B78027858
:205ECC0009784FF0000842F6232701EB0321C91B674628D0491E052917D9891F0CD026396B
:205EEC0033D1072E2ED8C6F10701A14298BF8CB23618083631461FE0B24223DB921BA2429B
:205F0C00D8BF94B23C8040680BE0E86808F030FA80B2B04216DB801BA042D8BF84B23C80BC
:205F2C00E868311809E0082E0CD8C6F10801A14298BF8CB231180F313C804846224600F056
:205F4C0037FC06E04FF0070803E040464FF00A0838804046BDE8F883481700202DE9FE4FD4
:205F6C0080460E463078994693460CAF022832D0DFF894A0254D7068DAF818401022303D96
:205F8C00294607F0D3FA002740B9002C38D08AF80190012041465A46A04731E0706805F14D
:205FAC001001102207F0C2FA10B94CB30220F1E7706805F12001102207F0B8FAA0B9B9F150
:205FCC00010F06D19BF80000002818BF8AF80A0016D1802714E070684278007842F60211D9
:205FEC0000EB0220814201D00A2709E03988012000915A4601903146404603F0E3FC07461A
:20600C003846BDE8FE8FC0461C1900204CED00002DE9F04F09AFADF11C0D924606903C882A
:20602C000493D7F80880059197F80490039430B1081C04D0181C18BFB8F1000F01D1022086
:20604C0038E01E4801780026354630E0069C04EB8504B4F800B04FF6FF70584523D0A778B3
:20606C000FB303990498059A07F08AFC0290D0B178080AD3CDF80090CDF80480029B012131
:20608C005846524601F0DCF90643A07880080AD3CDF80090CDF804802088029B5246022194
:2060AC0001F0CEF90643054801786D1CEDB2A942CCDC304607B0BDE8F08FC04620050020B6
:2060CC00042998B545D1294C606A40B994F8A500400838BFE06804D3D4F8880000E0C06801
:2060EC00E060001D01681B4A0978116000681168007888422CD1022006F0EAFA1120FEF735
:20610C0077FE01202072E168087C091D10B1A079012804D00E20FEF76BFEE168091D086816
:20612C000D49083007680FB947681FB10020C8610A4F0F600A4A40F2FF700B4B106000271C
:20614C002361084A8F6119204A6104F009FE98BDFEE798BDD0210840001004405100070614
:20616C00000004600200004085840000D01400202DE9FF410AAF3C880546984616460F46B3
:20618C0002A9384606F0FAFE434632462946012808BF01203CD0BDF80800DFF87C8042F687
:2061AC000215FF26401B4FF000051ED04AF2C031401A09D0401E16D19CB9012B0FD110787C
:2061CC00F968022608701AE05CB9082B07D11168526840460E300160012642600FE00D2556
:2061EC000BE00B2509E00A2507E00094084601243946019403F0E6FB0546FF2E07D04046B5
:20620C00006820B1006810B101463046884728460090BDE8FF81C046F81C0020B0B501467B
:20622C008B681C68E26948682262520824D2D0F8A01049680A685D69D2F80415294206D087
:20624C001C68616A21F002016162C2F80455D2F8042519690A4231D01A68516A21F00101E7
:20626C005162D0F8A01049681A6909683830C1F8042504F097FDB0BD1C68626922F001029F
:20628C006261D0F88870B7B9626822F0020262601C68626A22F003026262D0F8A0005F6902
:2062AC0044681A69236847EA0200C3F80405084606F01CFFB0BD0846FEF70EFAB0BD7047E6
:2062CC00F8B5446886680846203804F10C043AD0401E34D0401E2FD120781578012814BFD5
:2062EC001D491E49FF2D41EA050109D194F88110FF2903D0D4F8900003F0E4FBFF2515E02F
:20630C00D4F8900002F050FA98B93068B0F1804F14BF23220B22D4F89000294606F010FD6D
:20632C00D4F8900094F8811003F0CCFB84F8815010E04FF0FF30F8BD6FF00100F8BD002089
:20634C0084F89800F8BD21780020012908BF012084F898000020F8BD0004C0A000200080B0
:20636C00F0B520480127F84201D004F0A3F9204D204F214EBD4206D203CD0478A4003459A2
:20638C00401CA047F6E71D48002800D08047164D164FBD4202D210CDA047FAE7F0BD032598
:2063AC001BE0416808300A1C2A400BD11A1C2A40AB4305D0046804300C600431043BF9D1DC
:2063CC00131C05D0047801300C700131013BF9D1021C2A4001D0A84304300368002BE0D18D
:2063EC007047C046FFFFFFFF0000000000000000AC020100E4020100A402010029A30000CF
:20640C002DE9F0470F46064608F010F9EFF311898246202080F31188D6F80880474533D00C
:20642C001D481E4B0468002F05D49C690125BD4004EBC70401E0E4180025307D01281AD169
:20644C00304608F075F9306C08F06BF918B1F1685868884358601869864204D020463146FD
:20646C0008F03AFA04E020685C61314608F076FB586828435860B760F5603464002F44BFC2
:20648C00002058610120188189F31188504606F0E1FE4046BDE8F08784F600002823002056
:2064AC001B4838B50468B4F1FF3F08BF002407F04BFF0025174818490560012008601749D2
:2064CC00086003F03BFE1648006820B1154800682046FBF795FA144814490560144C0A68E9
:2064EC006FF35B4244EA0200086012490868C0F30130012806D10A680F48104040F40032CB
:20650C000A6008600D4908680028FCD138BDC0461C130050840460425C600C4008220443C5
:20652C0080012843000120438C210840482003400000390104000940FFFFFCFC0C0068422C
:20654C00F0B50446234DA7682868ADF12C0D67BB0C2000F037FD071C1ED0684600212422C2
:20656C00082308F0A7F9002306976A466168ADF810301948059305F011FC386078B9082141
:20658C000C22ADF82410286AADF82620014609A88847384606F0A8FB6FF0030018E0E068EB
:2065AC0078602069B860A7600AE080470646386807F03EF92069B860686801463046884787
:2065CC003868616808F0C4FA386807F03AFE00200BB0F0BD401A002085E900002DE9F84300
:2065EC00244C0646E06890460D46B04218BF03203AD103F08DFB071C35D408F03DF98146CF
:20660C001A4807F00F0145EA012525F003010843C4F8840007F01CF800F0FF0001281AD1FE
:20662C00680B0FD384F8A470114B94F8A550186807F10C020121914045F0040584F8A55064
:20664C0088431860C4F8886004EB8700C0F878800126267004E0384603F084FB6FF0010729
:20666C00484608F031FA3846BDE8F8830100030608100440D0140020B0B5254C607841085E
:20668C0009D320F0010060700A20014603F02EFF04F030FD60781D4D810807D320F00200C8
:2066AC0029786070062901D103F0DCF82078A178884228D000200121224604F09BFC28784D
:2066CC00022802D1207807F097FCA7782078B90808D3810806D22978062903D003F0C2F88B
:2066EC00A778207810F0030F0DD067B904F10805284607F01BFF28B9284608F005FA0020E1
:20670C00E080A0802078A070B0BDC046040900209424002010B50020442100F0D7FC002898
:20672C0008BF002440D0214C1F200222214607F05CFD002835D021880806000C40EA212070
:20674C00782815D11020208021460220024606F007F830B302202146024607F046FD00B370
:20676C0021880806000C40EA2120B0F5805F01D0208016E00020208021460220024605F06E
:20678C00EFFF70B102202146024607F02EFD40B121880806000C50EA2120208008BF012430
:2067AC0000D0002408F038F8204610BDEC350020002A4AD05FEA000C8B071CD1830722D1A8
:2067CC00102A08D370B4103A78C978C0103AFBD270BC103238D0042A2CD3082A05D30C2AB7
:2067EC0024BF08C908C008C908C008C908C092072AD0920F22E00B780370491C401C521E82
:20680C0022D08B07F7D1C30714D18307D8D0121F12D308C903801B0C4380001D121FF8D2D3
:20682C000AE008C903701B0A43701B0A83701B0AC370001D121FF4D2121D05D00B780370C8
:20684C00491C401C521EF9D1604670472DE9FF47204808214FF00109ADF804100068ADF8D8
:20686C000690014601A888471B4D039969609DF8080028704FF0FF3105F10C00FFF7C0FD91
:20688C001648174E174F04684FF47A78B6FBF4FA1AE0484604F06EFC504601F02DFA0DF1F1
:2068AC000200694600F0C2FE002004F063FC002004216A4601F074FC688808FB00F0801B24
:2068CC00B0FBF4F001F018FA68780128E1D0B7FBF4F0F7E7601A00201C12002070F600009E
:2068EC003832040040420F002DE9F843234E0F4604464FF0FF3106F124052846FEF7B0FB8F
:20690C00A94600200CE0FF2909D032688A4204D906EB8101D1F894500DB1002425E0401CC9
:20692C001FB117F82010FE29EDD1002020604FF0010860600546A06011E0FF290ED01078E5
:20694C00636808FA00F0184306EB810360600A491268C3F89440204605F0C8FB6D1C27B103
:20696C0007EB85021178FE29E7D1484601F0B2FF2046BDE8F883C046007FC7675831002018
:20698C00B0B5244C2178E0888A0832BF0020401C80B24908E08017D3A188491C8FB2062F45
:2069AC00A78013DB062811DB04F10805284607F0BDFD60B3284608F0A9F80020A080E080C1
:2069CC00607840F001001DE00027A78003280ADA38431CD10834204607F0A8FDB8B12046D3
:2069EC0008F094F8B0BD97B904F10805284607F09DFD60B1284608F089F80020E0806078F9
:206A0C0040F0020002496070086801F063FFB0BD0C090020942400202DE9F8432020EFF36D
:206A2C00118780F31188214CA068012108F082F84FF001094FF0000865692168A4F81C906E
:206A4C006A1A2168A4F81E80461B401A904227D387F3118840464519361A4846294600F028
:206A6C005DFEB042F7D92021EFF3118781F31188E18B012903D14046294600F04FFEB0F1E8
:206A8C00FF3F06D0A169801B814238BF081C411901E0A069291807F0D1F8A4F8209025603D
:206AAC00A4F81C8087F31188BDE8F883EC2400201CB50020772100F009FB002808BF00249F
:206ACC003FD0D0206946012207F08FFB002835D09DF80000582831D1F5206946012207F036
:206AEC0084FB00282AD09DF8000038BB55208DF8000069460122F42005F032FEF0B1F420A7
:206B0C006946012207F071FBC0B19DF80000552814D1B6208DF8000069460122E02005F0AA
:206B2C001FFE58B1F4206946012207F05EFB28B19DF80000002808BF012400D0002407F080
:206B4C006BFE20461CBD70471CB5234C401E02D0401E31D01CBD07F071FEC00824D3207865
:206B6C00FF2823D00120694605F082FD9DF80010207869B9A0B104F1080007F0C7FF002021
:206B8C0005F0FCFF00200222014607F071FA07E030B9012005F0F2FF04F1080007F0B4FF8E
:206BAC009DF8000020701CBDFF2020700120FF21024607F05DFA1CBD0220694605F058FD51
:206BCC009DF80000410001EBC001618004F1080003F020F81CBDC046C024002020482DE9DC
:206BEC00F04308210122ADF1140DADF804100068ADF80620014601A888471A4D03996960D4
:206C0C009DF8080028704FF0FF3105F10C00FFF7F7FB1548154F046843F698264FF47A7881
:206C2C00B6FBF4F916E006F0B7F8484601F064F80DF10201684603F031FA002004216A4672
:206C4C0001F07AFA688808FB00F0801BB0FBF4F001F052F868780128E5D0B7FBF4F0F7E749
:206C6C00601A0020680F002070F6000040420F00FEB5044622481646089FC069618250F822
:206C8C0021201C4800681D4690420DD01B480068009000220191184E029231888F233846D7
:206CAC0007F020F80120FEBD084604F037F8A66068696060286AB0F1FF3F08BFFF202074EA
:206CCC000026E660288B00280EBF301C0120E0600146A88C10B141F00200E060204602F0E0
:206CEC00EDFD0346384606F0EFFF002814BFD81C301CFEBD5CF60000FCF6000048F600007B
:206D0C00A023002030B5224C207EADF1140D012802D9401F20D024E0012803D107F0ECFAA3
:206D2C00051C0DD0207E617E00F0D0F9051C07D0207FA27E694607F058FA054607F06CFDB9
:206D4C00012D0ED0A27EFF230020824209DD411C00F80D30C8B2F8E7E169A27E6846FFF716
:206D6C0027FDA27E211D684606F0E0FB211D60B1A27E08466946FFF71BFDA17E00206A469D
:206D8C0003F0BEFD6069401C606105B030BDC046D42300202DE9984307F06EFD1F4CDFF8FF
:206DAC007880814604F1E000007850B94446A0680146022088470746102003F0C5FD2FB3D4
:206DCC0020E002F0F3F9002820460FD1144909683222B2FBF1F101B9012100F13004204643
:206DEC0007F0B6FE204607F02CFA0FE044460022A16880F8E020022088470746102003F0DC
:206E0C00A3FD1FB1A068014603208847484607F05BFEBDE89883C046A8F40000481B0020F2
:206E2C0070F6000080B54268C2F8A8100868C2F8AC004868C2F8B000D2F8B0708868C2F80B
:206E4C00B400C8681949C2F8B80097B9D2F8A800007C400040F0010041F8040C02201072D2
:206E6C000B68DB0917D2D2F8B820022A17D30B2216E0D2F8A800007C0123400041F8040C50
:206E8C00D2F8AC001372431CC2F8AC30007848600868C00902D34FF0FF3080BD02200322D6
:206EAC000A6007F0DEFD002080BDC0460428004070B51F4CA568064607F002F84FF47A71B3
:206ECC00401B4843050C06F099F82169401A48BF404240F6B831AD19A94211D306280FDAF0
:206EEC00A268E1688A420BD8206848B1891A114A51438A0C02EB1141884288BF011C08E086
:206F0C000D49486840080ED208687D2100F0FF004143C82905D3B1F57A6F88BF4FF47A61F9
:206F2C0003E0C82101E04FF4FA61084670BDC046D035002040420F00AC3F00501CB5204C4B
:206F4C00401E02D0401E2ED01CBD07F077FC00091DD36078FF281DD00120694604F08EFF20
:206F6C009DF8000030B19DF80000012817D10121617007E0002006226070014607F060F861
:206F8C004FF0FF3104F10C00FFF73AFA07E0FF20641C20700120FF21024607F051F800204C
:206FAC0006F0CCF81CBD0220694604F067FF9DF800202146891C500000EBC20008801CBDE8
:206FCC00B40C0020F8B5001D84B214F0030002D0241A241DA4B206F00BFD01461948102C35
:206FEC0047680160C8BF8768388800221646C30BDD0319D126B984420ADD3A46012617E0FF
:20700C001388C3189BB29C42138011DC174618469FB1001B80B20428B4BF3C88385344F4C5
:20702C0000443C803F1D08E080F40040002680B2C71938880028DAD10027084607F0BFF85E
:20704C003846F8BD481A00201CB51F4C401E02D0401E2BD01CBD07F0F1FB40081AD36078E1
:20706C00FF281AD00120694605F0EAFA9DF8000038B900200422014607F006F84FF0FF31D3
:20708C0000E0012104F10C00FFF7BAF99DF80000607007E0FF20641C20700120FF21024634
:2070AC0006F0F2FF002004F065F81CBD0220694605F0C6FA9DF800202146891C500000EB11
:2070CC00C20008801CBDC0461C1200202DE9F8438046894618481B4C164A016804F11400AE
:2070EC00B2FBF1F1FDF7BCFF00284946404608BF00201CD0144A114D117027682978814206
:20710C0012D02870384607F028FC261D304607F0ADF928783146012804BF09482061002005
:20712C0005F016FA07462760002007B10120BDE8F883C04620A1070070F600009C2D002034
:20714C00FAF60000203500209D2D0020B0B517491C481D4A0F68C0691549C2F8080DD2F8AD
:20716C00083D99420ED06FB1124B1B6800240F2C2CBF1D1C0D68091D641C05607F1E00F174
:20718C000400F4D10D48D2F80C7D0B4D0168202427F47F4000EB01202918C2F80C1D084B10
:2071AC0082F8224D1868C2F8140DB0BD4CF60000101000005CF600000000FA0560F6000009
:2071CC0054F60000A023002000E000E070B50D461B4A1A4904462B4605F02CFD20612846AE
:2071EC0006F072FD40BB184801220021A568036822751448A161002D18D4A1688A4080693D
:20720C00A168E26007F05CFB206407F00FFAEFF311850646202080F31188204606F0A0FF3A
:20722C0085F31188304606F015F805E0E160C0182146206406F01EFD002070BDB9DC0000DC
:20724C009DB800002823002084F60000F8B50E4605461446A969EA691F462046FFF7A8FA7A
:20726C0064602FB1EA6920463946082303F020FCE468D6B9E8686969AA68079B07F05CFBED
:20728C00071C08BF002020D007F04AFB69683960696849687960696849680F6069684F6076
:2072AC0007F0CCF907F1080605E06A6930460021083A00F045F92868B0F1FF3F18BF30606B
:2072CC00286908B1616831503046F8BD1D4A70B5D3680C46834218BF03202DD192F8A500DE
:2072EC00C1080AD392F8A410A14206D100F0FB0082F8A500002682F8A46007F0BDFA06463C
:20730C00204602F02FFD0D48210201F47F41084306F09EF90A4A0546106804F10C0301219B
:20732C00994088431060304607F0CEFB05F0FF05012D0CBF8120022070BDC0460100080402
:20734C0008100440D01400201CB51D4C401E02D0401E28D01CBD07F071FA80081AD3607879
:20736C00FF281AD00120694605F0DAF89DF8000038B900200422014606F06EFE4FF0FF3175
:20738C0000E0012104F10C00FFF73AF89DF8000060701CBDFF20641C20700120FF210246C0
:2073AC0006F05AFE1CBD0220694605F0B9F89DF800202146891C500000EBC20008801CBD04
:2073CC00680F00201CB5042006F04AFB022818D0032816D016480068C0F38150032814BF6F
:2073EC0041F288324FF47A721248144C016854342046B2FBF1F107F0ABFB204606F021FFAC
:20740C001CBD03200C4C009000214FF040521C23204603F02DFA012000214FF400720923A8
:20742C000090204603F024FA022005F039F91CBDB43F005070F6000000A00C40481B0020FF
:20744C002DE9F0430E4691461D4607AF80461B214FF6FF72ADF11C0D03AB05F035FF0590A8
:20746C0038B300210091BDF80C100191FF2402947C6802460DF1120340462946A047041C0C
:20748C0012D16889ADF81000700805D340464A4604A906F00DFA05E03B7840464A4604A9EC
:2074AC0007F06CF9041C05D004A81B2106F076FA00E01524204607B0BDE8F083F8B506AF71
:2074CC0038881E4614460F46002818BF0B2030D10846694605F052FD012803D10021012022
:2074EC003180F8BDBDF800004AF601410025401A15D0401E0BD0401E03D028460A253080C8
:20750C0016E002203080F8680088208010E005203080F868016821600079207108E0FFF718
:20752C00F1FB044802783280F9682046FFF740F92846F8BD4C1F0020002213460A4619460D
:20754C0071B510F0030F0BD0002A82BF00F8011BB2F1010210F0030FF6D1002A08BF71BDEF
:20756C0011F0FF0141EA0121042A18D341EA0141082A0FD30E46102A08D30C460D46B2F166
:20758C000F0312F00F0272C0103BFCD812F0080F18BF42C012F0040F18BF40F8041B12F032
:2075AC00020F18BF20F8021B12F0010F18BF017071BD704790B50446ADF1140DFEF7A8FA7E
:2075CC00002700B101275FB3174810300078022804D0032818BF4FF4F02001D14FF4F220FC
:2075EC0010216A4602F066FC01F070FCBDF80610BDF804006180FF2808BF002002A920802F
:20760C0008460168231DFF2219609DF80E00E2729DF80C10A072BDF80C3061721812207293
:20762C00384605B090BDC046EC250020F8B505460E4600204421FFF749FD002808BF00206B
:20764C002CD0174C04200222214606F0CEFD071C21D021880806000C40EA2120C0F38037A3
:20766C002080C00B17D3A11C0120022206F0BDFDA41C071C0FD0A11C0320022206F0B5FD89
:20768C0007462378A278E178607840EA0320288041EA0221318007F0BFF83846F8BDC046D0
:2076AC00EC3500202DE9FE431A481B4E017800244FF6FF790127804627E0716931F8245095
:2076CC00A9451ED0284606F0B9FE400819D328461B213A46002305F0F7FD019088B1B6F8C5
:2076EC004210ADF802707378ADF80010002269460370284606F0DCF818B168461B2106F050
:20770C004DF998F80010641CE4B2A142D5DCBDE8FE83C04620050020602000202DE9F0476F
:20772C0080461A481A4C00682418204607F014FA0E464FF0FF374FF0000A814621E04D4633
:20774C00284607F00DFA8146A88A012819D1B8F1010F0ED1E86886420BD12869002808BF99
:20776C00A5F814A002D0E9684018E860A969E8698847A88A012804D1E868801B874288BF8C
:20778C00071C4C45DBD13846BDE8F0876CF60000EC2400201FB5194B0C4601461046002208
:2077AC0089B1491E06D0491E23D1012C0DD1007818701FE0082C08D1124903680E310B6064
:2077CC004068486016E0062C01D0182212E0046803F10C010C608088888008240094FF245C
:2077EC000194074C029498681C33FEF711FC024600E00222104600901FBDC046F41C00206A
:20780C00DDA50000F81C00202DE9FC414FF0020816460F46054602E006F090FEA619002FBA
:20782C0008BF012028D001F07FFB20BB04F060FE08BB05F0FF04C4F58074BC4288BF3C1CBF
:20784C008DF800808DF80350280C8DF80100280A8DF8020006F07AFE6846042105F028F876
:20786C003F1B651928B93046214605F021F80028D2D006F063FE0020BDE8FC8138B50546BD
:20788C0001211A4C28796971B0B906F0B1F82178002904BF6FF00704051C15D0491EC9B2FA
:2078AC00217039B906F08BFC606805F039F90020687118E0054613E006F09AF80546207833
:2078CC00FF2805D16FF00604284606F078FC0BE0401CC0B20128207002D1606805F037F92C
:2078EC00284606F06CFC0024204638BD4426002070B50646B079F5680B28A5F108052CDAD4
:20790C0030790B2829DA06F073F8154CB27991000C3401EBC20161184968E1B106F04FFC12
